{
	"ProofOfStake.sol": {
		"ProofOfStake": {
			"abi": [
				{
					"anonymous": false,
					"inputs": [
						{
							"indexed": false,
							"internalType": "string",
							"name": "message",
							"type": "string"
						},
						{
							"indexed": true,
							"internalType": "address",
							"name": "validator",
							"type": "address"
						}
					],
					"name": "ValidatorRejected",
					"type": "event"
				},
				{
					"anonymous": false,
					"inputs": [
						{
							"indexed": true,
							"internalType": "address",
							"name": "validator",
							"type": "address"
						},
						{
							"indexed": false,
							"internalType": "uint256",
							"name": "reward",
							"type": "uint256"
						}
					],
					"name": "ValidatorSelected",
					"type": "event"
				},
				{
					"inputs": [],
					"name": "getTotalStaked",
					"outputs": [
						{
							"internalType": "uint256",
							"name": "",
							"type": "uint256"
						}
					],
					"stateMutability": "view",
					"type": "function"
				},
				{
					"inputs": [],
					"name": "getValidators",
					"outputs": [
						{
							"components": [
								{
									"internalType": "address",
									"name": "validatorAddress",
									"type": "address"
								},
								{
									"internalType": "uint256",
									"name": "stake",
									"type": "uint256"
								}
							],
							"internalType": "struct ProofOfStake.Validator[]",
							"name": "",
							"type": "tuple[]"
						}
					],
					"stateMutability": "view",
					"type": "function"
				},
				{
					"inputs": [
						{
							"internalType": "uint256",
							"name": "threshold",
							"type": "uint256"
						}
					],
					"name": "handleLowStakes",
					"outputs": [
						{
							"internalType": "bool",
							"name": "",
							"type": "bool"
						}
					],
					"stateMutability": "view",
					"type": "function"
				},
				{
					"inputs": [],
					"name": "selectValidator",
					"outputs": [
						{
							"internalType": "address",
							"name": "",
							"type": "address"
						}
					],
					"stateMutability": "nonpayable",
					"type": "function"
				},
				{
					"inputs": [],
					"name": "stakeTokens",
					"outputs": [],
					"stateMutability": "payable",
					"type": "function"
				},
				{
					"inputs": [
						{
							"internalType": "address",
							"name": "",
							"type": "address"
						}
					],
					"name": "stakes",
					"outputs": [
						{
							"internalType": "uint256",
							"name": "",
							"type": "uint256"
						}
					],
					"stateMutability": "view",
					"type": "function"
				},
				{
					"inputs": [],
					"name": "totalStaked",
					"outputs": [
						{
							"internalType": "uint256",
							"name": "",
							"type": "uint256"
						}
					],
					"stateMutability": "view",
					"type": "function"
				},
				{
					"inputs": [
						{
							"internalType": "uint256",
							"name": "",
							"type": "uint256"
						}
					],
					"name": "validators",
					"outputs": [
						{
							"internalType": "address",
							"name": "validatorAddress",
							"type": "address"
						},
						{
							"internalType": "uint256",
							"name": "stake",
							"type": "uint256"
						}
					],
					"stateMutability": "view",
					"type": "function"
				}
			],
			"devdoc": {
				"kind": "dev",
				"methods": {},
				"version": 1
			},
			"evm": {
				"assembly": "    /* \"ProofOfStake.sol\":60:2676  contract ProofOfStake {... */\n  mstore(0x40, 0x80)\n  callvalue\n  dup1\n  iszero\n  tag_1\n  jumpi\n  0x00\n  dup1\n  revert\ntag_1:\n  pop\n  dataSize(sub_0)\n  dup1\n  dataOffset(sub_0)\n  0x00\n  codecopy\n  0x00\n  return\nstop\n\nsub_0: assembly {\n        /* \"ProofOfStake.sol\":60:2676  contract ProofOfStake {... */\n      mstore(0x40, 0x80)\n      jumpi(tag_1, lt(calldatasize, 0x04))\n      shr(0xe0, calldataload(0x00))\n      dup1\n      0x8bd64852\n      gt\n      tag_10\n      jumpi\n      dup1\n      0x8bd64852\n      eq\n      tag_6\n      jumpi\n      dup1\n      0xb7ab4db5\n      eq\n      tag_7\n      jumpi\n      dup1\n      0xce46643b\n      eq\n      tag_8\n      jumpi\n      dup1\n      0xf0fc9abe\n      eq\n      tag_9\n      jumpi\n      jump(tag_1)\n    tag_10:\n      dup1\n      0x0917e776\n      eq\n      tag_2\n      jumpi\n      dup1\n      0x16934fc4\n      eq\n      tag_3\n      jumpi\n      dup1\n      0x35aa2e44\n      eq\n      tag_4\n      jumpi\n      dup1\n      0x817b1cd2\n      eq\n      tag_5\n      jumpi\n    tag_1:\n      0x00\n      dup1\n      revert\n        /* \"ProofOfStake.sol\":2583:2673  function getTotalStaked() public view returns (uint) {... */\n    tag_2:\n      callvalue\n      dup1\n      iszero\n      tag_11\n      jumpi\n      0x00\n      dup1\n      revert\n    tag_11:\n      pop\n      tag_12\n      tag_13\n      jump\t// in\n    tag_12:\n      mload(0x40)\n      tag_14\n      swap2\n      swap1\n      tag_15\n      jump\t// in\n    tag_14:\n      mload(0x40)\n      dup1\n      swap2\n      sub\n      swap1\n      return\n        /* \"ProofOfStake.sol\":214:252  mapping(address => uint) public stakes */\n    tag_3:\n      callvalue\n      dup1\n      iszero\n      tag_16\n      jumpi\n      0x00\n      dup1\n      revert\n    tag_16:\n      pop\n      tag_17\n      0x04\n      dup1\n      calldatasize\n      sub\n      dup2\n      add\n      swap1\n      tag_18\n      swap2\n      swap1\n      tag_19\n      jump\t// in\n    tag_18:\n      tag_20\n      jump\t// in\n    tag_17:\n      mload(0x40)\n      tag_21\n      swap2\n      swap1\n      tag_15\n      jump\t// in\n    tag_21:\n      mload(0x40)\n      dup1\n      swap2\n      sub\n      swap1\n      return\n        /* \"ProofOfStake.sol\":178:207  Validator[] public validators */\n    tag_4:\n      callvalue\n      dup1\n      iszero\n      tag_22\n      jumpi\n      0x00\n      dup1\n      revert\n    tag_22:\n      pop\n      tag_23\n      0x04\n      dup1\n      calldatasize\n      sub\n      dup2\n      add\n      swap1\n      tag_24\n      swap2\n      swap1\n      tag_25\n      jump\t// in\n    tag_24:\n      tag_26\n      jump\t// in\n    tag_23:\n      mload(0x40)\n      tag_27\n      swap3\n      swap2\n      swap1\n      tag_28\n      jump\t// in\n    tag_27:\n      mload(0x40)\n      dup1\n      swap2\n      sub\n      swap1\n      return\n        /* \"ProofOfStake.sol\":259:282  uint public totalStaked */\n    tag_5:\n      callvalue\n      dup1\n      iszero\n      tag_29\n      jumpi\n      0x00\n      dup1\n      revert\n    tag_29:\n      pop\n      tag_30\n      tag_31\n      jump\t// in\n    tag_30:\n      mload(0x40)\n      tag_32\n      swap2\n      swap1\n      tag_15\n      jump\t// in\n    tag_32:\n      mload(0x40)\n      dup1\n      swap2\n      sub\n      swap1\n      return\n        /* \"ProofOfStake.sol\":1329:2175  function selectValidator() public returns (address) {... */\n    tag_6:\n      callvalue\n      dup1\n      iszero\n      tag_33\n      jumpi\n      0x00\n      dup1\n      revert\n    tag_33:\n      pop\n      tag_34\n      tag_35\n      jump\t// in\n    tag_34:\n      mload(0x40)\n      tag_36\n      swap2\n      swap1\n      tag_37\n      jump\t// in\n    tag_36:\n      mload(0x40)\n      dup1\n      swap2\n      sub\n      swap1\n      return\n        /* \"ProofOfStake.sol\":2436:2538  function getValidators() public view returns (Validator[] memory) {... */\n    tag_7:\n      callvalue\n      dup1\n      iszero\n      tag_38\n      jumpi\n      0x00\n      dup1\n      revert\n    tag_38:\n      pop\n      tag_39\n      tag_40\n      jump\t// in\n    tag_39:\n      mload(0x40)\n      tag_41\n      swap2\n      swap1\n      tag_42\n      jump\t// in\n    tag_41:\n      mload(0x40)\n      dup1\n      swap2\n      sub\n      swap1\n      return\n        /* \"ProofOfStake.sol\":483:1253  function stakeTokens() public payable {... */\n    tag_8:\n      tag_43\n      tag_44\n      jump\t// in\n    tag_43:\n      stop\n        /* \"ProofOfStake.sol\":2220:2396  function handleLowStakes(uint threshold) public view returns (bool) {... */\n    tag_9:\n      callvalue\n      dup1\n      iszero\n      tag_45\n      jumpi\n      0x00\n      dup1\n      revert\n    tag_45:\n      pop\n      tag_46\n      0x04\n      dup1\n      calldatasize\n      sub\n      dup2\n      add\n      swap1\n      tag_47\n      swap2\n      swap1\n      tag_25\n      jump\t// in\n    tag_47:\n      tag_48\n      jump\t// in\n    tag_46:\n      mload(0x40)\n      tag_49\n      swap2\n      swap1\n      tag_50\n      jump\t// in\n    tag_49:\n      mload(0x40)\n      dup1\n      swap2\n      sub\n      swap1\n      return\n        /* \"ProofOfStake.sol\":2583:2673  function getTotalStaked() public view returns (uint) {... */\n    tag_13:\n        /* \"ProofOfStake.sol\":2630:2634  uint */\n      0x00\n        /* \"ProofOfStake.sol\":2654:2665  totalStaked */\n      sload(0x02)\n        /* \"ProofOfStake.sol\":2647:2665  return totalStaked */\n      swap1\n      pop\n        /* \"ProofOfStake.sol\":2583:2673  function getTotalStaked() public view returns (uint) {... */\n      swap1\n      jump\t// out\n        /* \"ProofOfStake.sol\":214:252  mapping(address => uint) public stakes */\n    tag_20:\n      mstore(0x20, 0x01)\n      dup1\n      0x00\n      mstore\n      keccak256(0x00, 0x40)\n      0x00\n      swap2\n      pop\n      swap1\n      pop\n      sload\n      dup2\n      jump\t// out\n        /* \"ProofOfStake.sol\":178:207  Validator[] public validators */\n    tag_26:\n      0x00\n      dup2\n      dup2\n      sload\n      dup2\n      lt\n      tag_52\n      jumpi\n      0x00\n      dup1\n      revert\n    tag_52:\n      swap1\n      0x00\n      mstore\n      keccak256(0x00, 0x20)\n      swap1\n      0x02\n      mul\n      add\n      0x00\n      swap2\n      pop\n      swap1\n      pop\n      dup1\n      0x00\n      add\n      0x00\n      swap1\n      sload\n      swap1\n      0x0100\n      exp\n      swap1\n      div\n      0xffffffffffffffffffffffffffffffffffffffff\n      and\n      swap1\n      dup1\n      0x01\n      add\n      sload\n      swap1\n      pop\n      dup3\n      jump\t// out\n        /* \"ProofOfStake.sol\":259:282  uint public totalStaked */\n    tag_31:\n      sload(0x02)\n      dup2\n      jump\t// out\n        /* \"ProofOfStake.sol\":1329:2175  function selectValidator() public returns (address) {... */\n    tag_35:\n        /* \"ProofOfStake.sol\":1372:1379  address */\n      0x00\n        /* \"ProofOfStake.sol\":1420:1421  0 */\n      dup1\n        /* \"ProofOfStake.sol\":1400:1410  validators */\n      0x00\n        /* \"ProofOfStake.sol\":1400:1417  validators.length */\n      dup1\n      sload\n      swap1\n      pop\n        /* \"ProofOfStake.sol\":1400:1421  validators.length > 0 */\n      gt\n        /* \"ProofOfStake.sol\":1392:1449  require(validators.length > 0, \"No validators available\") */\n      tag_55\n      jumpi\n      mload(0x40)\n      0x08c379a000000000000000000000000000000000000000000000000000000000\n      dup2\n      mstore\n      0x04\n      add\n      tag_56\n      swap1\n      tag_57\n      jump\t// in\n    tag_56:\n      mload(0x40)\n      dup1\n      swap2\n      sub\n      swap1\n      revert\n    tag_55:\n        /* \"ProofOfStake.sol\":1482:1483  0 */\n      0x00\n        /* \"ProofOfStake.sol\":1468:1479  totalStaked */\n      sload(0x02)\n        /* \"ProofOfStake.sol\":1468:1483  totalStaked > 0 */\n      gt\n        /* \"ProofOfStake.sol\":1460:1507  require(totalStaked > 0, \"No stakes available\") */\n      tag_58\n      jumpi\n      mload(0x40)\n      0x08c379a000000000000000000000000000000000000000000000000000000000\n      dup2\n      mstore\n      0x04\n      add\n      tag_59\n      swap1\n      tag_60\n      jump\t// in\n    tag_59:\n      mload(0x40)\n      dup1\n      swap2\n      sub\n      swap1\n      revert\n    tag_58:\n        /* \"ProofOfStake.sol\":1520:1531  uint random */\n      0x00\n        /* \"ProofOfStake.sol\":1605:1616  totalStaked */\n      sload(0x02)\n        /* \"ProofOfStake.sol\":1566:1581  block.timestamp */\n      timestamp\n        /* \"ProofOfStake.sol\":1583:1599  block.difficulty */\n      difficulty\n        /* \"ProofOfStake.sol\":1549:1600  abi.encodePacked(block.timestamp, block.difficulty) */\n      add(0x20, mload(0x40))\n      tag_61\n      swap3\n      swap2\n      swap1\n      tag_62\n      jump\t// in\n    tag_61:\n      mload(0x40)\n      0x20\n      dup2\n      dup4\n      sub\n      sub\n      dup2\n      mstore\n      swap1\n      0x40\n      mstore\n        /* \"ProofOfStake.sol\":1539:1601  keccak256(abi.encodePacked(block.timestamp, block.difficulty)) */\n      dup1\n      mload\n      swap1\n      0x20\n      add\n      keccak256\n        /* \"ProofOfStake.sol\":1534:1602  uint(keccak256(abi.encodePacked(block.timestamp, block.difficulty))) */\n      0x00\n      shr\n        /* \"ProofOfStake.sol\":1534:1616  uint(keccak256(abi.encodePacked(block.timestamp, block.difficulty))) % totalStaked */\n      tag_63\n      swap2\n      swap1\n      tag_64\n      jump\t// in\n    tag_63:\n        /* \"ProofOfStake.sol\":1520:1616  uint random = uint(keccak256(abi.encodePacked(block.timestamp, block.difficulty))) % totalStaked */\n      swap1\n      pop\n        /* \"ProofOfStake.sol\":1627:1647  uint cumulativeStake */\n      0x00\n        /* \"ProofOfStake.sol\":1669:1675  uint i */\n      dup1\n        /* \"ProofOfStake.sol\":1664:2119  for (uint i = 0; i < validators.length; i++) {... */\n    tag_65:\n        /* \"ProofOfStake.sol\":1685:1695  validators */\n      0x00\n        /* \"ProofOfStake.sol\":1685:1702  validators.length */\n      dup1\n      sload\n      swap1\n      pop\n        /* \"ProofOfStake.sol\":1681:1682  i */\n      dup2\n        /* \"ProofOfStake.sol\":1681:1702  i < validators.length */\n      lt\n        /* \"ProofOfStake.sol\":1664:2119  for (uint i = 0; i < validators.length; i++) {... */\n      iszero\n      tag_66\n      jumpi\n        /* \"ProofOfStake.sol\":1743:1753  validators */\n      0x00\n        /* \"ProofOfStake.sol\":1754:1755  i */\n      dup2\n        /* \"ProofOfStake.sol\":1743:1756  validators[i] */\n      dup2\n      sload\n      dup2\n      lt\n      tag_68\n      jumpi\n      tag_69\n      tag_70\n      jump\t// in\n    tag_69:\n    tag_68:\n      swap1\n      0x00\n      mstore\n      keccak256(0x00, 0x20)\n      swap1\n      0x02\n      mul\n      add\n        /* \"ProofOfStake.sol\":1743:1762  validators[i].stake */\n      0x01\n      add\n      sload\n        /* \"ProofOfStake.sol\":1724:1762  cumulativeStake += validators[i].stake */\n      dup3\n      tag_72\n      swap2\n      swap1\n      tag_73\n      jump\t// in\n    tag_72:\n      swap2\n      pop\n        /* \"ProofOfStake.sol\":1790:1805  cumulativeStake */\n      dup2\n        /* \"ProofOfStake.sol\":1781:1787  random */\n      dup4\n        /* \"ProofOfStake.sol\":1781:1805  random < cumulativeStake */\n      lt\n        /* \"ProofOfStake.sol\":1777:2108  if (random < cumulativeStake) {... */\n      iszero\n      tag_74\n      jumpi\n        /* \"ProofOfStake.sol\":1903:1913  validators */\n      0x00\n        /* \"ProofOfStake.sol\":1914:1915  i */\n      dup2\n        /* \"ProofOfStake.sol\":1903:1916  validators[i] */\n      dup2\n      sload\n      dup2\n      lt\n      tag_75\n      jumpi\n      tag_76\n      tag_70\n      jump\t// in\n    tag_76:\n    tag_75:\n      swap1\n      0x00\n      mstore\n      keccak256(0x00, 0x20)\n      swap1\n      0x02\n      mul\n      add\n        /* \"ProofOfStake.sol\":1903:1933  validators[i].validatorAddress */\n      0x00\n      add\n      0x00\n      swap1\n      sload\n      swap1\n      0x0100\n      exp\n      swap1\n      div\n      0xffffffffffffffffffffffffffffffffffffffff\n      and\n        /* \"ProofOfStake.sol\":1895:1943  payable(validators[i].validatorAddress).transfer */\n      0xffffffffffffffffffffffffffffffffffffffff\n      and\n        /* \"ProofOfStake.sol\":1895:1952  payable(validators[i].validatorAddress).transfer(1 ether) */\n      0x08fc\n        /* \"ProofOfStake.sol\":1944:1951  1 ether */\n      0x0de0b6b3a7640000\n        /* \"ProofOfStake.sol\":1895:1952  payable(validators[i].validatorAddress).transfer(1 ether) */\n      swap1\n      dup2\n      iszero\n      mul\n      swap1\n      mload(0x40)\n      0x00\n      mload(0x40)\n      dup1\n      dup4\n      sub\n      dup2\n      dup6\n      dup9\n      dup9\n      call\n      swap4\n      pop\n      pop\n      pop\n      pop\n      iszero\n      dup1\n      iszero\n      tag_79\n      jumpi\n      returndatasize\n      0x00\n      dup1\n      returndatacopy\n      revert(0x00, returndatasize)\n    tag_79:\n      pop\n        /* \"ProofOfStake.sol\":1996:2006  validators */\n      0x00\n        /* \"ProofOfStake.sol\":2007:2008  i */\n      dup2\n        /* \"ProofOfStake.sol\":1996:2009  validators[i] */\n      dup2\n      sload\n      dup2\n      lt\n      tag_80\n      jumpi\n      tag_81\n      tag_70\n      jump\t// in\n    tag_81:\n    tag_80:\n      swap1\n      0x00\n      mstore\n      keccak256(0x00, 0x20)\n      swap1\n      0x02\n      mul\n      add\n        /* \"ProofOfStake.sol\":1996:2026  validators[i].validatorAddress */\n      0x00\n      add\n      0x00\n      swap1\n      sload\n      swap1\n      0x0100\n      exp\n      swap1\n      div\n      0xffffffffffffffffffffffffffffffffffffffff\n      and\n        /* \"ProofOfStake.sol\":1978:2036  ValidatorSelected(validators[i].validatorAddress, 1 ether) */\n      0xffffffffffffffffffffffffffffffffffffffff\n      and\n      0x65b8f1d9cfb410e01c5062432e99a4badbb42d40ae974c6201e8c538134d8711\n        /* \"ProofOfStake.sol\":2028:2035  1 ether */\n      0x0de0b6b3a7640000\n        /* \"ProofOfStake.sol\":1978:2036  ValidatorSelected(validators[i].validatorAddress, 1 ether) */\n      mload(0x40)\n      tag_83\n      swap2\n      swap1\n      tag_84\n      jump\t// in\n    tag_83:\n      mload(0x40)\n      dup1\n      swap2\n      sub\n      swap1\n      log2\n        /* \"ProofOfStake.sol\":2062:2072  validators */\n      0x00\n        /* \"ProofOfStake.sol\":2073:2074  i */\n      dup2\n        /* \"ProofOfStake.sol\":2062:2075  validators[i] */\n      dup2\n      sload\n      dup2\n      lt\n      tag_85\n      jumpi\n      tag_86\n      tag_70\n      jump\t// in\n    tag_86:\n    tag_85:\n      swap1\n      0x00\n      mstore\n      keccak256(0x00, 0x20)\n      swap1\n      0x02\n      mul\n      add\n        /* \"ProofOfStake.sol\":2062:2092  validators[i].validatorAddress */\n      0x00\n      add\n      0x00\n      swap1\n      sload\n      swap1\n      0x0100\n      exp\n      swap1\n      div\n      0xffffffffffffffffffffffffffffffffffffffff\n      and\n        /* \"ProofOfStake.sol\":2055:2092  return validators[i].validatorAddress */\n      swap4\n      pop\n      pop\n      pop\n      pop\n      jump(tag_54)\n        /* \"ProofOfStake.sol\":1777:2108  if (random < cumulativeStake) {... */\n    tag_74:\n        /* \"ProofOfStake.sol\":1704:1707  i++ */\n      dup1\n      dup1\n      0x01\n      add\n      swap2\n      pop\n      pop\n        /* \"ProofOfStake.sol\":1664:2119  for (uint i = 0; i < validators.length; i++) {... */\n      jump(tag_65)\n    tag_66:\n      pop\n        /* \"ProofOfStake.sol\":2131:2167  revert(\"Validator selection failed\") */\n      mload(0x40)\n      0x08c379a000000000000000000000000000000000000000000000000000000000\n      dup2\n      mstore\n      0x04\n      add\n      tag_88\n      swap1\n      tag_89\n      jump\t// in\n    tag_88:\n      mload(0x40)\n      dup1\n      swap2\n      sub\n      swap1\n      revert\n        /* \"ProofOfStake.sol\":1329:2175  function selectValidator() public returns (address) {... */\n    tag_54:\n      swap1\n      jump\t// out\n        /* \"ProofOfStake.sol\":2436:2538  function getValidators() public view returns (Validator[] memory) {... */\n    tag_40:\n        /* \"ProofOfStake.sol\":2482:2500  Validator[] memory */\n      0x60\n        /* \"ProofOfStake.sol\":2520:2530  validators */\n      0x00\n        /* \"ProofOfStake.sol\":2513:2530  return validators */\n      dup1\n      sload\n      dup1\n      0x20\n      mul\n      0x20\n      add\n      mload(0x40)\n      swap1\n      dup2\n      add\n      0x40\n      mstore\n      dup1\n      swap3\n      swap2\n      swap1\n      dup2\n      dup2\n      mstore\n      0x20\n      add\n      0x00\n      swap1\n    tag_91:\n      dup3\n      dup3\n      lt\n      iszero\n      tag_92\n      jumpi\n      dup4\n      dup3\n      swap1\n      0x00\n      mstore\n      keccak256(0x00, 0x20)\n      swap1\n      0x02\n      mul\n      add\n      mload(0x40)\n      dup1\n      0x40\n      add\n      0x40\n      mstore\n      swap1\n      dup2\n      0x00\n      dup3\n      add\n      0x00\n      swap1\n      sload\n      swap1\n      0x0100\n      exp\n      swap1\n      div\n      0xffffffffffffffffffffffffffffffffffffffff\n      and\n      0xffffffffffffffffffffffffffffffffffffffff\n      and\n      0xffffffffffffffffffffffffffffffffffffffff\n      and\n      dup2\n      mstore\n      0x20\n      add\n      0x01\n      dup3\n      add\n      sload\n      dup2\n      mstore\n      pop\n      pop\n      dup2\n      mstore\n      0x20\n      add\n      swap1\n      0x01\n      add\n      swap1\n      jump(tag_91)\n    tag_92:\n      pop\n      pop\n      pop\n      pop\n      swap1\n      pop\n        /* \"ProofOfStake.sol\":2436:2538  function getValidators() public view returns (Validator[] memory) {... */\n      swap1\n      jump\t// out\n        /* \"ProofOfStake.sol\":483:1253  function stakeTokens() public payable {... */\n    tag_44:\n        /* \"ProofOfStake.sol\":552:553  0 */\n      0x00\n        /* \"ProofOfStake.sol\":540:549  msg.value */\n      callvalue\n        /* \"ProofOfStake.sol\":540:553  msg.value > 0 */\n      gt\n        /* \"ProofOfStake.sol\":532:586  require(msg.value > 0, \"Must stake a positive amount\") */\n      tag_95\n      jumpi\n      mload(0x40)\n      0x08c379a000000000000000000000000000000000000000000000000000000000\n      dup2\n      mstore\n      0x04\n      add\n      tag_96\n      swap1\n      tag_97\n      jump\t// in\n    tag_96:\n      mload(0x40)\n      dup1\n      swap2\n      sub\n      swap1\n      revert\n    tag_95:\n        /* \"ProofOfStake.sol\":659:668  msg.value */\n      callvalue\n        /* \"ProofOfStake.sol\":637:643  stakes */\n      0x01\n        /* \"ProofOfStake.sol\":637:655  stakes[msg.sender] */\n      0x00\n        /* \"ProofOfStake.sol\":644:654  msg.sender */\n      caller\n        /* \"ProofOfStake.sol\":637:655  stakes[msg.sender] */\n      0xffffffffffffffffffffffffffffffffffffffff\n      and\n      0xffffffffffffffffffffffffffffffffffffffff\n      and\n      dup2\n      mstore\n      0x20\n      add\n      swap1\n      dup2\n      mstore\n      0x20\n      add\n      0x00\n      keccak256\n      0x00\n        /* \"ProofOfStake.sol\":637:668  stakes[msg.sender] += msg.value */\n      dup3\n      dup3\n      sload\n      tag_98\n      swap2\n      swap1\n      tag_73\n      jump\t// in\n    tag_98:\n      swap3\n      pop\n      pop\n      dup2\n      swap1\n      sstore\n      pop\n        /* \"ProofOfStake.sol\":694:703  msg.value */\n      callvalue\n        /* \"ProofOfStake.sol\":679:690  totalStaked */\n      0x02\n      0x00\n        /* \"ProofOfStake.sol\":679:703  totalStaked += msg.value */\n      dup3\n      dup3\n      sload\n      tag_99\n      swap2\n      swap1\n      tag_73\n      jump\t// in\n    tag_99:\n      swap3\n      pop\n      pop\n      dup2\n      swap1\n      sstore\n      pop\n        /* \"ProofOfStake.sol\":762:786  bool isExistingValidator */\n      0x00\n        /* \"ProofOfStake.sol\":810:816  uint i */\n      dup1\n        /* \"ProofOfStake.sol\":805:1086  for (uint i = 0; i < validators.length; i++) {... */\n    tag_100:\n        /* \"ProofOfStake.sol\":826:836  validators */\n      0x00\n        /* \"ProofOfStake.sol\":826:843  validators.length */\n      dup1\n      sload\n      swap1\n      pop\n        /* \"ProofOfStake.sol\":822:823  i */\n      dup2\n        /* \"ProofOfStake.sol\":822:843  i < validators.length */\n      lt\n        /* \"ProofOfStake.sol\":805:1086  for (uint i = 0; i < validators.length; i++) {... */\n      iszero\n      tag_101\n      jumpi\n        /* \"ProofOfStake.sol\":903:913  msg.sender */\n      caller\n        /* \"ProofOfStake.sol\":869:913  validators[i].validatorAddress == msg.sender */\n      0xffffffffffffffffffffffffffffffffffffffff\n      and\n        /* \"ProofOfStake.sol\":869:879  validators */\n      0x00\n        /* \"ProofOfStake.sol\":880:881  i */\n      dup3\n        /* \"ProofOfStake.sol\":869:882  validators[i] */\n      dup2\n      sload\n      dup2\n      lt\n      tag_103\n      jumpi\n      tag_104\n      tag_70\n      jump\t// in\n    tag_104:\n    tag_103:\n      swap1\n      0x00\n      mstore\n      keccak256(0x00, 0x20)\n      swap1\n      0x02\n      mul\n      add\n        /* \"ProofOfStake.sol\":869:899  validators[i].validatorAddress */\n      0x00\n      add\n      0x00\n      swap1\n      sload\n      swap1\n      0x0100\n      exp\n      swap1\n      div\n      0xffffffffffffffffffffffffffffffffffffffff\n      and\n        /* \"ProofOfStake.sol\":869:913  validators[i].validatorAddress == msg.sender */\n      0xffffffffffffffffffffffffffffffffffffffff\n      and\n      sub\n        /* \"ProofOfStake.sol\":865:1075  if (validators[i].validatorAddress == msg.sender) {... */\n      tag_106\n      jumpi\n        /* \"ProofOfStake.sol\":956:962  stakes */\n      0x01\n        /* \"ProofOfStake.sol\":956:974  stakes[msg.sender] */\n      0x00\n        /* \"ProofOfStake.sol\":963:973  msg.sender */\n      caller\n        /* \"ProofOfStake.sol\":956:974  stakes[msg.sender] */\n      0xffffffffffffffffffffffffffffffffffffffff\n      and\n      0xffffffffffffffffffffffffffffffffffffffff\n      and\n      dup2\n      mstore\n      0x20\n      add\n      swap1\n      dup2\n      mstore\n      0x20\n      add\n      0x00\n      keccak256\n      sload\n        /* \"ProofOfStake.sol\":934:944  validators */\n      0x00\n        /* \"ProofOfStake.sol\":945:946  i */\n      dup3\n        /* \"ProofOfStake.sol\":934:947  validators[i] */\n      dup2\n      sload\n      dup2\n      lt\n      tag_107\n      jumpi\n      tag_108\n      tag_70\n      jump\t// in\n    tag_108:\n    tag_107:\n      swap1\n      0x00\n      mstore\n      keccak256(0x00, 0x20)\n      swap1\n      0x02\n      mul\n      add\n        /* \"ProofOfStake.sol\":934:953  validators[i].stake */\n      0x01\n      add\n        /* \"ProofOfStake.sol\":934:974  validators[i].stake = stakes[msg.sender] */\n      dup2\n      swap1\n      sstore\n      pop\n        /* \"ProofOfStake.sol\":1031:1035  true */\n      0x01\n        /* \"ProofOfStake.sol\":1009:1035  isExistingValidator = true */\n      swap2\n      pop\n        /* \"ProofOfStake.sol\":1054:1059  break */\n      jump(tag_101)\n        /* \"ProofOfStake.sol\":865:1075  if (validators[i].validatorAddress == msg.sender) {... */\n    tag_106:\n        /* \"ProofOfStake.sol\":845:848  i++ */\n      dup1\n      dup1\n      0x01\n      add\n      swap2\n      pop\n      pop\n        /* \"ProofOfStake.sol\":805:1086  for (uint i = 0; i < validators.length; i++) {... */\n      jump(tag_100)\n    tag_101:\n      pop\n        /* \"ProofOfStake.sol\":1149:1168  isExistingValidator */\n      dup1\n        /* \"ProofOfStake.sol\":1144:1246  if (!isExistingValidator) {... */\n      tag_110\n      jumpi\n        /* \"ProofOfStake.sol\":1185:1195  validators */\n      0x00\n        /* \"ProofOfStake.sol\":1201:1233  Validator(msg.sender, msg.value) */\n      mload(0x40)\n      dup1\n      0x40\n      add\n      0x40\n      mstore\n      dup1\n        /* \"ProofOfStake.sol\":1211:1221  msg.sender */\n      caller\n        /* \"ProofOfStake.sol\":1201:1233  Validator(msg.sender, msg.value) */\n      0xffffffffffffffffffffffffffffffffffffffff\n      and\n      dup2\n      mstore\n      0x20\n      add\n        /* \"ProofOfStake.sol\":1223:1232  msg.value */\n      callvalue\n        /* \"ProofOfStake.sol\":1201:1233  Validator(msg.sender, msg.value) */\n      dup2\n      mstore\n      pop\n        /* \"ProofOfStake.sol\":1185:1234  validators.push(Validator(msg.sender, msg.value)) */\n      swap1\n      dup1\n      0x01\n      dup2\n      sload\n      add\n      dup1\n      dup3\n      sstore\n      dup1\n      swap2\n      pop\n      pop\n      0x01\n      swap1\n      sub\n      swap1\n      0x00\n      mstore\n      keccak256(0x00, 0x20)\n      swap1\n      0x02\n      mul\n      add\n      0x00\n      swap1\n      swap2\n      swap1\n      swap2\n      swap1\n      swap2\n      pop\n      0x00\n      dup3\n      add\n      mload\n      dup2\n      0x00\n      add\n      exp(0x0100, 0x00)\n      dup2\n      sload\n      dup2\n      0xffffffffffffffffffffffffffffffffffffffff\n      mul\n      not\n      and\n      swap1\n      dup4\n      0xffffffffffffffffffffffffffffffffffffffff\n      and\n      mul\n      or\n      swap1\n      sstore\n      pop\n      0x20\n      dup3\n      add\n      mload\n      dup2\n      0x01\n      add\n      sstore\n      pop\n      pop\n        /* \"ProofOfStake.sol\":1144:1246  if (!isExistingValidator) {... */\n    tag_110:\n        /* \"ProofOfStake.sol\":521:1253  {... */\n      pop\n        /* \"ProofOfStake.sol\":483:1253  function stakeTokens() public payable {... */\n      jump\t// out\n        /* \"ProofOfStake.sol\":2220:2396  function handleLowStakes(uint threshold) public view returns (bool) {... */\n    tag_48:\n        /* \"ProofOfStake.sol\":2282:2286  bool */\n      0x00\n        /* \"ProofOfStake.sol\":2317:2326  threshold */\n      dup2\n        /* \"ProofOfStake.sol\":2303:2314  totalStaked */\n      sload(0x02)\n        /* \"ProofOfStake.sol\":2303:2326  totalStaked < threshold */\n      lt\n        /* \"ProofOfStake.sol\":2299:2367  if (totalStaked < threshold) {... */\n      iszero\n      tag_113\n      jumpi\n        /* \"ProofOfStake.sol\":2350:2355  false */\n      0x00\n        /* \"ProofOfStake.sol\":2343:2355  return false */\n      swap1\n      pop\n      jump(tag_112)\n        /* \"ProofOfStake.sol\":2299:2367  if (totalStaked < threshold) {... */\n    tag_113:\n        /* \"ProofOfStake.sol\":2384:2388  true */\n      0x01\n        /* \"ProofOfStake.sol\":2377:2388  return true */\n      swap1\n      pop\n        /* \"ProofOfStake.sol\":2220:2396  function handleLowStakes(uint threshold) public view returns (bool) {... */\n    tag_112:\n      swap2\n      swap1\n      pop\n      jump\t// out\n        /* \"#utility.yul\":7:84   */\n    tag_114:\n        /* \"#utility.yul\":44:51   */\n      0x00\n        /* \"#utility.yul\":73:78   */\n      dup2\n        /* \"#utility.yul\":62:78   */\n      swap1\n      pop\n        /* \"#utility.yul\":7:84   */\n      swap2\n      swap1\n      pop\n      jump\t// out\n        /* \"#utility.yul\":90:208   */\n    tag_115:\n        /* \"#utility.yul\":177:201   */\n      tag_157\n        /* \"#utility.yul\":195:200   */\n      dup2\n        /* \"#utility.yul\":177:201   */\n      tag_114\n      jump\t// in\n    tag_157:\n        /* \"#utility.yul\":172:175   */\n      dup3\n        /* \"#utility.yul\":165:202   */\n      mstore\n        /* \"#utility.yul\":90:208   */\n      pop\n      pop\n      jump\t// out\n        /* \"#utility.yul\":214:436   */\n    tag_15:\n        /* \"#utility.yul\":307:311   */\n      0x00\n        /* \"#utility.yul\":345:347   */\n      0x20\n        /* \"#utility.yul\":334:343   */\n      dup3\n        /* \"#utility.yul\":330:348   */\n      add\n        /* \"#utility.yul\":322:348   */\n      swap1\n      pop\n        /* \"#utility.yul\":358:429   */\n      tag_159\n        /* \"#utility.yul\":426:427   */\n      0x00\n        /* \"#utility.yul\":415:424   */\n      dup4\n        /* \"#utility.yul\":411:428   */\n      add\n        /* \"#utility.yul\":402:408   */\n      dup5\n        /* \"#utility.yul\":358:429   */\n      tag_115\n      jump\t// in\n    tag_159:\n        /* \"#utility.yul\":214:436   */\n      swap3\n      swap2\n      pop\n      pop\n      jump\t// out\n        /* \"#utility.yul\":523:640   */\n    tag_117:\n        /* \"#utility.yul\":632:633   */\n      0x00\n        /* \"#utility.yul\":629:630   */\n      dup1\n        /* \"#utility.yul\":622:634   */\n      revert\n        /* \"#utility.yul\":769:895   */\n    tag_119:\n        /* \"#utility.yul\":806:813   */\n      0x00\n        /* \"#utility.yul\":846:888   */\n      0xffffffffffffffffffffffffffffffffffffffff\n        /* \"#utility.yul\":839:844   */\n      dup3\n        /* \"#utility.yul\":835:889   */\n      and\n        /* \"#utility.yul\":824:889   */\n      swap1\n      pop\n        /* \"#utility.yul\":769:895   */\n      swap2\n      swap1\n      pop\n      jump\t// out\n        /* \"#utility.yul\":901:997   */\n    tag_120:\n        /* \"#utility.yul\":938:945   */\n      0x00\n        /* \"#utility.yul\":967:991   */\n      tag_165\n        /* \"#utility.yul\":985:990   */\n      dup3\n        /* \"#utility.yul\":967:991   */\n      tag_119\n      jump\t// in\n    tag_165:\n        /* \"#utility.yul\":956:991   */\n      swap1\n      pop\n        /* \"#utility.yul\":901:997   */\n      swap2\n      swap1\n      pop\n      jump\t// out\n        /* \"#utility.yul\":1003:1125   */\n    tag_121:\n        /* \"#utility.yul\":1076:1100   */\n      tag_167\n        /* \"#utility.yul\":1094:1099   */\n      dup2\n        /* \"#utility.yul\":1076:1100   */\n      tag_120\n      jump\t// in\n    tag_167:\n        /* \"#utility.yul\":1069:1074   */\n      dup2\n        /* \"#utility.yul\":1066:1101   */\n      eq\n        /* \"#utility.yul\":1056:1119   */\n      tag_168\n      jumpi\n        /* \"#utility.yul\":1115:1116   */\n      0x00\n        /* \"#utility.yul\":1112:1113   */\n      dup1\n        /* \"#utility.yul\":1105:1117   */\n      revert\n        /* \"#utility.yul\":1056:1119   */\n    tag_168:\n        /* \"#utility.yul\":1003:1125   */\n      pop\n      jump\t// out\n        /* \"#utility.yul\":1131:1270   */\n    tag_122:\n        /* \"#utility.yul\":1177:1182   */\n      0x00\n        /* \"#utility.yul\":1215:1221   */\n      dup2\n        /* \"#utility.yul\":1202:1222   */\n      calldataload\n        /* \"#utility.yul\":1193:1222   */\n      swap1\n      pop\n        /* \"#utility.yul\":1231:1264   */\n      tag_170\n        /* \"#utility.yul\":1258:1263   */\n      dup2\n        /* \"#utility.yul\":1231:1264   */\n      tag_121\n      jump\t// in\n    tag_170:\n        /* \"#utility.yul\":1131:1270   */\n      swap3\n      swap2\n      pop\n      pop\n      jump\t// out\n        /* \"#utility.yul\":1276:1605   */\n    tag_19:\n        /* \"#utility.yul\":1335:1341   */\n      0x00\n        /* \"#utility.yul\":1384:1386   */\n      0x20\n        /* \"#utility.yul\":1372:1381   */\n      dup3\n        /* \"#utility.yul\":1363:1370   */\n      dup5\n        /* \"#utility.yul\":1359:1382   */\n      sub\n        /* \"#utility.yul\":1355:1387   */\n      slt\n        /* \"#utility.yul\":1352:1471   */\n      iszero\n      tag_172\n      jumpi\n        /* \"#utility.yul\":1390:1469   */\n      tag_173\n      tag_117\n      jump\t// in\n    tag_173:\n        /* \"#utility.yul\":1352:1471   */\n    tag_172:\n        /* \"#utility.yul\":1510:1511   */\n      0x00\n        /* \"#utility.yul\":1535:1588   */\n      tag_174\n        /* \"#utility.yul\":1580:1587   */\n      dup5\n        /* \"#utility.yul\":1571:1577   */\n      dup3\n        /* \"#utility.yul\":1560:1569   */\n      dup6\n        /* \"#utility.yul\":1556:1578   */\n      add\n        /* \"#utility.yul\":1535:1588   */\n      tag_122\n      jump\t// in\n    tag_174:\n        /* \"#utility.yul\":1525:1588   */\n      swap2\n      pop\n        /* \"#utility.yul\":1481:1598   */\n      pop\n        /* \"#utility.yul\":1276:1605   */\n      swap3\n      swap2\n      pop\n      pop\n      jump\t// out\n        /* \"#utility.yul\":1611:1733   */\n    tag_123:\n        /* \"#utility.yul\":1684:1708   */\n      tag_176\n        /* \"#utility.yul\":1702:1707   */\n      dup2\n        /* \"#utility.yul\":1684:1708   */\n      tag_114\n      jump\t// in\n    tag_176:\n        /* \"#utility.yul\":1677:1682   */\n      dup2\n        /* \"#utility.yul\":1674:1709   */\n      eq\n        /* \"#utility.yul\":1664:1727   */\n      tag_177\n      jumpi\n        /* \"#utility.yul\":1723:1724   */\n      0x00\n        /* \"#utility.yul\":1720:1721   */\n      dup1\n        /* \"#utility.yul\":1713:1725   */\n      revert\n        /* \"#utility.yul\":1664:1727   */\n    tag_177:\n        /* \"#utility.yul\":1611:1733   */\n      pop\n      jump\t// out\n        /* \"#utility.yul\":1739:1878   */\n    tag_124:\n        /* \"#utility.yul\":1785:1790   */\n      0x00\n        /* \"#utility.yul\":1823:1829   */\n      dup2\n        /* \"#utility.yul\":1810:1830   */\n      calldataload\n        /* \"#utility.yul\":1801:1830   */\n      swap1\n      pop\n        /* \"#utility.yul\":1839:1872   */\n      tag_179\n        /* \"#utility.yul\":1866:1871   */\n      dup2\n        /* \"#utility.yul\":1839:1872   */\n      tag_123\n      jump\t// in\n    tag_179:\n        /* \"#utility.yul\":1739:1878   */\n      swap3\n      swap2\n      pop\n      pop\n      jump\t// out\n        /* \"#utility.yul\":1884:2213   */\n    tag_25:\n        /* \"#utility.yul\":1943:1949   */\n      0x00\n        /* \"#utility.yul\":1992:1994   */\n      0x20\n        /* \"#utility.yul\":1980:1989   */\n      dup3\n        /* \"#utility.yul\":1971:1978   */\n      dup5\n        /* \"#utility.yul\":1967:1990   */\n      sub\n        /* \"#utility.yul\":1963:1995   */\n      slt\n        /* \"#utility.yul\":1960:2079   */\n      iszero\n      tag_181\n      jumpi\n        /* \"#utility.yul\":1998:2077   */\n      tag_182\n      tag_117\n      jump\t// in\n    tag_182:\n        /* \"#utility.yul\":1960:2079   */\n    tag_181:\n        /* \"#utility.yul\":2118:2119   */\n      0x00\n        /* \"#utility.yul\":2143:2196   */\n      tag_183\n        /* \"#utility.yul\":2188:2195   */\n      dup5\n        /* \"#utility.yul\":2179:2185   */\n      dup3\n        /* \"#utility.yul\":2168:2177   */\n      dup6\n        /* \"#utility.yul\":2164:2186   */\n      add\n        /* \"#utility.yul\":2143:2196   */\n      tag_124\n      jump\t// in\n    tag_183:\n        /* \"#utility.yul\":2133:2196   */\n      swap2\n      pop\n        /* \"#utility.yul\":2089:2206   */\n      pop\n        /* \"#utility.yul\":1884:2213   */\n      swap3\n      swap2\n      pop\n      pop\n      jump\t// out\n        /* \"#utility.yul\":2219:2337   */\n    tag_125:\n        /* \"#utility.yul\":2306:2330   */\n      tag_185\n        /* \"#utility.yul\":2324:2329   */\n      dup2\n        /* \"#utility.yul\":2306:2330   */\n      tag_120\n      jump\t// in\n    tag_185:\n        /* \"#utility.yul\":2301:2304   */\n      dup3\n        /* \"#utility.yul\":2294:2331   */\n      mstore\n        /* \"#utility.yul\":2219:2337   */\n      pop\n      pop\n      jump\t// out\n        /* \"#utility.yul\":2343:2675   */\n    tag_28:\n        /* \"#utility.yul\":2464:2468   */\n      0x00\n        /* \"#utility.yul\":2502:2504   */\n      0x40\n        /* \"#utility.yul\":2491:2500   */\n      dup3\n        /* \"#utility.yul\":2487:2505   */\n      add\n        /* \"#utility.yul\":2479:2505   */\n      swap1\n      pop\n        /* \"#utility.yul\":2515:2586   */\n      tag_187\n        /* \"#utility.yul\":2583:2584   */\n      0x00\n        /* \"#utility.yul\":2572:2581   */\n      dup4\n        /* \"#utility.yul\":2568:2585   */\n      add\n        /* \"#utility.yul\":2559:2565   */\n      dup6\n        /* \"#utility.yul\":2515:2586   */\n      tag_125\n      jump\t// in\n    tag_187:\n        /* \"#utility.yul\":2596:2668   */\n      tag_188\n        /* \"#utility.yul\":2664:2666   */\n      0x20\n        /* \"#utility.yul\":2653:2662   */\n      dup4\n        /* \"#utility.yul\":2649:2667   */\n      add\n        /* \"#utility.yul\":2640:2646   */\n      dup5\n        /* \"#utility.yul\":2596:2668   */\n      tag_115\n      jump\t// in\n    tag_188:\n        /* \"#utility.yul\":2343:2675   */\n      swap4\n      swap3\n      pop\n      pop\n      pop\n      jump\t// out\n        /* \"#utility.yul\":2681:2903   */\n    tag_37:\n        /* \"#utility.yul\":2774:2778   */\n      0x00\n        /* \"#utility.yul\":2812:2814   */\n      0x20\n        /* \"#utility.yul\":2801:2810   */\n      dup3\n        /* \"#utility.yul\":2797:2815   */\n      add\n        /* \"#utility.yul\":2789:2815   */\n      swap1\n      pop\n        /* \"#utility.yul\":2825:2896   */\n      tag_190\n        /* \"#utility.yul\":2893:2894   */\n      0x00\n        /* \"#utility.yul\":2882:2891   */\n      dup4\n        /* \"#utility.yul\":2878:2895   */\n      add\n        /* \"#utility.yul\":2869:2875   */\n      dup5\n        /* \"#utility.yul\":2825:2896   */\n      tag_125\n      jump\t// in\n    tag_190:\n        /* \"#utility.yul\":2681:2903   */\n      swap3\n      swap2\n      pop\n      pop\n      jump\t// out\n        /* \"#utility.yul\":2909:3047   */\n    tag_126:\n        /* \"#utility.yul\":3000:3006   */\n      0x00\n        /* \"#utility.yul\":3034:3039   */\n      dup2\n        /* \"#utility.yul\":3028:3040   */\n      mload\n        /* \"#utility.yul\":3018:3040   */\n      swap1\n      pop\n        /* \"#utility.yul\":2909:3047   */\n      swap2\n      swap1\n      pop\n      jump\t// out\n        /* \"#utility.yul\":3053:3261   */\n    tag_127:\n        /* \"#utility.yul\":3176:3187   */\n      0x00\n        /* \"#utility.yul\":3210:3216   */\n      dup3\n        /* \"#utility.yul\":3205:3208   */\n      dup3\n        /* \"#utility.yul\":3198:3217   */\n      mstore\n        /* \"#utility.yul\":3250:3254   */\n      0x20\n        /* \"#utility.yul\":3245:3248   */\n      dup3\n        /* \"#utility.yul\":3241:3255   */\n      add\n        /* \"#utility.yul\":3226:3255   */\n      swap1\n      pop\n        /* \"#utility.yul\":3053:3261   */\n      swap3\n      swap2\n      pop\n      pop\n      jump\t// out\n        /* \"#utility.yul\":3267:3423   */\n    tag_128:\n        /* \"#utility.yul\":3358:3362   */\n      0x00\n        /* \"#utility.yul\":3381:3384   */\n      dup2\n        /* \"#utility.yul\":3373:3384   */\n      swap1\n      pop\n        /* \"#utility.yul\":3411:3415   */\n      0x20\n        /* \"#utility.yul\":3406:3409   */\n      dup3\n        /* \"#utility.yul\":3402:3416   */\n      add\n        /* \"#utility.yul\":3394:3416   */\n      swap1\n      pop\n        /* \"#utility.yul\":3267:3423   */\n      swap2\n      swap1\n      pop\n      jump\t// out\n        /* \"#utility.yul\":3429:3537   */\n    tag_129:\n        /* \"#utility.yul\":3506:3530   */\n      tag_195\n        /* \"#utility.yul\":3524:3529   */\n      dup2\n        /* \"#utility.yul\":3506:3530   */\n      tag_120\n      jump\t// in\n    tag_195:\n        /* \"#utility.yul\":3501:3504   */\n      dup3\n        /* \"#utility.yul\":3494:3531   */\n      mstore\n        /* \"#utility.yul\":3429:3537   */\n      pop\n      pop\n      jump\t// out\n        /* \"#utility.yul\":3543:3651   */\n    tag_130:\n        /* \"#utility.yul\":3620:3644   */\n      tag_197\n        /* \"#utility.yul\":3638:3643   */\n      dup2\n        /* \"#utility.yul\":3620:3644   */\n      tag_114\n      jump\t// in\n    tag_197:\n        /* \"#utility.yul\":3615:3618   */\n      dup3\n        /* \"#utility.yul\":3608:3645   */\n      mstore\n        /* \"#utility.yul\":3543:3651   */\n      pop\n      pop\n      jump\t// out\n        /* \"#utility.yul\":3727:4235   */\n    tag_131:\n        /* \"#utility.yul\":3862:3866   */\n      0x40\n        /* \"#utility.yul\":3857:3860   */\n      dup3\n        /* \"#utility.yul\":3853:3867   */\n      add\n        /* \"#utility.yul\":3961:3965   */\n      0x00\n        /* \"#utility.yul\":3954:3959   */\n      dup3\n        /* \"#utility.yul\":3950:3966   */\n      add\n        /* \"#utility.yul\":3944:3967   */\n      mload\n        /* \"#utility.yul\":3980:4043   */\n      tag_199\n        /* \"#utility.yul\":4037:4041   */\n      0x00\n        /* \"#utility.yul\":4032:4035   */\n      dup6\n        /* \"#utility.yul\":4028:4042   */\n      add\n        /* \"#utility.yul\":4014:4026   */\n      dup3\n        /* \"#utility.yul\":3980:4043   */\n      tag_129\n      jump\t// in\n    tag_199:\n        /* \"#utility.yul\":3877:4053   */\n      pop\n        /* \"#utility.yul\":4136:4140   */\n      0x20\n        /* \"#utility.yul\":4129:4134   */\n      dup3\n        /* \"#utility.yul\":4125:4141   */\n      add\n        /* \"#utility.yul\":4119:4142   */\n      mload\n        /* \"#utility.yul\":4155:4218   */\n      tag_200\n        /* \"#utility.yul\":4212:4216   */\n      0x20\n        /* \"#utility.yul\":4207:4210   */\n      dup6\n        /* \"#utility.yul\":4203:4217   */\n      add\n        /* \"#utility.yul\":4189:4201   */\n      dup3\n        /* \"#utility.yul\":4155:4218   */\n      tag_130\n      jump\t// in\n    tag_200:\n        /* \"#utility.yul\":4063:4228   */\n      pop\n        /* \"#utility.yul\":3831:4235   */\n      pop\n        /* \"#utility.yul\":3727:4235   */\n      pop\n      pop\n      jump\t// out\n        /* \"#utility.yul\":4241:4516   */\n    tag_132:\n        /* \"#utility.yul\":4358:4368   */\n      0x00\n        /* \"#utility.yul\":4379:4473   */\n      tag_202\n        /* \"#utility.yul\":4469:4472   */\n      dup4\n        /* \"#utility.yul\":4461:4467   */\n      dup4\n        /* \"#utility.yul\":4379:4473   */\n      tag_131\n      jump\t// in\n    tag_202:\n        /* \"#utility.yul\":4505:4509   */\n      0x40\n        /* \"#utility.yul\":4500:4503   */\n      dup4\n        /* \"#utility.yul\":4496:4510   */\n      add\n        /* \"#utility.yul\":4482:4510   */\n      swap1\n      pop\n        /* \"#utility.yul\":4241:4516   */\n      swap3\n      swap2\n      pop\n      pop\n      jump\t// out\n        /* \"#utility.yul\":4522:4659   */\n    tag_133:\n        /* \"#utility.yul\":4616:4620   */\n      0x00\n        /* \"#utility.yul\":4648:4652   */\n      0x20\n        /* \"#utility.yul\":4643:4646   */\n      dup3\n        /* \"#utility.yul\":4639:4653   */\n      add\n        /* \"#utility.yul\":4631:4653   */\n      swap1\n      pop\n        /* \"#utility.yul\":4522:4659   */\n      swap2\n      swap1\n      pop\n      jump\t// out\n        /* \"#utility.yul\":4739:5663   */\n    tag_134:\n        /* \"#utility.yul\":4906:4909   */\n      0x00\n        /* \"#utility.yul\":4935:5013   */\n      tag_205\n        /* \"#utility.yul\":5007:5012   */\n      dup3\n        /* \"#utility.yul\":4935:5013   */\n      tag_126\n      jump\t// in\n    tag_205:\n        /* \"#utility.yul\":5029:5139   */\n      tag_206\n        /* \"#utility.yul\":5132:5138   */\n      dup2\n        /* \"#utility.yul\":5127:5130   */\n      dup6\n        /* \"#utility.yul\":5029:5139   */\n      tag_127\n      jump\t// in\n    tag_206:\n        /* \"#utility.yul\":5022:5139   */\n      swap4\n      pop\n        /* \"#utility.yul\":5163:5243   */\n      tag_207\n        /* \"#utility.yul\":5237:5242   */\n      dup4\n        /* \"#utility.yul\":5163:5243   */\n      tag_128\n      jump\t// in\n    tag_207:\n        /* \"#utility.yul\":5266:5273   */\n      dup1\n        /* \"#utility.yul\":5297:5298   */\n      0x00\n        /* \"#utility.yul\":5282:5638   */\n    tag_208:\n        /* \"#utility.yul\":5307:5313   */\n      dup4\n        /* \"#utility.yul\":5304:5305   */\n      dup2\n        /* \"#utility.yul\":5301:5314   */\n      lt\n        /* \"#utility.yul\":5282:5638   */\n      iszero\n      tag_210\n      jumpi\n        /* \"#utility.yul\":5383:5389   */\n      dup2\n        /* \"#utility.yul\":5377:5390   */\n      mload\n        /* \"#utility.yul\":5410:5521   */\n      tag_211\n        /* \"#utility.yul\":5517:5520   */\n      dup9\n        /* \"#utility.yul\":5502:5515   */\n      dup3\n        /* \"#utility.yul\":5410:5521   */\n      tag_132\n      jump\t// in\n    tag_211:\n        /* \"#utility.yul\":5403:5521   */\n      swap8\n      pop\n        /* \"#utility.yul\":5544:5628   */\n      tag_212\n        /* \"#utility.yul\":5621:5627   */\n      dup4\n        /* \"#utility.yul\":5544:5628   */\n      tag_133\n      jump\t// in\n    tag_212:\n        /* \"#utility.yul\":5534:5628   */\n      swap3\n      pop\n        /* \"#utility.yul\":5342:5638   */\n      pop\n        /* \"#utility.yul\":5329:5330   */\n      0x01\n        /* \"#utility.yul\":5326:5327   */\n      dup2\n        /* \"#utility.yul\":5322:5331   */\n      add\n        /* \"#utility.yul\":5317:5331   */\n      swap1\n      pop\n        /* \"#utility.yul\":5282:5638   */\n      jump(tag_208)\n    tag_210:\n        /* \"#utility.yul\":5286:5300   */\n      pop\n        /* \"#utility.yul\":5654:5657   */\n      dup6\n        /* \"#utility.yul\":5647:5657   */\n      swap4\n      pop\n        /* \"#utility.yul\":4911:5663   */\n      pop\n      pop\n      pop\n        /* \"#utility.yul\":4739:5663   */\n      swap3\n      swap2\n      pop\n      pop\n      jump\t// out\n        /* \"#utility.yul\":5669:6138   */\n    tag_42:\n        /* \"#utility.yul\":5860:5864   */\n      0x00\n        /* \"#utility.yul\":5898:5900   */\n      0x20\n        /* \"#utility.yul\":5887:5896   */\n      dup3\n        /* \"#utility.yul\":5883:5901   */\n      add\n        /* \"#utility.yul\":5875:5901   */\n      swap1\n      pop\n        /* \"#utility.yul\":5947:5956   */\n      dup2\n        /* \"#utility.yul\":5941:5945   */\n      dup2\n        /* \"#utility.yul\":5937:5957   */\n      sub\n        /* \"#utility.yul\":5933:5934   */\n      0x00\n        /* \"#utility.yul\":5922:5931   */\n      dup4\n        /* \"#utility.yul\":5918:5935   */\n      add\n        /* \"#utility.yul\":5911:5958   */\n      mstore\n        /* \"#utility.yul\":5975:6131   */\n      tag_214\n        /* \"#utility.yul\":6126:6130   */\n      dup2\n        /* \"#utility.yul\":6117:6123   */\n      dup5\n        /* \"#utility.yul\":5975:6131   */\n      tag_134\n      jump\t// in\n    tag_214:\n        /* \"#utility.yul\":5967:6131   */\n      swap1\n      pop\n        /* \"#utility.yul\":5669:6138   */\n      swap3\n      swap2\n      pop\n      pop\n      jump\t// out\n        /* \"#utility.yul\":6144:6234   */\n    tag_135:\n        /* \"#utility.yul\":6178:6185   */\n      0x00\n        /* \"#utility.yul\":6221:6226   */\n      dup2\n        /* \"#utility.yul\":6214:6227   */\n      iszero\n        /* \"#utility.yul\":6207:6228   */\n      iszero\n        /* \"#utility.yul\":6196:6228   */\n      swap1\n      pop\n        /* \"#utility.yul\":6144:6234   */\n      swap2\n      swap1\n      pop\n      jump\t// out\n        /* \"#utility.yul\":6240:6349   */\n    tag_136:\n        /* \"#utility.yul\":6321:6342   */\n      tag_217\n        /* \"#utility.yul\":6336:6341   */\n      dup2\n        /* \"#utility.yul\":6321:6342   */\n      tag_135\n      jump\t// in\n    tag_217:\n        /* \"#utility.yul\":6316:6319   */\n      dup3\n        /* \"#utility.yul\":6309:6343   */\n      mstore\n        /* \"#utility.yul\":6240:6349   */\n      pop\n      pop\n      jump\t// out\n        /* \"#utility.yul\":6355:6565   */\n    tag_50:\n        /* \"#utility.yul\":6442:6446   */\n      0x00\n        /* \"#utility.yul\":6480:6482   */\n      0x20\n        /* \"#utility.yul\":6469:6478   */\n      dup3\n        /* \"#utility.yul\":6465:6483   */\n      add\n        /* \"#utility.yul\":6457:6483   */\n      swap1\n      pop\n        /* \"#utility.yul\":6493:6558   */\n      tag_219\n        /* \"#utility.yul\":6555:6556   */\n      0x00\n        /* \"#utility.yul\":6544:6553   */\n      dup4\n        /* \"#utility.yul\":6540:6557   */\n      add\n        /* \"#utility.yul\":6531:6537   */\n      dup5\n        /* \"#utility.yul\":6493:6558   */\n      tag_136\n      jump\t// in\n    tag_219:\n        /* \"#utility.yul\":6355:6565   */\n      swap3\n      swap2\n      pop\n      pop\n      jump\t// out\n        /* \"#utility.yul\":6571:6740   */\n    tag_137:\n        /* \"#utility.yul\":6655:6666   */\n      0x00\n        /* \"#utility.yul\":6689:6695   */\n      dup3\n        /* \"#utility.yul\":6684:6687   */\n      dup3\n        /* \"#utility.yul\":6677:6696   */\n      mstore\n        /* \"#utility.yul\":6729:6733   */\n      0x20\n        /* \"#utility.yul\":6724:6727   */\n      dup3\n        /* \"#utility.yul\":6720:6734   */\n      add\n        /* \"#utility.yul\":6705:6734   */\n      swap1\n      pop\n        /* \"#utility.yul\":6571:6740   */\n      swap3\n      swap2\n      pop\n      pop\n      jump\t// out\n        /* \"#utility.yul\":6746:6919   */\n    tag_138:\n        /* \"#utility.yul\":6886:6911   */\n      0x4e6f2076616c696461746f727320617661696c61626c65000000000000000000\n        /* \"#utility.yul\":6882:6883   */\n      0x00\n        /* \"#utility.yul\":6874:6880   */\n      dup3\n        /* \"#utility.yul\":6870:6884   */\n      add\n        /* \"#utility.yul\":6863:6912   */\n      mstore\n        /* \"#utility.yul\":6746:6919   */\n      pop\n      jump\t// out\n        /* \"#utility.yul\":6925:7291   */\n    tag_139:\n        /* \"#utility.yul\":7067:7070   */\n      0x00\n        /* \"#utility.yul\":7088:7155   */\n      tag_223\n        /* \"#utility.yul\":7152:7154   */\n      0x17\n        /* \"#utility.yul\":7147:7150   */\n      dup4\n        /* \"#utility.yul\":7088:7155   */\n      tag_137\n      jump\t// in\n    tag_223:\n        /* \"#utility.yul\":7081:7155   */\n      swap2\n      pop\n        /* \"#utility.yul\":7164:7257   */\n      tag_224\n        /* \"#utility.yul\":7253:7256   */\n      dup3\n        /* \"#utility.yul\":7164:7257   */\n      tag_138\n      jump\t// in\n    tag_224:\n        /* \"#utility.yul\":7282:7284   */\n      0x20\n        /* \"#utility.yul\":7277:7280   */\n      dup3\n        /* \"#utility.yul\":7273:7285   */\n      add\n        /* \"#utility.yul\":7266:7285   */\n      swap1\n      pop\n        /* \"#utility.yul\":6925:7291   */\n      swap2\n      swap1\n      pop\n      jump\t// out\n        /* \"#utility.yul\":7297:7716   */\n    tag_57:\n        /* \"#utility.yul\":7463:7467   */\n      0x00\n        /* \"#utility.yul\":7501:7503   */\n      0x20\n        /* \"#utility.yul\":7490:7499   */\n      dup3\n        /* \"#utility.yul\":7486:7504   */\n      add\n        /* \"#utility.yul\":7478:7504   */\n      swap1\n      pop\n        /* \"#utility.yul\":7550:7559   */\n      dup2\n        /* \"#utility.yul\":7544:7548   */\n      dup2\n        /* \"#utility.yul\":7540:7560   */\n      sub\n        /* \"#utility.yul\":7536:7537   */\n      0x00\n        /* \"#utility.yul\":7525:7534   */\n      dup4\n        /* \"#utility.yul\":7521:7538   */\n      add\n        /* \"#utility.yul\":7514:7561   */\n      mstore\n        /* \"#utility.yul\":7578:7709   */\n      tag_226\n        /* \"#utility.yul\":7704:7708   */\n      dup2\n        /* \"#utility.yul\":7578:7709   */\n      tag_139\n      jump\t// in\n    tag_226:\n        /* \"#utility.yul\":7570:7709   */\n      swap1\n      pop\n        /* \"#utility.yul\":7297:7716   */\n      swap2\n      swap1\n      pop\n      jump\t// out\n        /* \"#utility.yul\":7722:7891   */\n    tag_140:\n        /* \"#utility.yul\":7862:7883   */\n      0x4e6f207374616b657320617661696c61626c6500000000000000000000000000\n        /* \"#utility.yul\":7858:7859   */\n      0x00\n        /* \"#utility.yul\":7850:7856   */\n      dup3\n        /* \"#utility.yul\":7846:7860   */\n      add\n        /* \"#utility.yul\":7839:7884   */\n      mstore\n        /* \"#utility.yul\":7722:7891   */\n      pop\n      jump\t// out\n        /* \"#utility.yul\":7897:8263   */\n    tag_141:\n        /* \"#utility.yul\":8039:8042   */\n      0x00\n        /* \"#utility.yul\":8060:8127   */\n      tag_229\n        /* \"#utility.yul\":8124:8126   */\n      0x13\n        /* \"#utility.yul\":8119:8122   */\n      dup4\n        /* \"#utility.yul\":8060:8127   */\n      tag_137\n      jump\t// in\n    tag_229:\n        /* \"#utility.yul\":8053:8127   */\n      swap2\n      pop\n        /* \"#utility.yul\":8136:8229   */\n      tag_230\n        /* \"#utility.yul\":8225:8228   */\n      dup3\n        /* \"#utility.yul\":8136:8229   */\n      tag_140\n      jump\t// in\n    tag_230:\n        /* \"#utility.yul\":8254:8256   */\n      0x20\n        /* \"#utility.yul\":8249:8252   */\n      dup3\n        /* \"#utility.yul\":8245:8257   */\n      add\n        /* \"#utility.yul\":8238:8257   */\n      swap1\n      pop\n        /* \"#utility.yul\":7897:8263   */\n      swap2\n      swap1\n      pop\n      jump\t// out\n        /* \"#utility.yul\":8269:8688   */\n    tag_60:\n        /* \"#utility.yul\":8435:8439   */\n      0x00\n        /* \"#utility.yul\":8473:8475   */\n      0x20\n        /* \"#utility.yul\":8462:8471   */\n      dup3\n        /* \"#utility.yul\":8458:8476   */\n      add\n        /* \"#utility.yul\":8450:8476   */\n      swap1\n      pop\n        /* \"#utility.yul\":8522:8531   */\n      dup2\n        /* \"#utility.yul\":8516:8520   */\n      dup2\n        /* \"#utility.yul\":8512:8532   */\n      sub\n        /* \"#utility.yul\":8508:8509   */\n      0x00\n        /* \"#utility.yul\":8497:8506   */\n      dup4\n        /* \"#utility.yul\":8493:8510   */\n      add\n        /* \"#utility.yul\":8486:8533   */\n      mstore\n        /* \"#utility.yul\":8550:8681   */\n      tag_232\n        /* \"#utility.yul\":8676:8680   */\n      dup2\n        /* \"#utility.yul\":8550:8681   */\n      tag_141\n      jump\t// in\n    tag_232:\n        /* \"#utility.yul\":8542:8681   */\n      swap1\n      pop\n        /* \"#utility.yul\":8269:8688   */\n      swap2\n      swap1\n      pop\n      jump\t// out\n        /* \"#utility.yul\":8694:8773   */\n    tag_142:\n        /* \"#utility.yul\":8733:8740   */\n      0x00\n        /* \"#utility.yul\":8762:8767   */\n      dup2\n        /* \"#utility.yul\":8751:8767   */\n      swap1\n      pop\n        /* \"#utility.yul\":8694:8773   */\n      swap2\n      swap1\n      pop\n      jump\t// out\n        /* \"#utility.yul\":8779:8936   */\n    tag_143:\n        /* \"#utility.yul\":8884:8929   */\n      tag_235\n        /* \"#utility.yul\":8904:8928   */\n      tag_236\n        /* \"#utility.yul\":8922:8927   */\n      dup3\n        /* \"#utility.yul\":8904:8928   */\n      tag_114\n      jump\t// in\n    tag_236:\n        /* \"#utility.yul\":8884:8929   */\n      tag_142\n      jump\t// in\n    tag_235:\n        /* \"#utility.yul\":8879:8882   */\n      dup3\n        /* \"#utility.yul\":8872:8930   */\n      mstore\n        /* \"#utility.yul\":8779:8936   */\n      pop\n      pop\n      jump\t// out\n        /* \"#utility.yul\":8942:9339   */\n    tag_62:\n        /* \"#utility.yul\":9082:9085   */\n      0x00\n        /* \"#utility.yul\":9097:9172   */\n      tag_238\n        /* \"#utility.yul\":9168:9171   */\n      dup3\n        /* \"#utility.yul\":9159:9165   */\n      dup6\n        /* \"#utility.yul\":9097:9172   */\n      tag_143\n      jump\t// in\n    tag_238:\n        /* \"#utility.yul\":9197:9199   */\n      0x20\n        /* \"#utility.yul\":9192:9195   */\n      dup3\n        /* \"#utility.yul\":9188:9200   */\n      add\n        /* \"#utility.yul\":9181:9200   */\n      swap2\n      pop\n        /* \"#utility.yul\":9210:9285   */\n      tag_239\n        /* \"#utility.yul\":9281:9284   */\n      dup3\n        /* \"#utility.yul\":9272:9278   */\n      dup5\n        /* \"#utility.yul\":9210:9285   */\n      tag_143\n      jump\t// in\n    tag_239:\n        /* \"#utility.yul\":9310:9312   */\n      0x20\n        /* \"#utility.yul\":9305:9308   */\n      dup3\n        /* \"#utility.yul\":9301:9313   */\n      add\n        /* \"#utility.yul\":9294:9313   */\n      swap2\n      pop\n        /* \"#utility.yul\":9330:9333   */\n      dup2\n        /* \"#utility.yul\":9323:9333   */\n      swap1\n      pop\n        /* \"#utility.yul\":8942:9339   */\n      swap4\n      swap3\n      pop\n      pop\n      pop\n      jump\t// out\n        /* \"#utility.yul\":9345:9525   */\n    tag_144:\n        /* \"#utility.yul\":9393:9470   */\n      0x4e487b7100000000000000000000000000000000000000000000000000000000\n        /* \"#utility.yul\":9390:9391   */\n      0x00\n        /* \"#utility.yul\":9383:9471   */\n      mstore\n        /* \"#utility.yul\":9490:9494   */\n      0x12\n        /* \"#utility.yul\":9487:9488   */\n      0x04\n        /* \"#utility.yul\":9480:9495   */\n      mstore\n        /* \"#utility.yul\":9514:9518   */\n      0x24\n        /* \"#utility.yul\":9511:9512   */\n      0x00\n        /* \"#utility.yul\":9504:9519   */\n      revert\n        /* \"#utility.yul\":9531:9707   */\n    tag_64:\n        /* \"#utility.yul\":9563:9564   */\n      0x00\n        /* \"#utility.yul\":9580:9600   */\n      tag_242\n        /* \"#utility.yul\":9598:9599   */\n      dup3\n        /* \"#utility.yul\":9580:9600   */\n      tag_114\n      jump\t// in\n    tag_242:\n        /* \"#utility.yul\":9575:9600   */\n      swap2\n      pop\n        /* \"#utility.yul\":9614:9634   */\n      tag_243\n        /* \"#utility.yul\":9632:9633   */\n      dup4\n        /* \"#utility.yul\":9614:9634   */\n      tag_114\n      jump\t// in\n    tag_243:\n        /* \"#utility.yul\":9609:9634   */\n      swap3\n      pop\n        /* \"#utility.yul\":9653:9654   */\n      dup3\n        /* \"#utility.yul\":9643:9678   */\n      tag_244\n      jumpi\n        /* \"#utility.yul\":9658:9676   */\n      tag_245\n      tag_144\n      jump\t// in\n    tag_245:\n        /* \"#utility.yul\":9643:9678   */\n    tag_244:\n        /* \"#utility.yul\":9699:9700   */\n      dup3\n        /* \"#utility.yul\":9696:9697   */\n      dup3\n        /* \"#utility.yul\":9692:9701   */\n      mod\n        /* \"#utility.yul\":9687:9701   */\n      swap1\n      pop\n        /* \"#utility.yul\":9531:9707   */\n      swap3\n      swap2\n      pop\n      pop\n      jump\t// out\n        /* \"#utility.yul\":9713:9893   */\n    tag_70:\n        /* \"#utility.yul\":9761:9838   */\n      0x4e487b7100000000000000000000000000000000000000000000000000000000\n        /* \"#utility.yul\":9758:9759   */\n      0x00\n        /* \"#utility.yul\":9751:9839   */\n      mstore\n        /* \"#utility.yul\":9858:9862   */\n      0x32\n        /* \"#utility.yul\":9855:9856   */\n      0x04\n        /* \"#utility.yul\":9848:9863   */\n      mstore\n        /* \"#utility.yul\":9882:9886   */\n      0x24\n        /* \"#utility.yul\":9879:9880   */\n      0x00\n        /* \"#utility.yul\":9872:9887   */\n      revert\n        /* \"#utility.yul\":9899:10079   */\n    tag_145:\n        /* \"#utility.yul\":9947:10024   */\n      0x4e487b7100000000000000000000000000000000000000000000000000000000\n        /* \"#utility.yul\":9944:9945   */\n      0x00\n        /* \"#utility.yul\":9937:10025   */\n      mstore\n        /* \"#utility.yul\":10044:10048   */\n      0x11\n        /* \"#utility.yul\":10041:10042   */\n      0x04\n        /* \"#utility.yul\":10034:10049   */\n      mstore\n        /* \"#utility.yul\":10068:10072   */\n      0x24\n        /* \"#utility.yul\":10065:10066   */\n      0x00\n        /* \"#utility.yul\":10058:10073   */\n      revert\n        /* \"#utility.yul\":10085:10276   */\n    tag_73:\n        /* \"#utility.yul\":10125:10128   */\n      0x00\n        /* \"#utility.yul\":10144:10164   */\n      tag_249\n        /* \"#utility.yul\":10162:10163   */\n      dup3\n        /* \"#utility.yul\":10144:10164   */\n      tag_114\n      jump\t// in\n    tag_249:\n        /* \"#utility.yul\":10139:10164   */\n      swap2\n      pop\n        /* \"#utility.yul\":10178:10198   */\n      tag_250\n        /* \"#utility.yul\":10196:10197   */\n      dup4\n        /* \"#utility.yul\":10178:10198   */\n      tag_114\n      jump\t// in\n    tag_250:\n        /* \"#utility.yul\":10173:10198   */\n      swap3\n      pop\n        /* \"#utility.yul\":10221:10222   */\n      dup3\n        /* \"#utility.yul\":10218:10219   */\n      dup3\n        /* \"#utility.yul\":10214:10223   */\n      add\n        /* \"#utility.yul\":10207:10223   */\n      swap1\n      pop\n        /* \"#utility.yul\":10242:10245   */\n      dup1\n        /* \"#utility.yul\":10239:10240   */\n      dup3\n        /* \"#utility.yul\":10236:10246   */\n      gt\n        /* \"#utility.yul\":10233:10269   */\n      iszero\n      tag_251\n      jumpi\n        /* \"#utility.yul\":10249:10267   */\n      tag_252\n      tag_145\n      jump\t// in\n    tag_252:\n        /* \"#utility.yul\":10233:10269   */\n    tag_251:\n        /* \"#utility.yul\":10085:10276   */\n      swap3\n      swap2\n      pop\n      pop\n      jump\t// out\n        /* \"#utility.yul\":10282:10385   */\n    tag_146:\n        /* \"#utility.yul\":10345:10352   */\n      0x00\n        /* \"#utility.yul\":10374:10379   */\n      dup2\n        /* \"#utility.yul\":10363:10379   */\n      swap1\n      pop\n        /* \"#utility.yul\":10282:10385   */\n      swap2\n      swap1\n      pop\n      jump\t// out\n        /* \"#utility.yul\":10391:10451   */\n    tag_147:\n        /* \"#utility.yul\":10419:10422   */\n      0x00\n        /* \"#utility.yul\":10440:10445   */\n      dup2\n        /* \"#utility.yul\":10433:10445   */\n      swap1\n      pop\n        /* \"#utility.yul\":10391:10451   */\n      swap2\n      swap1\n      pop\n      jump\t// out\n        /* \"#utility.yul\":10457:10651   */\n    tag_148:\n        /* \"#utility.yul\":10533:10542   */\n      0x00\n        /* \"#utility.yul\":10566:10645   */\n      tag_256\n        /* \"#utility.yul\":10584:10644   */\n      tag_257\n        /* \"#utility.yul\":10593:10643   */\n      tag_258\n        /* \"#utility.yul\":10637:10642   */\n      dup5\n        /* \"#utility.yul\":10593:10643   */\n      tag_146\n      jump\t// in\n    tag_258:\n        /* \"#utility.yul\":10584:10644   */\n      tag_147\n      jump\t// in\n    tag_257:\n        /* \"#utility.yul\":10566:10645   */\n      tag_114\n      jump\t// in\n    tag_256:\n        /* \"#utility.yul\":10553:10645   */\n      swap1\n      pop\n        /* \"#utility.yul\":10457:10651   */\n      swap2\n      swap1\n      pop\n      jump\t// out\n        /* \"#utility.yul\":10657:10840   */\n    tag_149:\n        /* \"#utility.yul\":10770:10833   */\n      tag_260\n        /* \"#utility.yul\":10827:10832   */\n      dup2\n        /* \"#utility.yul\":10770:10833   */\n      tag_148\n      jump\t// in\n    tag_260:\n        /* \"#utility.yul\":10765:10768   */\n      dup3\n        /* \"#utility.yul\":10758:10834   */\n      mstore\n        /* \"#utility.yul\":10657:10840   */\n      pop\n      pop\n      jump\t// out\n        /* \"#utility.yul\":10846:11120   */\n    tag_84:\n        /* \"#utility.yul\":10965:10969   */\n      0x00\n        /* \"#utility.yul\":11003:11005   */\n      0x20\n        /* \"#utility.yul\":10992:11001   */\n      dup3\n        /* \"#utility.yul\":10988:11006   */\n      add\n        /* \"#utility.yul\":10980:11006   */\n      swap1\n      pop\n        /* \"#utility.yul\":11016:11113   */\n      tag_262\n        /* \"#utility.yul\":11110:11111   */\n      0x00\n        /* \"#utility.yul\":11099:11108   */\n      dup4\n        /* \"#utility.yul\":11095:11112   */\n      add\n        /* \"#utility.yul\":11086:11092   */\n      dup5\n        /* \"#utility.yul\":11016:11113   */\n      tag_149\n      jump\t// in\n    tag_262:\n        /* \"#utility.yul\":10846:11120   */\n      swap3\n      swap2\n      pop\n      pop\n      jump\t// out\n        /* \"#utility.yul\":11126:11302   */\n    tag_150:\n        /* \"#utility.yul\":11266:11294   */\n      0x56616c696461746f722073656c656374696f6e206661696c6564000000000000\n        /* \"#utility.yul\":11262:11263   */\n      0x00\n        /* \"#utility.yul\":11254:11260   */\n      dup3\n        /* \"#utility.yul\":11250:11264   */\n      add\n        /* \"#utility.yul\":11243:11295   */\n      mstore\n        /* \"#utility.yul\":11126:11302   */\n      pop\n      jump\t// out\n        /* \"#utility.yul\":11308:11674   */\n    tag_151:\n        /* \"#utility.yul\":11450:11453   */\n      0x00\n        /* \"#utility.yul\":11471:11538   */\n      tag_265\n        /* \"#utility.yul\":11535:11537   */\n      0x1a\n        /* \"#utility.yul\":11530:11533   */\n      dup4\n        /* \"#utility.yul\":11471:11538   */\n      tag_137\n      jump\t// in\n    tag_265:\n        /* \"#utility.yul\":11464:11538   */\n      swap2\n      pop\n        /* \"#utility.yul\":11547:11640   */\n      tag_266\n        /* \"#utility.yul\":11636:11639   */\n      dup3\n        /* \"#utility.yul\":11547:11640   */\n      tag_150\n      jump\t// in\n    tag_266:\n        /* \"#utility.yul\":11665:11667   */\n      0x20\n        /* \"#utility.yul\":11660:11663   */\n      dup3\n        /* \"#utility.yul\":11656:11668   */\n      add\n        /* \"#utility.yul\":11649:11668   */\n      swap1\n      pop\n        /* \"#utility.yul\":11308:11674   */\n      swap2\n      swap1\n      pop\n      jump\t// out\n        /* \"#utility.yul\":11680:12099   */\n    tag_89:\n        /* \"#utility.yul\":11846:11850   */\n      0x00\n        /* \"#utility.yul\":11884:11886   */\n      0x20\n        /* \"#utility.yul\":11873:11882   */\n      dup3\n        /* \"#utility.yul\":11869:11887   */\n      add\n        /* \"#utility.yul\":11861:11887   */\n      swap1\n      pop\n        /* \"#utility.yul\":11933:11942   */\n      dup2\n        /* \"#utility.yul\":11927:11931   */\n      dup2\n        /* \"#utility.yul\":11923:11943   */\n      sub\n        /* \"#utility.yul\":11919:11920   */\n      0x00\n        /* \"#utility.yul\":11908:11917   */\n      dup4\n        /* \"#utility.yul\":11904:11921   */\n      add\n        /* \"#utility.yul\":11897:11944   */\n      mstore\n        /* \"#utility.yul\":11961:12092   */\n      tag_268\n        /* \"#utility.yul\":12087:12091   */\n      dup2\n        /* \"#utility.yul\":11961:12092   */\n      tag_151\n      jump\t// in\n    tag_268:\n        /* \"#utility.yul\":11953:12092   */\n      swap1\n      pop\n        /* \"#utility.yul\":11680:12099   */\n      swap2\n      swap1\n      pop\n      jump\t// out\n        /* \"#utility.yul\":12105:12283   */\n    tag_152:\n        /* \"#utility.yul\":12245:12275   */\n      0x4d757374207374616b65206120706f73697469766520616d6f756e7400000000\n        /* \"#utility.yul\":12241:12242   */\n      0x00\n        /* \"#utility.yul\":12233:12239   */\n      dup3\n        /* \"#utility.yul\":12229:12243   */\n      add\n        /* \"#utility.yul\":12222:12276   */\n      mstore\n        /* \"#utility.yul\":12105:12283   */\n      pop\n      jump\t// out\n        /* \"#utility.yul\":12289:12655   */\n    tag_153:\n        /* \"#utility.yul\":12431:12434   */\n      0x00\n        /* \"#utility.yul\":12452:12519   */\n      tag_271\n        /* \"#utility.yul\":12516:12518   */\n      0x1c\n        /* \"#utility.yul\":12511:12514   */\n      dup4\n        /* \"#utility.yul\":12452:12519   */\n      tag_137\n      jump\t// in\n    tag_271:\n        /* \"#utility.yul\":12445:12519   */\n      swap2\n      pop\n        /* \"#utility.yul\":12528:12621   */\n      tag_272\n        /* \"#utility.yul\":12617:12620   */\n      dup3\n        /* \"#utility.yul\":12528:12621   */\n      tag_152\n      jump\t// in\n    tag_272:\n        /* \"#utility.yul\":12646:12648   */\n      0x20\n        /* \"#utility.yul\":12641:12644   */\n      dup3\n        /* \"#utility.yul\":12637:12649   */\n      add\n        /* \"#utility.yul\":12630:12649   */\n      swap1\n      pop\n        /* \"#utility.yul\":12289:12655   */\n      swap2\n      swap1\n      pop\n      jump\t// out\n        /* \"#utility.yul\":12661:13080   */\n    tag_97:\n        /* \"#utility.yul\":12827:12831   */\n      0x00\n        /* \"#utility.yul\":12865:12867   */\n      0x20\n        /* \"#utility.yul\":12854:12863   */\n      dup3\n        /* \"#utility.yul\":12850:12868   */\n      add\n        /* \"#utility.yul\":12842:12868   */\n      swap1\n      pop\n        /* \"#utility.yul\":12914:12923   */\n      dup2\n        /* \"#utility.yul\":12908:12912   */\n      dup2\n        /* \"#utility.yul\":12904:12924   */\n      sub\n        /* \"#utility.yul\":12900:12901   */\n      0x00\n        /* \"#utility.yul\":12889:12898   */\n      dup4\n        /* \"#utility.yul\":12885:12902   */\n      add\n        /* \"#utility.yul\":12878:12925   */\n      mstore\n        /* \"#utility.yul\":12942:13073   */\n      tag_274\n        /* \"#utility.yul\":13068:13072   */\n      dup2\n        /* \"#utility.yul\":12942:13073   */\n      tag_153\n      jump\t// in\n    tag_274:\n        /* \"#utility.yul\":12934:13073   */\n      swap1\n      pop\n        /* \"#utility.yul\":12661:13080   */\n      swap2\n      swap1\n      pop\n      jump\t// out\n\n    auxdata: 0xa2646970667358221220721f23370e68ec544e37740f90747c2cbef7c5d9c90b85fff510772bb3d09ccc64736f6c634300081a0033\n}\n",
				"bytecode": {
					"linkReferences": {},
					"object": "6080604052348015600f57600080fd5b50610ef18061001f6000396000f3fe60806040526004361061007b5760003560e01c80638bd648521161004e5780638bd6485214610151578063b7ab4db51461017c578063ce46643b146101a7578063f0fc9abe146101b15761007b565b80630917e7761461008057806316934fc4146100ab57806335aa2e44146100e8578063817b1cd214610126575b600080fd5b34801561008c57600080fd5b506100956101ee565b6040516100a291906108b0565b60405180910390f35b3480156100b757600080fd5b506100d260048036038101906100cd919061092e565b6101f8565b6040516100df91906108b0565b60405180910390f35b3480156100f457600080fd5b5061010f600480360381019061010a9190610987565b610210565b60405161011d9291906109c3565b60405180910390f35b34801561013257600080fd5b5061013b610264565b60405161014891906108b0565b60405180910390f35b34801561015d57600080fd5b5061016661026a565b60405161017391906109ec565b60405180910390f35b34801561018857600080fd5b5061019161054c565b60405161019e9190610b03565b60405180910390f35b6101af61060b565b005b3480156101bd57600080fd5b506101d860048036038101906101d39190610987565b610878565b6040516101e59190610b40565b60405180910390f35b6000600254905090565b60016020528060005260406000206000915090505481565b6000818154811061022057600080fd5b90600052602060002090600202016000915090508060000160009054906101000a900473ffffffffffffffffffffffffffffffffffffffff16908060010154905082565b60025481565b600080600080549050116102b3576040517f08c379a00000000000000000000000000000000000000000000000000000000081526004016102aa90610bb8565b60405180910390fd5b6000600254116102f8576040517f08c379a00000000000000000000000000000000000000000000000000000000081526004016102ef90610c24565b60405180910390fd5b60006002544244604051602001610310929190610c65565b6040516020818303038152906040528051906020012060001c6103339190610cc0565b90506000805b60008054905081101561050d576000818154811061035a57610359610cf1565b5b906000526020600020906002020160010154826103779190610d4f565b915081831015610500576000818154811061039557610394610cf1565b5b906000526020600020906002020160000160009054906101000a900473ffffffffffffffffffffffffffffffffffffffff1673ffffffffffffffffffffffffffffffffffffffff166108fc670de0b6b3a76400009081150290604051600060405180830381858888f19350505050158015610414573d6000803e3d6000fd5b506000818154811061042957610428610cf1565b5b906000526020600020906002020160000160009054906101000a900473ffffffffffffffffffffffffffffffffffffffff1673ffffffffffffffffffffffffffffffffffffffff167f65b8f1d9cfb410e01c5062432e99a4badbb42d40ae974c6201e8c538134d8711670de0b6b3a76400006040516104a89190610dc8565b60405180910390a2600081815481106104c4576104c3610cf1565b5b906000526020600020906002020160000160009054906101000a900473ffffffffffffffffffffffffffffffffffffffff169350505050610549565b8080600101915050610339565b506040517f08c379a000000000000000000000000000000000000000000000000000000000815260040161054090610e2f565b60405180910390fd5b90565b60606000805480602002602001604051908101604052809291908181526020016000905b8282101561060257838290600052602060002090600202016040518060400160405290816000820160009054906101000a900473ffffffffffffffffffffffffffffffffffffffff1673ffffffffffffffffffffffffffffffffffffffff1673ffffffffffffffffffffffffffffffffffffffff16815260200160018201548152505081526020019060010190610570565b50505050905090565b6000341161064e576040517f08c379a000000000000000000000000000000000000000000000000000000000815260040161064590610e9b565b60405180910390fd5b34600160003373ffffffffffffffffffffffffffffffffffffffff1673ffffffffffffffffffffffffffffffffffffffff168152602001908152602001600020600082825461069d9190610d4f565b9250508190555034600260008282546106b69190610d4f565b925050819055506000805b6000805490508110156107c5573373ffffffffffffffffffffffffffffffffffffffff16600082815481106106f9576106f8610cf1565b5b906000526020600020906002020160000160009054906101000a900473ffffffffffffffffffffffffffffffffffffffff1673ffffffffffffffffffffffffffffffffffffffff16036107b857600160003373ffffffffffffffffffffffffffffffffffffffff1673ffffffffffffffffffffffffffffffffffffffff168152602001908152602001600020546000828154811061079a57610799610cf1565b5b906000526020600020906002020160010181905550600191506107c5565b80806001019150506106c1565b508061087557600060405180604001604052803373ffffffffffffffffffffffffffffffffffffffff16815260200134815250908060018154018082558091505060019003906000526020600020906002020160009091909190915060008201518160000160006101000a81548173ffffffffffffffffffffffffffffffffffffffff021916908373ffffffffffffffffffffffffffffffffffffffff1602179055506020820151816001015550505b50565b600081600254101561088d5760009050610892565b600190505b919050565b6000819050919050565b6108aa81610897565b82525050565b60006020820190506108c560008301846108a1565b92915050565b600080fd5b600073ffffffffffffffffffffffffffffffffffffffff82169050919050565b60006108fb826108d0565b9050919050565b61090b816108f0565b811461091657600080fd5b50565b60008135905061092881610902565b92915050565b600060208284031215610944576109436108cb565b5b600061095284828501610919565b91505092915050565b61096481610897565b811461096f57600080fd5b50565b6000813590506109818161095b565b92915050565b60006020828403121561099d5761099c6108cb565b5b60006109ab84828501610972565b91505092915050565b6109bd816108f0565b82525050565b60006040820190506109d860008301856109b4565b6109e560208301846108a1565b9392505050565b6000602082019050610a0160008301846109b4565b92915050565b600081519050919050565b600082825260208201905092915050565b6000819050602082019050919050565b610a3c816108f0565b82525050565b610a4b81610897565b82525050565b604082016000820151610a676000850182610a33565b506020820151610a7a6020850182610a42565b50505050565b6000610a8c8383610a51565b60408301905092915050565b6000602082019050919050565b6000610ab082610a07565b610aba8185610a12565b9350610ac583610a23565b8060005b83811015610af6578151610add8882610a80565b9750610ae883610a98565b925050600181019050610ac9565b5085935050505092915050565b60006020820190508181036000830152610b1d8184610aa5565b905092915050565b60008115159050919050565b610b3a81610b25565b82525050565b6000602082019050610b556000830184610b31565b92915050565b600082825260208201905092915050565b7f4e6f2076616c696461746f727320617661696c61626c65000000000000000000600082015250565b6000610ba2601783610b5b565b9150610bad82610b6c565b602082019050919050565b60006020820190508181036000830152610bd181610b95565b9050919050565b7f4e6f207374616b657320617661696c61626c6500000000000000000000000000600082015250565b6000610c0e601383610b5b565b9150610c1982610bd8565b602082019050919050565b60006020820190508181036000830152610c3d81610c01565b9050919050565b6000819050919050565b610c5f610c5a82610897565b610c44565b82525050565b6000610c718285610c4e565b602082019150610c818284610c4e565b6020820191508190509392505050565b7f4e487b7100000000000000000000000000000000000000000000000000000000600052601260045260246000fd5b6000610ccb82610897565b9150610cd683610897565b925082610ce657610ce5610c91565b5b828206905092915050565b7f4e487b7100000000000000000000000000000000000000000000000000000000600052603260045260246000fd5b7f4e487b7100000000000000000000000000000000000000000000000000000000600052601160045260246000fd5b6000610d5a82610897565b9150610d6583610897565b9250828201905080821115610d7d57610d7c610d20565b5b92915050565b6000819050919050565b6000819050919050565b6000610db2610dad610da884610d83565b610d8d565b610897565b9050919050565b610dc281610d97565b82525050565b6000602082019050610ddd6000830184610db9565b92915050565b7f56616c696461746f722073656c656374696f6e206661696c6564000000000000600082015250565b6000610e19601a83610b5b565b9150610e2482610de3565b602082019050919050565b60006020820190508181036000830152610e4881610e0c565b9050919050565b7f4d757374207374616b65206120706f73697469766520616d6f756e7400000000600082015250565b6000610e85601c83610b5b565b9150610e9082610e4f565b602082019050919050565b60006020820190508181036000830152610eb481610e78565b905091905056fea2646970667358221220721f23370e68ec544e37740f90747c2cbef7c5d9c90b85fff510772bb3d09ccc64736f6c634300081a0033",
					"opcodes": "PUSH1 0x80 PUSH1 0x40 MSTORE CALLVALUE DUP1 ISZERO PUSH1 0xF JUMPI PUSH1 0x0 DUP1 REVERT JUMPDEST POP PUSH2 0xEF1 DUP1 PUSH2 0x1F PUSH1 0x0 CODECOPY PUSH1 0x0 RETURN INVALID PUSH1 0x80 PUSH1 0x40 MSTORE PUSH1 0x4 CALLDATASIZE LT PUSH2 0x7B JUMPI PUSH1 0x0 CALLDATALOAD PUSH1 0xE0 SHR DUP1 PUSH4 0x8BD64852 GT PUSH2 0x4E JUMPI DUP1 PUSH4 0x8BD64852 EQ PUSH2 0x151 JUMPI DUP1 PUSH4 0xB7AB4DB5 EQ PUSH2 0x17C JUMPI DUP1 PUSH4 0xCE46643B EQ PUSH2 0x1A7 JUMPI DUP1 PUSH4 0xF0FC9ABE EQ PUSH2 0x1B1 JUMPI PUSH2 0x7B JUMP JUMPDEST DUP1 PUSH4 0x917E776 EQ PUSH2 0x80 JUMPI DUP1 PUSH4 0x16934FC4 EQ PUSH2 0xAB JUMPI DUP1 PUSH4 0x35AA2E44 EQ PUSH2 0xE8 JUMPI DUP1 PUSH4 0x817B1CD2 EQ PUSH2 0x126 JUMPI JUMPDEST PUSH1 0x0 DUP1 REVERT JUMPDEST CALLVALUE DUP1 ISZERO PUSH2 0x8C JUMPI PUSH1 0x0 DUP1 REVERT JUMPDEST POP PUSH2 0x95 PUSH2 0x1EE JUMP JUMPDEST PUSH1 0x40 MLOAD PUSH2 0xA2 SWAP2 SWAP1 PUSH2 0x8B0 JUMP JUMPDEST PUSH1 0x40 MLOAD DUP1 SWAP2 SUB SWAP1 RETURN JUMPDEST CALLVALUE DUP1 ISZERO PUSH2 0xB7 JUMPI PUSH1 0x0 DUP1 REVERT JUMPDEST POP PUSH2 0xD2 PUSH1 0x4 DUP1 CALLDATASIZE SUB DUP2 ADD SWAP1 PUSH2 0xCD SWAP2 SWAP1 PUSH2 0x92E JUMP JUMPDEST PUSH2 0x1F8 JUMP JUMPDEST PUSH1 0x40 MLOAD PUSH2 0xDF SWAP2 SWAP1 PUSH2 0x8B0 JUMP JUMPDEST PUSH1 0x40 MLOAD DUP1 SWAP2 SUB SWAP1 RETURN JUMPDEST CALLVALUE DUP1 ISZERO PUSH2 0xF4 JUMPI PUSH1 0x0 DUP1 REVERT JUMPDEST POP PUSH2 0x10F PUSH1 0x4 DUP1 CALLDATASIZE SUB DUP2 ADD SWAP1 PUSH2 0x10A SWAP2 SWAP1 PUSH2 0x987 JUMP JUMPDEST PUSH2 0x210 JUMP JUMPDEST PUSH1 0x40 MLOAD PUSH2 0x11D SWAP3 SWAP2 SWAP1 PUSH2 0x9C3 JUMP JUMPDEST PUSH1 0x40 MLOAD DUP1 SWAP2 SUB SWAP1 RETURN JUMPDEST CALLVALUE DUP1 ISZERO PUSH2 0x132 JUMPI PUSH1 0x0 DUP1 REVERT JUMPDEST POP PUSH2 0x13B PUSH2 0x264 JUMP JUMPDEST PUSH1 0x40 MLOAD PUSH2 0x148 SWAP2 SWAP1 PUSH2 0x8B0 JUMP JUMPDEST PUSH1 0x40 MLOAD DUP1 SWAP2 SUB SWAP1 RETURN JUMPDEST CALLVALUE DUP1 ISZERO PUSH2 0x15D JUMPI PUSH1 0x0 DUP1 REVERT JUMPDEST POP PUSH2 0x166 PUSH2 0x26A JUMP JUMPDEST PUSH1 0x40 MLOAD PUSH2 0x173 SWAP2 SWAP1 PUSH2 0x9EC JUMP JUMPDEST PUSH1 0x40 MLOAD DUP1 SWAP2 SUB SWAP1 RETURN JUMPDEST CALLVALUE DUP1 ISZERO PUSH2 0x188 JUMPI PUSH1 0x0 DUP1 REVERT JUMPDEST POP PUSH2 0x191 PUSH2 0x54C JUMP JUMPDEST PUSH1 0x40 MLOAD PUSH2 0x19E SWAP2 SWAP1 PUSH2 0xB03 JUMP JUMPDEST PUSH1 0x40 MLOAD DUP1 SWAP2 SUB SWAP1 RETURN JUMPDEST PUSH2 0x1AF PUSH2 0x60B JUMP JUMPDEST STOP JUMPDEST CALLVALUE DUP1 ISZERO PUSH2 0x1BD JUMPI PUSH1 0x0 DUP1 REVERT JUMPDEST POP PUSH2 0x1D8 PUSH1 0x4 DUP1 CALLDATASIZE SUB DUP2 ADD SWAP1 PUSH2 0x1D3 SWAP2 SWAP1 PUSH2 0x987 JUMP JUMPDEST PUSH2 0x878 JUMP JUMPDEST PUSH1 0x40 MLOAD PUSH2 0x1E5 SWAP2 SWAP1 PUSH2 0xB40 JUMP JUMPDEST PUSH1 0x40 MLOAD DUP1 SWAP2 SUB SWAP1 RETURN JUMPDEST PUSH1 0x0 PUSH1 0x2 SLOAD SWAP1 POP SWAP1 JUMP JUMPDEST PUSH1 0x1 PUSH1 0x20 MSTORE DUP1 PUSH1 0x0 MSTORE PUSH1 0x40 PUSH1 0x0 KECCAK256 PUSH1 0x0 SWAP2 POP SWAP1 POP SLOAD DUP2 JUMP JUMPDEST PUSH1 0x0 DUP2 DUP2 SLOAD DUP2 LT PUSH2 0x220 JUMPI PUSH1 0x0 DUP1 REVERT JUMPDEST SWAP1 PUSH1 0x0 MSTORE PUSH1 0x20 PUSH1 0x0 KECCAK256 SWAP1 PUSH1 0x2 MUL ADD PUSH1 0x0 SWAP2 POP SWAP1 POP DUP1 PUSH1 0x0 ADD PUSH1 0x0 SWAP1 SLOAD SWAP1 PUSH2 0x100 EXP SWAP1 DIV PUSH20 0xFFFFFFFFFFFFFFFFFFFFFFFFFFFFFFFFFFFFFFFF AND SWAP1 DUP1 PUSH1 0x1 ADD SLOAD SWAP1 POP DUP3 JUMP JUMPDEST PUSH1 0x2 SLOAD DUP2 JUMP JUMPDEST PUSH1 0x0 DUP1 PUSH1 0x0 DUP1 SLOAD SWAP1 POP GT PUSH2 0x2B3 JUMPI PUSH1 0x40 MLOAD PUSH32 0x8C379A000000000000000000000000000000000000000000000000000000000 DUP2 MSTORE PUSH1 0x4 ADD PUSH2 0x2AA SWAP1 PUSH2 0xBB8 JUMP JUMPDEST PUSH1 0x40 MLOAD DUP1 SWAP2 SUB SWAP1 REVERT JUMPDEST PUSH1 0x0 PUSH1 0x2 SLOAD GT PUSH2 0x2F8 JUMPI PUSH1 0x40 MLOAD PUSH32 0x8C379A000000000000000000000000000000000000000000000000000000000 DUP2 MSTORE PUSH1 0x4 ADD PUSH2 0x2EF SWAP1 PUSH2 0xC24 JUMP JUMPDEST PUSH1 0x40 MLOAD DUP1 SWAP2 SUB SWAP1 REVERT JUMPDEST PUSH1 0x0 PUSH1 0x2 SLOAD TIMESTAMP DIFFICULTY PUSH1 0x40 MLOAD PUSH1 0x20 ADD PUSH2 0x310 SWAP3 SWAP2 SWAP1 PUSH2 0xC65 JUMP JUMPDEST PUSH1 0x40 MLOAD PUSH1 0x20 DUP2 DUP4 SUB SUB DUP2 MSTORE SWAP1 PUSH1 0x40 MSTORE DUP1 MLOAD SWAP1 PUSH1 0x20 ADD KECCAK256 PUSH1 0x0 SHR PUSH2 0x333 SWAP2 SWAP1 PUSH2 0xCC0 JUMP JUMPDEST SWAP1 POP PUSH1 0x0 DUP1 JUMPDEST PUSH1 0x0 DUP1 SLOAD SWAP1 POP DUP2 LT ISZERO PUSH2 0x50D JUMPI PUSH1 0x0 DUP2 DUP2 SLOAD DUP2 LT PUSH2 0x35A JUMPI PUSH2 0x359 PUSH2 0xCF1 JUMP JUMPDEST JUMPDEST SWAP1 PUSH1 0x0 MSTORE PUSH1 0x20 PUSH1 0x0 KECCAK256 SWAP1 PUSH1 0x2 MUL ADD PUSH1 0x1 ADD SLOAD DUP3 PUSH2 0x377 SWAP2 SWAP1 PUSH2 0xD4F JUMP JUMPDEST SWAP2 POP DUP2 DUP4 LT ISZERO PUSH2 0x500 JUMPI PUSH1 0x0 DUP2 DUP2 SLOAD DUP2 LT PUSH2 0x395 JUMPI PUSH2 0x394 PUSH2 0xCF1 JUMP JUMPDEST JUMPDEST SWAP1 PUSH1 0x0 MSTORE PUSH1 0x20 PUSH1 0x0 KECCAK256 SWAP1 PUSH1 0x2 MUL ADD PUSH1 0x0 ADD PUSH1 0x0 SWAP1 SLOAD SWAP1 PUSH2 0x100 EXP SWAP1 DIV PUSH20 0xFFFFFFFFFFFFFFFFFFFFFFFFFFFFFFFFFFFFFFFF AND PUSH20 0xFFFFFFFFFFFFFFFFFFFFFFFFFFFFFFFFFFFFFFFF AND PUSH2 0x8FC PUSH8 0xDE0B6B3A7640000 SWAP1 DUP2 ISZERO MUL SWAP1 PUSH1 0x40 MLOAD PUSH1 0x0 PUSH1 0x40 MLOAD DUP1 DUP4 SUB DUP2 DUP6 DUP9 DUP9 CALL SWAP4 POP POP POP POP ISZERO DUP1 ISZERO PUSH2 0x414 JUMPI RETURNDATASIZE PUSH1 0x0 DUP1 RETURNDATACOPY RETURNDATASIZE PUSH1 0x0 REVERT JUMPDEST POP PUSH1 0x0 DUP2 DUP2 SLOAD DUP2 LT PUSH2 0x429 JUMPI PUSH2 0x428 PUSH2 0xCF1 JUMP JUMPDEST JUMPDEST SWAP1 PUSH1 0x0 MSTORE PUSH1 0x20 PUSH1 0x0 KECCAK256 SWAP1 PUSH1 0x2 MUL ADD PUSH1 0x0 ADD PUSH1 0x0 SWAP1 SLOAD SWAP1 PUSH2 0x100 EXP SWAP1 DIV PUSH20 0xFFFFFFFFFFFFFFFFFFFFFFFFFFFFFFFFFFFFFFFF AND PUSH20 0xFFFFFFFFFFFFFFFFFFFFFFFFFFFFFFFFFFFFFFFF AND PUSH32 0x65B8F1D9CFB410E01C5062432E99A4BADBB42D40AE974C6201E8C538134D8711 PUSH8 0xDE0B6B3A7640000 PUSH1 0x40 MLOAD PUSH2 0x4A8 SWAP2 SWAP1 PUSH2 0xDC8 JUMP JUMPDEST PUSH1 0x40 MLOAD DUP1 SWAP2 SUB SWAP1 LOG2 PUSH1 0x0 DUP2 DUP2 SLOAD DUP2 LT PUSH2 0x4C4 JUMPI PUSH2 0x4C3 PUSH2 0xCF1 JUMP JUMPDEST JUMPDEST SWAP1 PUSH1 0x0 MSTORE PUSH1 0x20 PUSH1 0x0 KECCAK256 SWAP1 PUSH1 0x2 MUL ADD PUSH1 0x0 ADD PUSH1 0x0 SWAP1 SLOAD SWAP1 PUSH2 0x100 EXP SWAP1 DIV PUSH20 0xFFFFFFFFFFFFFFFFFFFFFFFFFFFFFFFFFFFFFFFF AND SWAP4 POP POP POP POP PUSH2 0x549 JUMP JUMPDEST DUP1 DUP1 PUSH1 0x1 ADD SWAP2 POP POP PUSH2 0x339 JUMP JUMPDEST POP PUSH1 0x40 MLOAD PUSH32 0x8C379A000000000000000000000000000000000000000000000000000000000 DUP2 MSTORE PUSH1 0x4 ADD PUSH2 0x540 SWAP1 PUSH2 0xE2F JUMP JUMPDEST PUSH1 0x40 MLOAD DUP1 SWAP2 SUB SWAP1 REVERT JUMPDEST SWAP1 JUMP JUMPDEST PUSH1 0x60 PUSH1 0x0 DUP1 SLOAD DUP1 PUSH1 0x20 MUL PUSH1 0x20 ADD PUSH1 0x40 MLOAD SWAP1 DUP2 ADD PUSH1 0x40 MSTORE DUP1 SWAP3 SWAP2 SWAP1 DUP2 DUP2 MSTORE PUSH1 0x20 ADD PUSH1 0x0 SWAP1 JUMPDEST DUP3 DUP3 LT ISZERO PUSH2 0x602 JUMPI DUP4 DUP3 SWAP1 PUSH1 0x0 MSTORE PUSH1 0x20 PUSH1 0x0 KECCAK256 SWAP1 PUSH1 0x2 MUL ADD PUSH1 0x40 MLOAD DUP1 PUSH1 0x40 ADD PUSH1 0x40 MSTORE SWAP1 DUP2 PUSH1 0x0 DUP3 ADD PUSH1 0x0 SWAP1 SLOAD SWAP1 PUSH2 0x100 EXP SWAP1 DIV PUSH20 0xFFFFFFFFFFFFFFFFFFFFFFFFFFFFFFFFFFFFFFFF AND PUSH20 0xFFFFFFFFFFFFFFFFFFFFFFFFFFFFFFFFFFFFFFFF AND PUSH20 0xFFFFFFFFFFFFFFFFFFFFFFFFFFFFFFFFFFFFFFFF AND DUP2 MSTORE PUSH1 0x20 ADD PUSH1 0x1 DUP3 ADD SLOAD DUP2 MSTORE POP POP DUP2 MSTORE PUSH1 0x20 ADD SWAP1 PUSH1 0x1 ADD SWAP1 PUSH2 0x570 JUMP JUMPDEST POP POP POP POP SWAP1 POP SWAP1 JUMP JUMPDEST PUSH1 0x0 CALLVALUE GT PUSH2 0x64E JUMPI PUSH1 0x40 MLOAD PUSH32 0x8C379A000000000000000000000000000000000000000000000000000000000 DUP2 MSTORE PUSH1 0x4 ADD PUSH2 0x645 SWAP1 PUSH2 0xE9B JUMP JUMPDEST PUSH1 0x40 MLOAD DUP1 SWAP2 SUB SWAP1 REVERT JUMPDEST CALLVALUE PUSH1 0x1 PUSH1 0x0 CALLER PUSH20 0xFFFFFFFFFFFFFFFFFFFFFFFFFFFFFFFFFFFFFFFF AND PUSH20 0xFFFFFFFFFFFFFFFFFFFFFFFFFFFFFFFFFFFFFFFF AND DUP2 MSTORE PUSH1 0x20 ADD SWAP1 DUP2 MSTORE PUSH1 0x20 ADD PUSH1 0x0 KECCAK256 PUSH1 0x0 DUP3 DUP3 SLOAD PUSH2 0x69D SWAP2 SWAP1 PUSH2 0xD4F JUMP JUMPDEST SWAP3 POP POP DUP2 SWAP1 SSTORE POP CALLVALUE PUSH1 0x2 PUSH1 0x0 DUP3 DUP3 SLOAD PUSH2 0x6B6 SWAP2 SWAP1 PUSH2 0xD4F JUMP JUMPDEST SWAP3 POP POP DUP2 SWAP1 SSTORE POP PUSH1 0x0 DUP1 JUMPDEST PUSH1 0x0 DUP1 SLOAD SWAP1 POP DUP2 LT ISZERO PUSH2 0x7C5 JUMPI CALLER PUSH20 0xFFFFFFFFFFFFFFFFFFFFFFFFFFFFFFFFFFFFFFFF AND PUSH1 0x0 DUP3 DUP2 SLOAD DUP2 LT PUSH2 0x6F9 JUMPI PUSH2 0x6F8 PUSH2 0xCF1 JUMP JUMPDEST JUMPDEST SWAP1 PUSH1 0x0 MSTORE PUSH1 0x20 PUSH1 0x0 KECCAK256 SWAP1 PUSH1 0x2 MUL ADD PUSH1 0x0 ADD PUSH1 0x0 SWAP1 SLOAD SWAP1 PUSH2 0x100 EXP SWAP1 DIV PUSH20 0xFFFFFFFFFFFFFFFFFFFFFFFFFFFFFFFFFFFFFFFF AND PUSH20 0xFFFFFFFFFFFFFFFFFFFFFFFFFFFFFFFFFFFFFFFF AND SUB PUSH2 0x7B8 JUMPI PUSH1 0x1 PUSH1 0x0 CALLER PUSH20 0xFFFFFFFFFFFFFFFFFFFFFFFFFFFFFFFFFFFFFFFF AND PUSH20 0xFFFFFFFFFFFFFFFFFFFFFFFFFFFFFFFFFFFFFFFF AND DUP2 MSTORE PUSH1 0x20 ADD SWAP1 DUP2 MSTORE PUSH1 0x20 ADD PUSH1 0x0 KECCAK256 SLOAD PUSH1 0x0 DUP3 DUP2 SLOAD DUP2 LT PUSH2 0x79A JUMPI PUSH2 0x799 PUSH2 0xCF1 JUMP JUMPDEST JUMPDEST SWAP1 PUSH1 0x0 MSTORE PUSH1 0x20 PUSH1 0x0 KECCAK256 SWAP1 PUSH1 0x2 MUL ADD PUSH1 0x1 ADD DUP2 SWAP1 SSTORE POP PUSH1 0x1 SWAP2 POP PUSH2 0x7C5 JUMP JUMPDEST DUP1 DUP1 PUSH1 0x1 ADD SWAP2 POP POP PUSH2 0x6C1 JUMP JUMPDEST POP DUP1 PUSH2 0x875 JUMPI PUSH1 0x0 PUSH1 0x40 MLOAD DUP1 PUSH1 0x40 ADD PUSH1 0x40 MSTORE DUP1 CALLER PUSH20 0xFFFFFFFFFFFFFFFFFFFFFFFFFFFFFFFFFFFFFFFF AND DUP2 MSTORE PUSH1 0x20 ADD CALLVALUE DUP2 MSTORE POP SWAP1 DUP1 PUSH1 0x1 DUP2 SLOAD ADD DUP1 DUP3 SSTORE DUP1 SWAP2 POP POP PUSH1 0x1 SWAP1 SUB SWAP1 PUSH1 0x0 MSTORE PUSH1 0x20 PUSH1 0x0 KECCAK256 SWAP1 PUSH1 0x2 MUL ADD PUSH1 0x0 SWAP1 SWAP2 SWAP1 SWAP2 SWAP1 SWAP2 POP PUSH1 0x0 DUP3 ADD MLOAD DUP2 PUSH1 0x0 ADD PUSH1 0x0 PUSH2 0x100 EXP DUP2 SLOAD DUP2 PUSH20 0xFFFFFFFFFFFFFFFFFFFFFFFFFFFFFFFFFFFFFFFF MUL NOT AND SWAP1 DUP4 PUSH20 0xFFFFFFFFFFFFFFFFFFFFFFFFFFFFFFFFFFFFFFFF AND MUL OR SWAP1 SSTORE POP PUSH1 0x20 DUP3 ADD MLOAD DUP2 PUSH1 0x1 ADD SSTORE POP POP JUMPDEST POP JUMP JUMPDEST PUSH1 0x0 DUP2 PUSH1 0x2 SLOAD LT ISZERO PUSH2 0x88D JUMPI PUSH1 0x0 SWAP1 POP PUSH2 0x892 JUMP JUMPDEST PUSH1 0x1 SWAP1 POP JUMPDEST SWAP2 SWAP1 POP JUMP JUMPDEST PUSH1 0x0 DUP2 SWAP1 POP SWAP2 SWAP1 POP JUMP JUMPDEST PUSH2 0x8AA DUP2 PUSH2 0x897 JUMP JUMPDEST DUP3 MSTORE POP POP JUMP JUMPDEST PUSH1 0x0 PUSH1 0x20 DUP3 ADD SWAP1 POP PUSH2 0x8C5 PUSH1 0x0 DUP4 ADD DUP5 PUSH2 0x8A1 JUMP JUMPDEST SWAP3 SWAP2 POP POP JUMP JUMPDEST PUSH1 0x0 DUP1 REVERT JUMPDEST PUSH1 0x0 PUSH20 0xFFFFFFFFFFFFFFFFFFFFFFFFFFFFFFFFFFFFFFFF DUP3 AND SWAP1 POP SWAP2 SWAP1 POP JUMP JUMPDEST PUSH1 0x0 PUSH2 0x8FB DUP3 PUSH2 0x8D0 JUMP JUMPDEST SWAP1 POP SWAP2 SWAP1 POP JUMP JUMPDEST PUSH2 0x90B DUP2 PUSH2 0x8F0 JUMP JUMPDEST DUP2 EQ PUSH2 0x916 JUMPI PUSH1 0x0 DUP1 REVERT JUMPDEST POP JUMP JUMPDEST PUSH1 0x0 DUP2 CALLDATALOAD SWAP1 POP PUSH2 0x928 DUP2 PUSH2 0x902 JUMP JUMPDEST SWAP3 SWAP2 POP POP JUMP JUMPDEST PUSH1 0x0 PUSH1 0x20 DUP3 DUP5 SUB SLT ISZERO PUSH2 0x944 JUMPI PUSH2 0x943 PUSH2 0x8CB JUMP JUMPDEST JUMPDEST PUSH1 0x0 PUSH2 0x952 DUP5 DUP3 DUP6 ADD PUSH2 0x919 JUMP JUMPDEST SWAP2 POP POP SWAP3 SWAP2 POP POP JUMP JUMPDEST PUSH2 0x964 DUP2 PUSH2 0x897 JUMP JUMPDEST DUP2 EQ PUSH2 0x96F JUMPI PUSH1 0x0 DUP1 REVERT JUMPDEST POP JUMP JUMPDEST PUSH1 0x0 DUP2 CALLDATALOAD SWAP1 POP PUSH2 0x981 DUP2 PUSH2 0x95B JUMP JUMPDEST SWAP3 SWAP2 POP POP JUMP JUMPDEST PUSH1 0x0 PUSH1 0x20 DUP3 DUP5 SUB SLT ISZERO PUSH2 0x99D JUMPI PUSH2 0x99C PUSH2 0x8CB JUMP JUMPDEST JUMPDEST PUSH1 0x0 PUSH2 0x9AB DUP5 DUP3 DUP6 ADD PUSH2 0x972 JUMP JUMPDEST SWAP2 POP POP SWAP3 SWAP2 POP POP JUMP JUMPDEST PUSH2 0x9BD DUP2 PUSH2 0x8F0 JUMP JUMPDEST DUP3 MSTORE POP POP JUMP JUMPDEST PUSH1 0x0 PUSH1 0x40 DUP3 ADD SWAP1 POP PUSH2 0x9D8 PUSH1 0x0 DUP4 ADD DUP6 PUSH2 0x9B4 JUMP JUMPDEST PUSH2 0x9E5 PUSH1 0x20 DUP4 ADD DUP5 PUSH2 0x8A1 JUMP JUMPDEST SWAP4 SWAP3 POP POP POP JUMP JUMPDEST PUSH1 0x0 PUSH1 0x20 DUP3 ADD SWAP1 POP PUSH2 0xA01 PUSH1 0x0 DUP4 ADD DUP5 PUSH2 0x9B4 JUMP JUMPDEST SWAP3 SWAP2 POP POP JUMP JUMPDEST PUSH1 0x0 DUP2 MLOAD SWAP1 POP SWAP2 SWAP1 POP JUMP JUMPDEST PUSH1 0x0 DUP3 DUP3 MSTORE PUSH1 0x20 DUP3 ADD SWAP1 POP SWAP3 SWAP2 POP POP JUMP JUMPDEST PUSH1 0x0 DUP2 SWAP1 POP PUSH1 0x20 DUP3 ADD SWAP1 POP SWAP2 SWAP1 POP JUMP JUMPDEST PUSH2 0xA3C DUP2 PUSH2 0x8F0 JUMP JUMPDEST DUP3 MSTORE POP POP JUMP JUMPDEST PUSH2 0xA4B DUP2 PUSH2 0x897 JUMP JUMPDEST DUP3 MSTORE POP POP JUMP JUMPDEST PUSH1 0x40 DUP3 ADD PUSH1 0x0 DUP3 ADD MLOAD PUSH2 0xA67 PUSH1 0x0 DUP6 ADD DUP3 PUSH2 0xA33 JUMP JUMPDEST POP PUSH1 0x20 DUP3 ADD MLOAD PUSH2 0xA7A PUSH1 0x20 DUP6 ADD DUP3 PUSH2 0xA42 JUMP JUMPDEST POP POP POP POP JUMP JUMPDEST PUSH1 0x0 PUSH2 0xA8C DUP4 DUP4 PUSH2 0xA51 JUMP JUMPDEST PUSH1 0x40 DUP4 ADD SWAP1 POP SWAP3 SWAP2 POP POP JUMP JUMPDEST PUSH1 0x0 PUSH1 0x20 DUP3 ADD SWAP1 POP SWAP2 SWAP1 POP JUMP JUMPDEST PUSH1 0x0 PUSH2 0xAB0 DUP3 PUSH2 0xA07 JUMP JUMPDEST PUSH2 0xABA DUP2 DUP6 PUSH2 0xA12 JUMP JUMPDEST SWAP4 POP PUSH2 0xAC5 DUP4 PUSH2 0xA23 JUMP JUMPDEST DUP1 PUSH1 0x0 JUMPDEST DUP4 DUP2 LT ISZERO PUSH2 0xAF6 JUMPI DUP2 MLOAD PUSH2 0xADD DUP9 DUP3 PUSH2 0xA80 JUMP JUMPDEST SWAP8 POP PUSH2 0xAE8 DUP4 PUSH2 0xA98 JUMP JUMPDEST SWAP3 POP POP PUSH1 0x1 DUP2 ADD SWAP1 POP PUSH2 0xAC9 JUMP JUMPDEST POP DUP6 SWAP4 POP POP POP POP SWAP3 SWAP2 POP POP JUMP JUMPDEST PUSH1 0x0 PUSH1 0x20 DUP3 ADD SWAP1 POP DUP2 DUP2 SUB PUSH1 0x0 DUP4 ADD MSTORE PUSH2 0xB1D DUP2 DUP5 PUSH2 0xAA5 JUMP JUMPDEST SWAP1 POP SWAP3 SWAP2 POP POP JUMP JUMPDEST PUSH1 0x0 DUP2 ISZERO ISZERO SWAP1 POP SWAP2 SWAP1 POP JUMP JUMPDEST PUSH2 0xB3A DUP2 PUSH2 0xB25 JUMP JUMPDEST DUP3 MSTORE POP POP JUMP JUMPDEST PUSH1 0x0 PUSH1 0x20 DUP3 ADD SWAP1 POP PUSH2 0xB55 PUSH1 0x0 DUP4 ADD DUP5 PUSH2 0xB31 JUMP JUMPDEST SWAP3 SWAP2 POP POP JUMP JUMPDEST PUSH1 0x0 DUP3 DUP3 MSTORE PUSH1 0x20 DUP3 ADD SWAP1 POP SWAP3 SWAP2 POP POP JUMP JUMPDEST PUSH32 0x4E6F2076616C696461746F727320617661696C61626C65000000000000000000 PUSH1 0x0 DUP3 ADD MSTORE POP JUMP JUMPDEST PUSH1 0x0 PUSH2 0xBA2 PUSH1 0x17 DUP4 PUSH2 0xB5B JUMP JUMPDEST SWAP2 POP PUSH2 0xBAD DUP3 PUSH2 0xB6C JUMP JUMPDEST PUSH1 0x20 DUP3 ADD SWAP1 POP SWAP2 SWAP1 POP JUMP JUMPDEST PUSH1 0x0 PUSH1 0x20 DUP3 ADD SWAP1 POP DUP2 DUP2 SUB PUSH1 0x0 DUP4 ADD MSTORE PUSH2 0xBD1 DUP2 PUSH2 0xB95 JUMP JUMPDEST SWAP1 POP SWAP2 SWAP1 POP JUMP JUMPDEST PUSH32 0x4E6F207374616B657320617661696C61626C6500000000000000000000000000 PUSH1 0x0 DUP3 ADD MSTORE POP JUMP JUMPDEST PUSH1 0x0 PUSH2 0xC0E PUSH1 0x13 DUP4 PUSH2 0xB5B JUMP JUMPDEST SWAP2 POP PUSH2 0xC19 DUP3 PUSH2 0xBD8 JUMP JUMPDEST PUSH1 0x20 DUP3 ADD SWAP1 POP SWAP2 SWAP1 POP JUMP JUMPDEST PUSH1 0x0 PUSH1 0x20 DUP3 ADD SWAP1 POP DUP2 DUP2 SUB PUSH1 0x0 DUP4 ADD MSTORE PUSH2 0xC3D DUP2 PUSH2 0xC01 JUMP JUMPDEST SWAP1 POP SWAP2 SWAP1 POP JUMP JUMPDEST PUSH1 0x0 DUP2 SWAP1 POP SWAP2 SWAP1 POP JUMP JUMPDEST PUSH2 0xC5F PUSH2 0xC5A DUP3 PUSH2 0x897 JUMP JUMPDEST PUSH2 0xC44 JUMP JUMPDEST DUP3 MSTORE POP POP JUMP JUMPDEST PUSH1 0x0 PUSH2 0xC71 DUP3 DUP6 PUSH2 0xC4E JUMP JUMPDEST PUSH1 0x20 DUP3 ADD SWAP2 POP PUSH2 0xC81 DUP3 DUP5 PUSH2 0xC4E JUMP JUMPDEST PUSH1 0x20 DUP3 ADD SWAP2 POP DUP2 SWAP1 POP SWAP4 SWAP3 POP POP POP JUMP JUMPDEST PUSH32 0x4E487B7100000000000000000000000000000000000000000000000000000000 PUSH1 0x0 MSTORE PUSH1 0x12 PUSH1 0x4 MSTORE PUSH1 0x24 PUSH1 0x0 REVERT JUMPDEST PUSH1 0x0 PUSH2 0xCCB DUP3 PUSH2 0x897 JUMP JUMPDEST SWAP2 POP PUSH2 0xCD6 DUP4 PUSH2 0x897 JUMP JUMPDEST SWAP3 POP DUP3 PUSH2 0xCE6 JUMPI PUSH2 0xCE5 PUSH2 0xC91 JUMP JUMPDEST JUMPDEST DUP3 DUP3 MOD SWAP1 POP SWAP3 SWAP2 POP POP JUMP JUMPDEST PUSH32 0x4E487B7100000000000000000000000000000000000000000000000000000000 PUSH1 0x0 MSTORE PUSH1 0x32 PUSH1 0x4 MSTORE PUSH1 0x24 PUSH1 0x0 REVERT JUMPDEST PUSH32 0x4E487B7100000000000000000000000000000000000000000000000000000000 PUSH1 0x0 MSTORE PUSH1 0x11 PUSH1 0x4 MSTORE PUSH1 0x24 PUSH1 0x0 REVERT JUMPDEST PUSH1 0x0 PUSH2 0xD5A DUP3 PUSH2 0x897 JUMP JUMPDEST SWAP2 POP PUSH2 0xD65 DUP4 PUSH2 0x897 JUMP JUMPDEST SWAP3 POP DUP3 DUP3 ADD SWAP1 POP DUP1 DUP3 GT ISZERO PUSH2 0xD7D JUMPI PUSH2 0xD7C PUSH2 0xD20 JUMP JUMPDEST JUMPDEST SWAP3 SWAP2 POP POP JUMP JUMPDEST PUSH1 0x0 DUP2 SWAP1 POP SWAP2 SWAP1 POP JUMP JUMPDEST PUSH1 0x0 DUP2 SWAP1 POP SWAP2 SWAP1 POP JUMP JUMPDEST PUSH1 0x0 PUSH2 0xDB2 PUSH2 0xDAD PUSH2 0xDA8 DUP5 PUSH2 0xD83 JUMP JUMPDEST PUSH2 0xD8D JUMP JUMPDEST PUSH2 0x897 JUMP JUMPDEST SWAP1 POP SWAP2 SWAP1 POP JUMP JUMPDEST PUSH2 0xDC2 DUP2 PUSH2 0xD97 JUMP JUMPDEST DUP3 MSTORE POP POP JUMP JUMPDEST PUSH1 0x0 PUSH1 0x20 DUP3 ADD SWAP1 POP PUSH2 0xDDD PUSH1 0x0 DUP4 ADD DUP5 PUSH2 0xDB9 JUMP JUMPDEST SWAP3 SWAP2 POP POP JUMP JUMPDEST PUSH32 0x56616C696461746F722073656C656374696F6E206661696C6564000000000000 PUSH1 0x0 DUP3 ADD MSTORE POP JUMP JUMPDEST PUSH1 0x0 PUSH2 0xE19 PUSH1 0x1A DUP4 PUSH2 0xB5B JUMP JUMPDEST SWAP2 POP PUSH2 0xE24 DUP3 PUSH2 0xDE3 JUMP JUMPDEST PUSH1 0x20 DUP3 ADD SWAP1 POP SWAP2 SWAP1 POP JUMP JUMPDEST PUSH1 0x0 PUSH1 0x20 DUP3 ADD SWAP1 POP DUP2 DUP2 SUB PUSH1 0x0 DUP4 ADD MSTORE PUSH2 0xE48 DUP2 PUSH2 0xE0C JUMP JUMPDEST SWAP1 POP SWAP2 SWAP1 POP JUMP JUMPDEST PUSH32 0x4D757374207374616B65206120706F73697469766520616D6F756E7400000000 PUSH1 0x0 DUP3 ADD MSTORE POP JUMP JUMPDEST PUSH1 0x0 PUSH2 0xE85 PUSH1 0x1C DUP4 PUSH2 0xB5B JUMP JUMPDEST SWAP2 POP PUSH2 0xE90 DUP3 PUSH2 0xE4F JUMP JUMPDEST PUSH1 0x20 DUP3 ADD SWAP1 POP SWAP2 SWAP1 POP JUMP JUMPDEST PUSH1 0x0 PUSH1 0x20 DUP3 ADD SWAP1 POP DUP2 DUP2 SUB PUSH1 0x0 DUP4 ADD MSTORE PUSH2 0xEB4 DUP2 PUSH2 0xE78 JUMP JUMPDEST SWAP1 POP SWAP2 SWAP1 POP JUMP INVALID LOG2 PUSH5 0x6970667358 0x22 SLT KECCAK256 PUSH19 0x1F23370E68EC544E37740F90747C2CBEF7C5D9 0xC9 SIGNEXTEND DUP6 SELFDESTRUCT CREATE2 LT PUSH24 0x2BB3D09CCC64736F6C634300081A00330000000000000000 "
				},
				"gasEstimates": {
					"creation": {
						"codeDepositCost": "765000",
						"executionCost": "799",
						"totalCost": "765799"
					},
					"external": {
						"getTotalStaked()": "2438",
						"getValidators()": "infinite",
						"handleLowStakes(uint256)": "2811",
						"selectValidator()": "infinite",
						"stakeTokens()": "infinite",
						"stakes(address)": "2837",
						"totalStaked()": "2496",
						"validators(uint256)": "infinite"
					}
				},
				"methodIdentifiers": {
					"getTotalStaked()": "0917e776",
					"getValidators()": "b7ab4db5",
					"handleLowStakes(uint256)": "f0fc9abe",
					"selectValidator()": "8bd64852",
					"stakeTokens()": "ce46643b",
					"stakes(address)": "16934fc4",
					"totalStaked()": "817b1cd2",
					"validators(uint256)": "35aa2e44"
				}
			},
			"storageLayout": {
				"storage": [
					{
						"astId": 10,
						"contract": "ProofOfStake.sol:ProofOfStake",
						"label": "validators",
						"offset": 0,
						"slot": "0",
						"type": "t_array(t_struct(Validator)6_storage)dyn_storage"
					},
					{
						"astId": 14,
						"contract": "ProofOfStake.sol:ProofOfStake",
						"label": "stakes",
						"offset": 0,
						"slot": "1",
						"type": "t_mapping(t_address,t_uint256)"
					},
					{
						"astId": 16,
						"contract": "ProofOfStake.sol:ProofOfStake",
						"label": "totalStaked",
						"offset": 0,
						"slot": "2",
						"type": "t_uint256"
					}
				],
				"types": {
					"t_address": {
						"encoding": "inplace",
						"label": "address",
						"numberOfBytes": "20"
					},
					"t_array(t_struct(Validator)6_storage)dyn_storage": {
						"base": "t_struct(Validator)6_storage",
						"encoding": "dynamic_array",
						"label": "struct ProofOfStake.Validator[]",
						"numberOfBytes": "32"
					},
					"t_mapping(t_address,t_uint256)": {
						"encoding": "mapping",
						"key": "t_address",
						"label": "mapping(address => uint256)",
						"numberOfBytes": "32",
						"value": "t_uint256"
					},
					"t_struct(Validator)6_storage": {
						"encoding": "inplace",
						"label": "struct ProofOfStake.Validator",
						"members": [
							{
								"astId": 3,
								"contract": "ProofOfStake.sol:ProofOfStake",
								"label": "validatorAddress",
								"offset": 0,
								"slot": "0",
								"type": "t_address"
							},
							{
								"astId": 5,
								"contract": "ProofOfStake.sol:ProofOfStake",
								"label": "stake",
								"offset": 0,
								"slot": "1",
								"type": "t_uint256"
							}
						],
						"numberOfBytes": "64"
					},
					"t_uint256": {
						"encoding": "inplace",
						"label": "uint256",
						"numberOfBytes": "32"
					}
				}
			},
			"userdoc": {
				"kind": "user",
				"methods": {},
				"version": 1
			}
		}
	}
}