{
	"ProofOfWorkMetrics.sol": {
		"ProofOfWorkMetrics": {
			"abi": [
				{
					"inputs": [],
					"stateMutability": "nonpayable",
					"type": "constructor"
				},
				{
					"anonymous": false,
					"inputs": [
						{
							"indexed": false,
							"internalType": "string",
							"name": "message",
							"type": "string"
						},
						{
							"indexed": true,
							"internalType": "address",
							"name": "miner",
							"type": "address"
						}
					],
					"name": "SolutionReverted",
					"type": "event"
				},
				{
					"anonymous": false,
					"inputs": [
						{
							"indexed": true,
							"internalType": "address",
							"name": "miner",
							"type": "address"
						},
						{
							"indexed": false,
							"internalType": "bytes32",
							"name": "solution",
							"type": "bytes32"
						},
						{
							"indexed": false,
							"internalType": "uint256",
							"name": "timestamp",
							"type": "uint256"
						}
					],
					"name": "SolutionSubmitted",
					"type": "event"
				},
				{
					"inputs": [],
					"name": "difficulty",
					"outputs": [
						{
							"internalType": "uint256",
							"name": "",
							"type": "uint256"
						}
					],
					"stateMutability": "view",
					"type": "function"
				},
				{
					"inputs": [],
					"name": "getMetrics",
					"outputs": [
						{
							"internalType": "uint256",
							"name": "",
							"type": "uint256"
						},
						{
							"internalType": "uint256",
							"name": "",
							"type": "uint256"
						},
						{
							"internalType": "uint256",
							"name": "",
							"type": "uint256"
						}
					],
					"stateMutability": "view",
					"type": "function"
				},
				{
					"inputs": [],
					"name": "getMiners",
					"outputs": [
						{
							"components": [
								{
									"internalType": "address",
									"name": "minerAddress",
									"type": "address"
								},
								{
									"internalType": "uint256",
									"name": "reward",
									"type": "uint256"
								}
							],
							"internalType": "struct ProofOfWorkMetrics.Miner[]",
							"name": "",
							"type": "tuple[]"
						}
					],
					"stateMutability": "view",
					"type": "function"
				},
				{
					"inputs": [
						{
							"internalType": "address",
							"name": "",
							"type": "address"
						}
					],
					"name": "hasSubmitted",
					"outputs": [
						{
							"internalType": "bool",
							"name": "",
							"type": "bool"
						}
					],
					"stateMutability": "view",
					"type": "function"
				},
				{
					"inputs": [],
					"name": "lastSolutionTime",
					"outputs": [
						{
							"internalType": "uint256",
							"name": "",
							"type": "uint256"
						}
					],
					"stateMutability": "view",
					"type": "function"
				},
				{
					"inputs": [
						{
							"internalType": "uint256",
							"name": "",
							"type": "uint256"
						}
					],
					"name": "miners",
					"outputs": [
						{
							"internalType": "address",
							"name": "minerAddress",
							"type": "address"
						},
						{
							"internalType": "uint256",
							"name": "reward",
							"type": "uint256"
						}
					],
					"stateMutability": "view",
					"type": "function"
				},
				{
					"inputs": [],
					"name": "rewardPool",
					"outputs": [
						{
							"internalType": "uint256",
							"name": "",
							"type": "uint256"
						}
					],
					"stateMutability": "view",
					"type": "function"
				},
				{
					"inputs": [],
					"name": "solutionCount",
					"outputs": [
						{
							"internalType": "uint256",
							"name": "",
							"type": "uint256"
						}
					],
					"stateMutability": "view",
					"type": "function"
				},
				{
					"inputs": [],
					"name": "solutionRate",
					"outputs": [
						{
							"internalType": "uint256",
							"name": "",
							"type": "uint256"
						}
					],
					"stateMutability": "view",
					"type": "function"
				},
				{
					"inputs": [
						{
							"internalType": "bytes32",
							"name": "solution",
							"type": "bytes32"
						}
					],
					"name": "submitSolution",
					"outputs": [],
					"stateMutability": "nonpayable",
					"type": "function"
				},
				{
					"inputs": [],
					"name": "targetHash",
					"outputs": [
						{
							"internalType": "bytes32",
							"name": "",
							"type": "bytes32"
						}
					],
					"stateMutability": "view",
					"type": "function"
				},
				{
					"inputs": [],
					"name": "trackingStartTime",
					"outputs": [
						{
							"internalType": "uint256",
							"name": "",
							"type": "uint256"
						}
					],
					"stateMutability": "view",
					"type": "function"
				}
			],
			"devdoc": {
				"kind": "dev",
				"methods": {},
				"version": 1
			},
			"evm": {
				"assembly": "    /* \"ProofOfWorkMetrics.sol\":60:3186  contract ProofOfWorkMetrics {... */\n  mstore(0x40, 0x80)\n    /* \"ProofOfWorkMetrics.sol\":752:1079  constructor() {... */\n  callvalue\n  dup1\n  iszero\n  tag_1\n  jumpi\n  0x00\n  dup1\n  revert\ntag_1:\n  pop\n    /* \"ProofOfWorkMetrics.sol\":855:889  abi.encodePacked(\"initial_target\") */\n  add(0x20, mload(0x40))\n  tag_4\n  swap1\n  tag_5\n  jump\t// in\ntag_4:\n  mload(0x40)\n  0x20\n  dup2\n  dup4\n  sub\n  sub\n  dup2\n  mstore\n  swap1\n  0x40\n  mstore\n    /* \"ProofOfWorkMetrics.sol\":845:890  keccak256(abi.encodePacked(\"initial_target\")) */\n  dup1\n  mload\n  swap1\n  0x20\n  add\n  keccak256\n    /* \"ProofOfWorkMetrics.sol\":832:842  targetHash */\n  0x01\n    /* \"ProofOfWorkMetrics.sol\":832:890  targetHash = keccak256(abi.encodePacked(\"initial_target\")) */\n  dup2\n  swap1\n  sstore\n  pop\n    /* \"ProofOfWorkMetrics.sol\":914:921  1000000 */\n  0x0f4240\n    /* \"ProofOfWorkMetrics.sol\":901:911  rewardPool */\n  0x02\n    /* \"ProofOfWorkMetrics.sol\":901:921  rewardPool = 1000000 */\n  dup2\n  swap1\n  sstore\n  pop\n    /* \"ProofOfWorkMetrics.sol\":945:946  2 */\n  0x02\n    /* \"ProofOfWorkMetrics.sol\":932:942  difficulty */\n  0x03\n    /* \"ProofOfWorkMetrics.sol\":932:946  difficulty = 2 */\n  dup2\n  swap1\n  sstore\n  pop\n    /* \"ProofOfWorkMetrics.sol\":976:991  block.timestamp */\n  timestamp\n    /* \"ProofOfWorkMetrics.sol\":957:973  lastSolutionTime */\n  0x04\n    /* \"ProofOfWorkMetrics.sol\":957:991  lastSolutionTime = block.timestamp */\n  dup2\n  swap1\n  sstore\n  pop\n    /* \"ProofOfWorkMetrics.sol\":1056:1071  block.timestamp */\n  timestamp\n    /* \"ProofOfWorkMetrics.sol\":1036:1053  trackingStartTime */\n  0x06\n    /* \"ProofOfWorkMetrics.sol\":1036:1071  trackingStartTime = block.timestamp */\n  dup2\n  swap1\n  sstore\n  pop\n    /* \"ProofOfWorkMetrics.sol\":60:3186  contract ProofOfWorkMetrics {... */\n  jump(tag_6)\n    /* \"#utility.yul\":7:155   */\ntag_7:\n    /* \"#utility.yul\":109:120   */\n  0x00\n    /* \"#utility.yul\":146:149   */\n  dup2\n    /* \"#utility.yul\":131:149   */\n  swap1\n  pop\n    /* \"#utility.yul\":7:155   */\n  swap3\n  swap2\n  pop\n  pop\n  jump\t// out\n    /* \"#utility.yul\":161:325   */\ntag_8:\n    /* \"#utility.yul\":301:317   */\n  0x696e697469616c5f746172676574000000000000000000000000000000000000\n    /* \"#utility.yul\":297:298   */\n  0x00\n    /* \"#utility.yul\":289:295   */\n  dup3\n    /* \"#utility.yul\":285:299   */\n  add\n    /* \"#utility.yul\":278:318   */\n  mstore\n    /* \"#utility.yul\":161:325   */\n  pop\n  jump\t// out\n    /* \"#utility.yul\":331:733   */\ntag_9:\n    /* \"#utility.yul\":491:494   */\n  0x00\n    /* \"#utility.yul\":512:597   */\n  tag_14\n    /* \"#utility.yul\":594:596   */\n  0x0e\n    /* \"#utility.yul\":589:592   */\n  dup4\n    /* \"#utility.yul\":512:597   */\n  tag_7\n  jump\t// in\ntag_14:\n    /* \"#utility.yul\":505:597   */\n  swap2\n  pop\n    /* \"#utility.yul\":606:699   */\n  tag_15\n    /* \"#utility.yul\":695:698   */\n  dup3\n    /* \"#utility.yul\":606:699   */\n  tag_8\n  jump\t// in\ntag_15:\n    /* \"#utility.yul\":724:726   */\n  0x0e\n    /* \"#utility.yul\":719:722   */\n  dup3\n    /* \"#utility.yul\":715:727   */\n  add\n    /* \"#utility.yul\":708:727   */\n  swap1\n  pop\n    /* \"#utility.yul\":331:733   */\n  swap2\n  swap1\n  pop\n  jump\t// out\n    /* \"#utility.yul\":739:1120   */\ntag_5:\n    /* \"#utility.yul\":924:927   */\n  0x00\n    /* \"#utility.yul\":946:1094   */\n  tag_17\n    /* \"#utility.yul\":1090:1093   */\n  dup3\n    /* \"#utility.yul\":946:1094   */\n  tag_9\n  jump\t// in\ntag_17:\n    /* \"#utility.yul\":939:1094   */\n  swap2\n  pop\n    /* \"#utility.yul\":1111:1114   */\n  dup2\n    /* \"#utility.yul\":1104:1114   */\n  swap1\n  pop\n    /* \"#utility.yul\":739:1120   */\n  swap2\n  swap1\n  pop\n  jump\t// out\n    /* \"ProofOfWorkMetrics.sol\":60:3186  contract ProofOfWorkMetrics {... */\ntag_6:\n  dataSize(sub_0)\n  dup1\n  dataOffset(sub_0)\n  0x00\n  codecopy\n  0x00\n  return\nstop\n\nsub_0: assembly {\n        /* \"ProofOfWorkMetrics.sol\":60:3186  contract ProofOfWorkMetrics {... */\n      mstore(0x40, 0x80)\n      callvalue\n      dup1\n      iszero\n      tag_1\n      jumpi\n      0x00\n      dup1\n      revert\n    tag_1:\n      pop\n      jumpi(tag_2, lt(calldatasize, 0x04))\n      shr(0xe0, calldataload(0x00))\n      dup1\n      0x7606f781\n      gt\n      tag_15\n      jumpi\n      dup1\n      0x7606f781\n      eq\n      tag_9\n      jumpi\n      dup1\n      0x8b6bdd2a\n      eq\n      tag_10\n      jumpi\n      dup1\n      0xbd306cb0\n      eq\n      tag_11\n      jumpi\n      dup1\n      0xdc1743fa\n      eq\n      tag_12\n      jumpi\n      dup1\n      0xe0d152af\n      eq\n      tag_13\n      jumpi\n      dup1\n      0xfb840a2a\n      eq\n      tag_14\n      jumpi\n      jump(tag_2)\n    tag_15:\n      dup1\n      0x1633da6e\n      eq\n      tag_3\n      jumpi\n      dup1\n      0x19cae462\n      eq\n      tag_4\n      jumpi\n      dup1\n      0x31d0f968\n      eq\n      tag_5\n      jumpi\n      dup1\n      0x388044b3\n      eq\n      tag_6\n      jumpi\n      dup1\n      0x66666aa9\n      eq\n      tag_7\n      jumpi\n      dup1\n      0x6b3e219b\n      eq\n      tag_8\n      jumpi\n    tag_2:\n      0x00\n      dup1\n      revert\n        /* \"ProofOfWorkMetrics.sol\":3093:3183  function getMiners() public view returns (Miner[] memory) {... */\n    tag_3:\n      tag_16\n      tag_17\n      jump\t// in\n    tag_16:\n      mload(0x40)\n      tag_18\n      swap2\n      swap1\n      tag_19\n      jump\t// in\n    tag_18:\n      mload(0x40)\n      dup1\n      swap2\n      sub\n      swap1\n      return\n        /* \"ProofOfWorkMetrics.sol\":266:288  uint public difficulty */\n    tag_4:\n      tag_20\n      tag_21\n      jump\t// in\n    tag_20:\n      mload(0x40)\n      tag_22\n      swap2\n      swap1\n      tag_23\n      jump\t// in\n    tag_22:\n      mload(0x40)\n      dup1\n      swap2\n      sub\n      swap1\n      return\n        /* \"ProofOfWorkMetrics.sol\":205:230  bytes32 public targetHash */\n    tag_5:\n      tag_24\n      tag_25\n      jump\t// in\n    tag_24:\n      mload(0x40)\n      tag_26\n      swap2\n      swap1\n      tag_27\n      jump\t// in\n    tag_26:\n      mload(0x40)\n      dup1\n      swap2\n      sub\n      swap1\n      return\n        /* \"ProofOfWorkMetrics.sol\":1087:1131  mapping(address => bool) public hasSubmitted */\n    tag_6:\n      tag_28\n      0x04\n      dup1\n      calldatasize\n      sub\n      dup2\n      add\n      swap1\n      tag_29\n      swap2\n      swap1\n      tag_30\n      jump\t// in\n    tag_29:\n      tag_31\n      jump\t// in\n    tag_28:\n      mload(0x40)\n      tag_32\n      swap2\n      swap1\n      tag_33\n      jump\t// in\n    tag_32:\n      mload(0x40)\n      dup1\n      swap2\n      sub\n      swap1\n      return\n        /* \"ProofOfWorkMetrics.sol\":237:259  uint public rewardPool */\n    tag_7:\n      tag_34\n      tag_35\n      jump\t// in\n    tag_34:\n      mload(0x40)\n      tag_36\n      swap2\n      swap1\n      tag_23\n      jump\t// in\n    tag_36:\n      mload(0x40)\n      dup1\n      swap2\n      sub\n      swap1\n      return\n        /* \"ProofOfWorkMetrics.sol\":384:409  uint public solutionCount */\n    tag_8:\n      tag_37\n      tag_38\n      jump\t// in\n    tag_37:\n      mload(0x40)\n      tag_39\n      swap2\n      swap1\n      tag_23\n      jump\t// in\n    tag_39:\n      mload(0x40)\n      dup1\n      swap2\n      sub\n      swap1\n      return\n        /* \"ProofOfWorkMetrics.sol\":2908:3036  function getMetrics() public view returns (uint, uint, uint) {... */\n    tag_9:\n      tag_40\n      tag_41\n      jump\t// in\n    tag_40:\n      mload(0x40)\n      tag_42\n      swap4\n      swap3\n      swap2\n      swap1\n      tag_43\n      jump\t// in\n    tag_42:\n      mload(0x40)\n      dup1\n      swap2\n      sub\n      swap1\n      return\n        /* \"ProofOfWorkMetrics.sol\":445:474  uint public trackingStartTime */\n    tag_10:\n      tag_44\n      tag_45\n      jump\t// in\n    tag_44:\n      mload(0x40)\n      tag_46\n      swap2\n      swap1\n      tag_23\n      jump\t// in\n    tag_46:\n      mload(0x40)\n      dup1\n      swap2\n      sub\n      swap1\n      return\n        /* \"ProofOfWorkMetrics.sol\":315:343  uint public lastSolutionTime */\n    tag_11:\n      tag_47\n      tag_48\n      jump\t// in\n    tag_47:\n      mload(0x40)\n      tag_49\n      swap2\n      swap1\n      tag_23\n      jump\t// in\n    tag_49:\n      mload(0x40)\n      dup1\n      swap2\n      sub\n      swap1\n      return\n        /* \"ProofOfWorkMetrics.sol\":1166:2215  function submitSolution(bytes32 solution) public {... */\n    tag_12:\n      tag_50\n      0x04\n      dup1\n      calldatasize\n      sub\n      dup2\n      add\n      swap1\n      tag_51\n      swap2\n      swap1\n      tag_52\n      jump\t// in\n    tag_51:\n      tag_53\n      jump\t// in\n    tag_50:\n      stop\n        /* \"ProofOfWorkMetrics.sol\":177:198  Miner[] public miners */\n    tag_13:\n      tag_54\n      0x04\n      dup1\n      calldatasize\n      sub\n      dup2\n      add\n      swap1\n      tag_55\n      swap2\n      swap1\n      tag_56\n      jump\t// in\n    tag_55:\n      tag_57\n      jump\t// in\n    tag_54:\n      mload(0x40)\n      tag_58\n      swap3\n      swap2\n      swap1\n      tag_59\n      jump\t// in\n    tag_58:\n      mload(0x40)\n      dup1\n      swap2\n      sub\n      swap1\n      return\n        /* \"ProofOfWorkMetrics.sol\":512:536  uint public solutionRate */\n    tag_14:\n      tag_60\n      tag_61\n      jump\t// in\n    tag_60:\n      mload(0x40)\n      tag_62\n      swap2\n      swap1\n      tag_23\n      jump\t// in\n    tag_62:\n      mload(0x40)\n      dup1\n      swap2\n      sub\n      swap1\n      return\n        /* \"ProofOfWorkMetrics.sol\":3093:3183  function getMiners() public view returns (Miner[] memory) {... */\n    tag_17:\n        /* \"ProofOfWorkMetrics.sol\":3135:3149  Miner[] memory */\n      0x60\n        /* \"ProofOfWorkMetrics.sol\":3169:3175  miners */\n      0x00\n        /* \"ProofOfWorkMetrics.sol\":3162:3175  return miners */\n      dup1\n      sload\n      dup1\n      0x20\n      mul\n      0x20\n      add\n      mload(0x40)\n      swap1\n      dup2\n      add\n      0x40\n      mstore\n      dup1\n      swap3\n      swap2\n      swap1\n      dup2\n      dup2\n      mstore\n      0x20\n      add\n      0x00\n      swap1\n    tag_64:\n      dup3\n      dup3\n      lt\n      iszero\n      tag_65\n      jumpi\n      dup4\n      dup3\n      swap1\n      0x00\n      mstore\n      keccak256(0x00, 0x20)\n      swap1\n      0x02\n      mul\n      add\n      mload(0x40)\n      dup1\n      0x40\n      add\n      0x40\n      mstore\n      swap1\n      dup2\n      0x00\n      dup3\n      add\n      0x00\n      swap1\n      sload\n      swap1\n      0x0100\n      exp\n      swap1\n      div\n      0xffffffffffffffffffffffffffffffffffffffff\n      and\n      0xffffffffffffffffffffffffffffffffffffffff\n      and\n      0xffffffffffffffffffffffffffffffffffffffff\n      and\n      dup2\n      mstore\n      0x20\n      add\n      0x01\n      dup3\n      add\n      sload\n      dup2\n      mstore\n      pop\n      pop\n      dup2\n      mstore\n      0x20\n      add\n      swap1\n      0x01\n      add\n      swap1\n      jump(tag_64)\n    tag_65:\n      pop\n      pop\n      pop\n      pop\n      swap1\n      pop\n        /* \"ProofOfWorkMetrics.sol\":3093:3183  function getMiners() public view returns (Miner[] memory) {... */\n      swap1\n      jump\t// out\n        /* \"ProofOfWorkMetrics.sol\":266:288  uint public difficulty */\n    tag_21:\n      sload(0x03)\n      dup2\n      jump\t// out\n        /* \"ProofOfWorkMetrics.sol\":205:230  bytes32 public targetHash */\n    tag_25:\n      sload(0x01)\n      dup2\n      jump\t// out\n        /* \"ProofOfWorkMetrics.sol\":1087:1131  mapping(address => bool) public hasSubmitted */\n    tag_31:\n      mstore(0x20, 0x08)\n      dup1\n      0x00\n      mstore\n      keccak256(0x00, 0x40)\n      0x00\n      swap2\n      pop\n      sload\n      swap1\n      0x0100\n      exp\n      swap1\n      div\n      0xff\n      and\n      dup2\n      jump\t// out\n        /* \"ProofOfWorkMetrics.sol\":237:259  uint public rewardPool */\n    tag_35:\n      sload(0x02)\n      dup2\n      jump\t// out\n        /* \"ProofOfWorkMetrics.sol\":384:409  uint public solutionCount */\n    tag_38:\n      sload(0x05)\n      dup2\n      jump\t// out\n        /* \"ProofOfWorkMetrics.sol\":2908:3036  function getMetrics() public view returns (uint, uint, uint) {... */\n    tag_41:\n        /* \"ProofOfWorkMetrics.sol\":2951:2955  uint */\n      0x00\n        /* \"ProofOfWorkMetrics.sol\":2957:2961  uint */\n      dup1\n        /* \"ProofOfWorkMetrics.sol\":2963:2967  uint */\n      0x00\n        /* \"ProofOfWorkMetrics.sol\":2988:3001  solutionCount */\n      sload(0x05)\n        /* \"ProofOfWorkMetrics.sol\":3003:3015  solutionRate */\n      sload(0x07)\n        /* \"ProofOfWorkMetrics.sol\":3017:3027  difficulty */\n      sload(0x03)\n        /* \"ProofOfWorkMetrics.sol\":2980:3028  return (solutionCount, solutionRate, difficulty) */\n      swap3\n      pop\n      swap3\n      pop\n      swap3\n      pop\n        /* \"ProofOfWorkMetrics.sol\":2908:3036  function getMetrics() public view returns (uint, uint, uint) {... */\n      swap1\n      swap2\n      swap3\n      jump\t// out\n        /* \"ProofOfWorkMetrics.sol\":445:474  uint public trackingStartTime */\n    tag_45:\n      sload(0x06)\n      dup2\n      jump\t// out\n        /* \"ProofOfWorkMetrics.sol\":315:343  uint public lastSolutionTime */\n    tag_48:\n      sload(0x04)\n      dup2\n      jump\t// out\n        /* \"ProofOfWorkMetrics.sol\":1166:2215  function submitSolution(bytes32 solution) public {... */\n    tag_53:\n        /* \"ProofOfWorkMetrics.sol\":1247:1248  0 */\n      0x00\n        /* \"ProofOfWorkMetrics.sol\":1234:1244  rewardPool */\n      sload(0x02)\n        /* \"ProofOfWorkMetrics.sol\":1234:1248  rewardPool > 0 */\n      gt\n        /* \"ProofOfWorkMetrics.sol\":1226:1268  require(rewardPool > 0, \"No rewards left\") */\n      tag_69\n      jumpi\n      mload(0x40)\n      0x08c379a000000000000000000000000000000000000000000000000000000000\n      dup2\n      mstore\n      0x04\n      add\n      tag_70\n      swap1\n      tag_71\n      jump\t// in\n    tag_70:\n      mload(0x40)\n      dup1\n      swap2\n      sub\n      swap1\n      revert\n    tag_69:\n        /* \"ProofOfWorkMetrics.sol\":1420:1433  solutionCount */\n      0x05\n      0x00\n        /* \"ProofOfWorkMetrics.sol\":1420:1435  solutionCount++ */\n      dup2\n      sload\n      dup1\n      swap3\n      swap2\n      swap1\n      tag_72\n      swap1\n      tag_73\n      jump\t// in\n    tag_72:\n      swap2\n      swap1\n      pop\n      sstore\n      pop\n        /* \"ProofOfWorkMetrics.sol\":1509:1519  targetHash */\n      sload(0x01)\n        /* \"ProofOfWorkMetrics.sol\":1497:1505  solution */\n      dup2\n        /* \"ProofOfWorkMetrics.sol\":1497:1519  solution == targetHash */\n      sub\n        /* \"ProofOfWorkMetrics.sol\":1493:2208  if (solution == targetHash) {... */\n      tag_74\n      jumpi\n        /* \"ProofOfWorkMetrics.sol\":1536:1557  Miner memory newMiner */\n      0x00\n        /* \"ProofOfWorkMetrics.sol\":1560:1581  Miner(msg.sender, 10) */\n      mload(0x40)\n      dup1\n      0x40\n      add\n      0x40\n      mstore\n      dup1\n        /* \"ProofOfWorkMetrics.sol\":1566:1576  msg.sender */\n      caller\n        /* \"ProofOfWorkMetrics.sol\":1560:1581  Miner(msg.sender, 10) */\n      0xffffffffffffffffffffffffffffffffffffffff\n      and\n      dup2\n      mstore\n      0x20\n      add\n        /* \"ProofOfWorkMetrics.sol\":1578:1580  10 */\n      0x0a\n        /* \"ProofOfWorkMetrics.sol\":1560:1581  Miner(msg.sender, 10) */\n      dup2\n      mstore\n      pop\n        /* \"ProofOfWorkMetrics.sol\":1536:1581  Miner memory newMiner = Miner(msg.sender, 10) */\n      swap1\n      pop\n        /* \"ProofOfWorkMetrics.sol\":1596:1602  miners */\n      0x00\n        /* \"ProofOfWorkMetrics.sol\":1608:1616  newMiner */\n      dup2\n        /* \"ProofOfWorkMetrics.sol\":1596:1617  miners.push(newMiner) */\n      swap1\n      dup1\n      0x01\n      dup2\n      sload\n      add\n      dup1\n      dup3\n      sstore\n      dup1\n      swap2\n      pop\n      pop\n      0x01\n      swap1\n      sub\n      swap1\n      0x00\n      mstore\n      keccak256(0x00, 0x20)\n      swap1\n      0x02\n      mul\n      add\n      0x00\n      swap1\n      swap2\n      swap1\n      swap2\n      swap1\n      swap2\n      pop\n      0x00\n      dup3\n      add\n      mload\n      dup2\n      0x00\n      add\n      exp(0x0100, 0x00)\n      dup2\n      sload\n      dup2\n      0xffffffffffffffffffffffffffffffffffffffff\n      mul\n      not\n      and\n      swap1\n      dup4\n      0xffffffffffffffffffffffffffffffffffffffff\n      and\n      mul\n      or\n      swap1\n      sstore\n      pop\n      0x20\n      dup3\n      add\n      mload\n      dup2\n      0x01\n      add\n      sstore\n      pop\n      pop\n        /* \"ProofOfWorkMetrics.sol\":1646:1648  10 */\n      0x0a\n        /* \"ProofOfWorkMetrics.sol\":1632:1642  rewardPool */\n      0x02\n      0x00\n        /* \"ProofOfWorkMetrics.sol\":1632:1648  rewardPool -= 10 */\n      dup3\n      dup3\n      sload\n      tag_76\n      swap2\n      swap1\n      tag_77\n      jump\t// in\n    tag_76:\n      swap3\n      pop\n      pop\n      dup2\n      swap1\n      sstore\n      pop\n        /* \"ProofOfWorkMetrics.sol\":1760:1778  adjustDifficulty() */\n      tag_78\n        /* \"ProofOfWorkMetrics.sol\":1760:1776  adjustDifficulty */\n      tag_79\n        /* \"ProofOfWorkMetrics.sol\":1760:1778  adjustDifficulty() */\n      jump\t// in\n    tag_78:\n        /* \"ProofOfWorkMetrics.sol\":1876:1891  block.timestamp */\n      timestamp\n        /* \"ProofOfWorkMetrics.sol\":1893:1909  block.difficulty */\n      difficulty\n        /* \"ProofOfWorkMetrics.sol\":1859:1910  abi.encodePacked(block.timestamp, block.difficulty) */\n      add(0x20, mload(0x40))\n      tag_80\n      swap3\n      swap2\n      swap1\n      tag_81\n      jump\t// in\n    tag_80:\n      mload(0x40)\n      0x20\n      dup2\n      dup4\n      sub\n      sub\n      dup2\n      mstore\n      swap1\n      0x40\n      mstore\n        /* \"ProofOfWorkMetrics.sol\":1849:1911  keccak256(abi.encodePacked(block.timestamp, block.difficulty)) */\n      dup1\n      mload\n      swap1\n      0x20\n      add\n      keccak256\n        /* \"ProofOfWorkMetrics.sol\":1836:1846  targetHash */\n      0x01\n        /* \"ProofOfWorkMetrics.sol\":1836:1911  targetHash = keccak256(abi.encodePacked(block.timestamp, block.difficulty)) */\n      dup2\n      swap1\n      sstore\n      pop\n        /* \"ProofOfWorkMetrics.sol\":1959:1974  updateMetrics() */\n      tag_82\n        /* \"ProofOfWorkMetrics.sol\":1959:1972  updateMetrics */\n      tag_83\n        /* \"ProofOfWorkMetrics.sol\":1959:1974  updateMetrics() */\n      jump\t// in\n    tag_82:\n        /* \"ProofOfWorkMetrics.sol\":2014:2024  msg.sender */\n      caller\n        /* \"ProofOfWorkMetrics.sol\":1996:2052  SolutionSubmitted(msg.sender, solution, block.timestamp) */\n      0xffffffffffffffffffffffffffffffffffffffff\n      and\n      0xab19a5163cf8d1ca4242232d8d6cff6df486ebc906f243610dfbfaad10e8c237\n        /* \"ProofOfWorkMetrics.sol\":2026:2034  solution */\n      dup4\n        /* \"ProofOfWorkMetrics.sol\":2036:2051  block.timestamp */\n      timestamp\n        /* \"ProofOfWorkMetrics.sol\":1996:2052  SolutionSubmitted(msg.sender, solution, block.timestamp) */\n      mload(0x40)\n      tag_84\n      swap3\n      swap2\n      swap1\n      tag_85\n      jump\t// in\n    tag_84:\n      mload(0x40)\n      dup1\n      swap2\n      sub\n      swap1\n      log2\n        /* \"ProofOfWorkMetrics.sol\":1521:2064  {... */\n      pop\n        /* \"ProofOfWorkMetrics.sol\":1493:2208  if (solution == targetHash) {... */\n      jump(tag_86)\n    tag_74:\n        /* \"ProofOfWorkMetrics.sol\":2126:2136  msg.sender */\n      caller\n        /* \"ProofOfWorkMetrics.sol\":2089:2137  SolutionReverted(\"Invalid solution\", msg.sender) */\n      0xffffffffffffffffffffffffffffffffffffffff\n      and\n      0x37efc11f2004103258c573cff91fa41e73dcdb8b66c665636a0811544877e742\n      mload(0x40)\n      tag_87\n      swap1\n      tag_88\n      jump\t// in\n    tag_87:\n      mload(0x40)\n      dup1\n      swap2\n      sub\n      swap1\n      log2\n        /* \"ProofOfWorkMetrics.sol\":2170:2196  revert(\"Invalid solution\") */\n      mload(0x40)\n      0x08c379a000000000000000000000000000000000000000000000000000000000\n      dup2\n      mstore\n      0x04\n      add\n      tag_89\n      swap1\n      tag_88\n      jump\t// in\n    tag_89:\n      mload(0x40)\n      dup1\n      swap2\n      sub\n      swap1\n      revert\n        /* \"ProofOfWorkMetrics.sol\":1493:2208  if (solution == targetHash) {... */\n    tag_86:\n        /* \"ProofOfWorkMetrics.sol\":1166:2215  function submitSolution(bytes32 solution) public {... */\n      pop\n      jump\t// out\n        /* \"ProofOfWorkMetrics.sol\":177:198  Miner[] public miners */\n    tag_57:\n      0x00\n      dup2\n      dup2\n      sload\n      dup2\n      lt\n      tag_90\n      jumpi\n      0x00\n      dup1\n      revert\n    tag_90:\n      swap1\n      0x00\n      mstore\n      keccak256(0x00, 0x20)\n      swap1\n      0x02\n      mul\n      add\n      0x00\n      swap2\n      pop\n      swap1\n      pop\n      dup1\n      0x00\n      add\n      0x00\n      swap1\n      sload\n      swap1\n      0x0100\n      exp\n      swap1\n      div\n      0xffffffffffffffffffffffffffffffffffffffff\n      and\n      swap1\n      dup1\n      0x01\n      add\n      sload\n      swap1\n      pop\n      dup3\n      jump\t// out\n        /* \"ProofOfWorkMetrics.sol\":512:536  uint public solutionRate */\n    tag_61:\n      sload(0x07)\n      dup2\n      jump\t// out\n        /* \"ProofOfWorkMetrics.sol\":2261:2591  function adjustDifficulty() internal {... */\n    tag_79:\n        /* \"ProofOfWorkMetrics.sol\":2309:2323  uint timeTaken */\n      0x00\n        /* \"ProofOfWorkMetrics.sol\":2344:2360  lastSolutionTime */\n      sload(0x04)\n        /* \"ProofOfWorkMetrics.sol\":2326:2341  block.timestamp */\n      timestamp\n        /* \"ProofOfWorkMetrics.sol\":2326:2360  block.timestamp - lastSolutionTime */\n      tag_93\n      swap2\n      swap1\n      tag_77\n      jump\t// in\n    tag_93:\n        /* \"ProofOfWorkMetrics.sol\":2309:2360  uint timeTaken = block.timestamp - lastSolutionTime */\n      swap1\n      pop\n        /* \"ProofOfWorkMetrics.sol\":2389:2399  15 seconds */\n      0x0f\n        /* \"ProofOfWorkMetrics.sol\":2377:2386  timeTaken */\n      dup2\n        /* \"ProofOfWorkMetrics.sol\":2377:2399  timeTaken < 15 seconds */\n      lt\n        /* \"ProofOfWorkMetrics.sol\":2373:2537  if (timeTaken < 15 seconds) {... */\n      iszero\n      tag_94\n      jumpi\n        /* \"ProofOfWorkMetrics.sol\":2430:2431  1 */\n      0x01\n        /* \"ProofOfWorkMetrics.sol\":2416:2426  difficulty */\n      0x03\n      0x00\n        /* \"ProofOfWorkMetrics.sol\":2416:2431  difficulty += 1 */\n      dup3\n      dup3\n      sload\n      tag_95\n      swap2\n      swap1\n      tag_96\n      jump\t// in\n    tag_95:\n      swap3\n      pop\n      pop\n      dup2\n      swap1\n      sstore\n      pop\n        /* \"ProofOfWorkMetrics.sol\":2373:2537  if (timeTaken < 15 seconds) {... */\n      jump(tag_97)\n    tag_94:\n        /* \"ProofOfWorkMetrics.sol\":2465:2475  30 seconds */\n      0x1e\n        /* \"ProofOfWorkMetrics.sol\":2453:2462  timeTaken */\n      dup2\n        /* \"ProofOfWorkMetrics.sol\":2453:2475  timeTaken > 30 seconds */\n      gt\n        /* \"ProofOfWorkMetrics.sol\":2453:2493  timeTaken > 30 seconds && difficulty > 1 */\n      dup1\n      iszero\n      tag_98\n      jumpi\n      pop\n        /* \"ProofOfWorkMetrics.sol\":2492:2493  1 */\n      0x01\n        /* \"ProofOfWorkMetrics.sol\":2479:2489  difficulty */\n      sload(0x03)\n        /* \"ProofOfWorkMetrics.sol\":2479:2493  difficulty > 1 */\n      gt\n        /* \"ProofOfWorkMetrics.sol\":2453:2493  timeTaken > 30 seconds && difficulty > 1 */\n    tag_98:\n        /* \"ProofOfWorkMetrics.sol\":2449:2537  if (timeTaken > 30 seconds && difficulty > 1) {... */\n      iszero\n      tag_99\n      jumpi\n        /* \"ProofOfWorkMetrics.sol\":2524:2525  1 */\n      0x01\n        /* \"ProofOfWorkMetrics.sol\":2510:2520  difficulty */\n      0x03\n      0x00\n        /* \"ProofOfWorkMetrics.sol\":2510:2525  difficulty -= 1 */\n      dup3\n      dup3\n      sload\n      tag_100\n      swap2\n      swap1\n      tag_77\n      jump\t// in\n    tag_100:\n      swap3\n      pop\n      pop\n      dup2\n      swap1\n      sstore\n      pop\n        /* \"ProofOfWorkMetrics.sol\":2449:2537  if (timeTaken > 30 seconds && difficulty > 1) {... */\n    tag_99:\n        /* \"ProofOfWorkMetrics.sol\":2373:2537  if (timeTaken < 15 seconds) {... */\n    tag_97:\n        /* \"ProofOfWorkMetrics.sol\":2568:2583  block.timestamp */\n      timestamp\n        /* \"ProofOfWorkMetrics.sol\":2549:2565  lastSolutionTime */\n      0x04\n        /* \"ProofOfWorkMetrics.sol\":2549:2583  lastSolutionTime = block.timestamp */\n      dup2\n      swap1\n      sstore\n      pop\n        /* \"ProofOfWorkMetrics.sol\":2298:2591  {... */\n      pop\n        /* \"ProofOfWorkMetrics.sol\":2261:2591  function adjustDifficulty() internal {... */\n      jump\t// out\n        /* \"ProofOfWorkMetrics.sol\":2632:2872  function updateMetrics() internal {... */\n    tag_83:\n        /* \"ProofOfWorkMetrics.sol\":2677:2693  uint elapsedTime */\n      0x00\n        /* \"ProofOfWorkMetrics.sol\":2714:2731  trackingStartTime */\n      sload(0x06)\n        /* \"ProofOfWorkMetrics.sol\":2696:2711  block.timestamp */\n      timestamp\n        /* \"ProofOfWorkMetrics.sol\":2696:2731  block.timestamp - trackingStartTime */\n      tag_102\n      swap2\n      swap1\n      tag_77\n      jump\t// in\n    tag_102:\n        /* \"ProofOfWorkMetrics.sol\":2677:2731  uint elapsedTime = block.timestamp - trackingStartTime */\n      swap1\n      pop\n        /* \"ProofOfWorkMetrics.sol\":2762:2763  0 */\n      0x00\n        /* \"ProofOfWorkMetrics.sol\":2748:2759  elapsedTime */\n      dup2\n        /* \"ProofOfWorkMetrics.sol\":2748:2763  elapsedTime > 0 */\n      gt\n        /* \"ProofOfWorkMetrics.sol\":2744:2865  if (elapsedTime > 0) {... */\n      iszero\n      tag_103\n      jumpi\n        /* \"ProofOfWorkMetrics.sol\":2818:2829  elapsedTime */\n      dup1\n        /* \"ProofOfWorkMetrics.sol\":2812:2814  60 */\n      0x3c\n        /* \"ProofOfWorkMetrics.sol\":2796:2809  solutionCount */\n      sload(0x05)\n        /* \"ProofOfWorkMetrics.sol\":2796:2814  solutionCount * 60 */\n      tag_104\n      swap2\n      swap1\n      tag_105\n      jump\t// in\n    tag_104:\n        /* \"ProofOfWorkMetrics.sol\":2795:2829  (solutionCount * 60) / elapsedTime */\n      tag_106\n      swap2\n      swap1\n      tag_107\n      jump\t// in\n    tag_106:\n        /* \"ProofOfWorkMetrics.sol\":2780:2792  solutionRate */\n      0x07\n        /* \"ProofOfWorkMetrics.sol\":2780:2829  solutionRate = (solutionCount * 60) / elapsedTime */\n      dup2\n      swap1\n      sstore\n      pop\n        /* \"ProofOfWorkMetrics.sol\":2744:2865  if (elapsedTime > 0) {... */\n    tag_103:\n        /* \"ProofOfWorkMetrics.sol\":2666:2872  {... */\n      pop\n        /* \"ProofOfWorkMetrics.sol\":2632:2872  function updateMetrics() internal {... */\n      jump\t// out\n        /* \"#utility.yul\":7:141   */\n    tag_108:\n        /* \"#utility.yul\":94:100   */\n      0x00\n        /* \"#utility.yul\":128:133   */\n      dup2\n        /* \"#utility.yul\":122:134   */\n      mload\n        /* \"#utility.yul\":112:134   */\n      swap1\n      pop\n        /* \"#utility.yul\":7:141   */\n      swap2\n      swap1\n      pop\n      jump\t// out\n        /* \"#utility.yul\":147:351   */\n    tag_109:\n        /* \"#utility.yul\":266:277   */\n      0x00\n        /* \"#utility.yul\":300:306   */\n      dup3\n        /* \"#utility.yul\":295:298   */\n      dup3\n        /* \"#utility.yul\":288:307   */\n      mstore\n        /* \"#utility.yul\":340:344   */\n      0x20\n        /* \"#utility.yul\":335:338   */\n      dup3\n        /* \"#utility.yul\":331:345   */\n      add\n        /* \"#utility.yul\":316:345   */\n      swap1\n      pop\n        /* \"#utility.yul\":147:351   */\n      swap3\n      swap2\n      pop\n      pop\n      jump\t// out\n        /* \"#utility.yul\":357:509   */\n    tag_110:\n        /* \"#utility.yul\":444:448   */\n      0x00\n        /* \"#utility.yul\":467:470   */\n      dup2\n        /* \"#utility.yul\":459:470   */\n      swap1\n      pop\n        /* \"#utility.yul\":497:501   */\n      0x20\n        /* \"#utility.yul\":492:495   */\n      dup3\n        /* \"#utility.yul\":488:502   */\n      add\n        /* \"#utility.yul\":480:502   */\n      swap1\n      pop\n        /* \"#utility.yul\":357:509   */\n      swap2\n      swap1\n      pop\n      jump\t// out\n        /* \"#utility.yul\":515:641   */\n    tag_111:\n        /* \"#utility.yul\":552:559   */\n      0x00\n        /* \"#utility.yul\":592:634   */\n      0xffffffffffffffffffffffffffffffffffffffff\n        /* \"#utility.yul\":585:590   */\n      dup3\n        /* \"#utility.yul\":581:635   */\n      and\n        /* \"#utility.yul\":570:635   */\n      swap1\n      pop\n        /* \"#utility.yul\":515:641   */\n      swap2\n      swap1\n      pop\n      jump\t// out\n        /* \"#utility.yul\":647:743   */\n    tag_112:\n        /* \"#utility.yul\":684:691   */\n      0x00\n        /* \"#utility.yul\":713:737   */\n      tag_150\n        /* \"#utility.yul\":731:736   */\n      dup3\n        /* \"#utility.yul\":713:737   */\n      tag_111\n      jump\t// in\n    tag_150:\n        /* \"#utility.yul\":702:737   */\n      swap1\n      pop\n        /* \"#utility.yul\":647:743   */\n      swap2\n      swap1\n      pop\n      jump\t// out\n        /* \"#utility.yul\":749:857   */\n    tag_113:\n        /* \"#utility.yul\":826:850   */\n      tag_152\n        /* \"#utility.yul\":844:849   */\n      dup2\n        /* \"#utility.yul\":826:850   */\n      tag_112\n      jump\t// in\n    tag_152:\n        /* \"#utility.yul\":821:824   */\n      dup3\n        /* \"#utility.yul\":814:851   */\n      mstore\n        /* \"#utility.yul\":749:857   */\n      pop\n      pop\n      jump\t// out\n        /* \"#utility.yul\":863:940   */\n    tag_114:\n        /* \"#utility.yul\":900:907   */\n      0x00\n        /* \"#utility.yul\":929:934   */\n      dup2\n        /* \"#utility.yul\":918:934   */\n      swap1\n      pop\n        /* \"#utility.yul\":863:940   */\n      swap2\n      swap1\n      pop\n      jump\t// out\n        /* \"#utility.yul\":946:1054   */\n    tag_115:\n        /* \"#utility.yul\":1023:1047   */\n      tag_155\n        /* \"#utility.yul\":1041:1046   */\n      dup2\n        /* \"#utility.yul\":1023:1047   */\n      tag_114\n      jump\t// in\n    tag_155:\n        /* \"#utility.yul\":1018:1021   */\n      dup3\n        /* \"#utility.yul\":1011:1048   */\n      mstore\n        /* \"#utility.yul\":946:1054   */\n      pop\n      pop\n      jump\t// out\n        /* \"#utility.yul\":1134:1631   */\n    tag_116:\n        /* \"#utility.yul\":1261:1265   */\n      0x40\n        /* \"#utility.yul\":1256:1259   */\n      dup3\n        /* \"#utility.yul\":1252:1266   */\n      add\n        /* \"#utility.yul\":1356:1360   */\n      0x00\n        /* \"#utility.yul\":1349:1354   */\n      dup3\n        /* \"#utility.yul\":1345:1361   */\n      add\n        /* \"#utility.yul\":1339:1362   */\n      mload\n        /* \"#utility.yul\":1375:1438   */\n      tag_157\n        /* \"#utility.yul\":1432:1436   */\n      0x00\n        /* \"#utility.yul\":1427:1430   */\n      dup6\n        /* \"#utility.yul\":1423:1437   */\n      add\n        /* \"#utility.yul\":1409:1421   */\n      dup3\n        /* \"#utility.yul\":1375:1438   */\n      tag_113\n      jump\t// in\n    tag_157:\n        /* \"#utility.yul\":1276:1448   */\n      pop\n        /* \"#utility.yul\":1532:1536   */\n      0x20\n        /* \"#utility.yul\":1525:1530   */\n      dup3\n        /* \"#utility.yul\":1521:1537   */\n      add\n        /* \"#utility.yul\":1515:1538   */\n      mload\n        /* \"#utility.yul\":1551:1614   */\n      tag_158\n        /* \"#utility.yul\":1608:1612   */\n      0x20\n        /* \"#utility.yul\":1603:1606   */\n      dup6\n        /* \"#utility.yul\":1599:1613   */\n      add\n        /* \"#utility.yul\":1585:1597   */\n      dup3\n        /* \"#utility.yul\":1551:1614   */\n      tag_115\n      jump\t// in\n    tag_158:\n        /* \"#utility.yul\":1458:1624   */\n      pop\n        /* \"#utility.yul\":1230:1631   */\n      pop\n        /* \"#utility.yul\":1134:1631   */\n      pop\n      pop\n      jump\t// out\n        /* \"#utility.yul\":1637:1896   */\n    tag_117:\n        /* \"#utility.yul\":1746:1756   */\n      0x00\n        /* \"#utility.yul\":1767:1853   */\n      tag_160\n        /* \"#utility.yul\":1849:1852   */\n      dup4\n        /* \"#utility.yul\":1841:1847   */\n      dup4\n        /* \"#utility.yul\":1767:1853   */\n      tag_116\n      jump\t// in\n    tag_160:\n        /* \"#utility.yul\":1885:1889   */\n      0x40\n        /* \"#utility.yul\":1880:1883   */\n      dup4\n        /* \"#utility.yul\":1876:1890   */\n      add\n        /* \"#utility.yul\":1862:1890   */\n      swap1\n      pop\n        /* \"#utility.yul\":1637:1896   */\n      swap3\n      swap2\n      pop\n      pop\n      jump\t// out\n        /* \"#utility.yul\":1902:2035   */\n    tag_118:\n        /* \"#utility.yul\":1992:1996   */\n      0x00\n        /* \"#utility.yul\":2024:2028   */\n      0x20\n        /* \"#utility.yul\":2019:2022   */\n      dup3\n        /* \"#utility.yul\":2015:2029   */\n      add\n        /* \"#utility.yul\":2007:2029   */\n      swap1\n      pop\n        /* \"#utility.yul\":1902:2035   */\n      swap2\n      swap1\n      pop\n      jump\t// out\n        /* \"#utility.yul\":2119:3011   */\n    tag_119:\n        /* \"#utility.yul\":2278:2281   */\n      0x00\n        /* \"#utility.yul\":2307:2381   */\n      tag_163\n        /* \"#utility.yul\":2375:2380   */\n      dup3\n        /* \"#utility.yul\":2307:2381   */\n      tag_108\n      jump\t// in\n    tag_163:\n        /* \"#utility.yul\":2397:2503   */\n      tag_164\n        /* \"#utility.yul\":2496:2502   */\n      dup2\n        /* \"#utility.yul\":2491:2494   */\n      dup6\n        /* \"#utility.yul\":2397:2503   */\n      tag_109\n      jump\t// in\n    tag_164:\n        /* \"#utility.yul\":2390:2503   */\n      swap4\n      pop\n        /* \"#utility.yul\":2527:2603   */\n      tag_165\n        /* \"#utility.yul\":2597:2602   */\n      dup4\n        /* \"#utility.yul\":2527:2603   */\n      tag_110\n      jump\t// in\n    tag_165:\n        /* \"#utility.yul\":2626:2633   */\n      dup1\n        /* \"#utility.yul\":2657:2658   */\n      0x00\n        /* \"#utility.yul\":2642:2986   */\n    tag_166:\n        /* \"#utility.yul\":2667:2673   */\n      dup4\n        /* \"#utility.yul\":2664:2665   */\n      dup2\n        /* \"#utility.yul\":2661:2674   */\n      lt\n        /* \"#utility.yul\":2642:2986   */\n      iszero\n      tag_168\n      jumpi\n        /* \"#utility.yul\":2743:2749   */\n      dup2\n        /* \"#utility.yul\":2737:2750   */\n      mload\n        /* \"#utility.yul\":2770:2873   */\n      tag_169\n        /* \"#utility.yul\":2869:2872   */\n      dup9\n        /* \"#utility.yul\":2854:2867   */\n      dup3\n        /* \"#utility.yul\":2770:2873   */\n      tag_117\n      jump\t// in\n    tag_169:\n        /* \"#utility.yul\":2763:2873   */\n      swap8\n      pop\n        /* \"#utility.yul\":2896:2976   */\n      tag_170\n        /* \"#utility.yul\":2969:2975   */\n      dup4\n        /* \"#utility.yul\":2896:2976   */\n      tag_118\n      jump\t// in\n    tag_170:\n        /* \"#utility.yul\":2886:2976   */\n      swap3\n      pop\n        /* \"#utility.yul\":2702:2986   */\n      pop\n        /* \"#utility.yul\":2689:2690   */\n      0x01\n        /* \"#utility.yul\":2686:2687   */\n      dup2\n        /* \"#utility.yul\":2682:2691   */\n      add\n        /* \"#utility.yul\":2677:2691   */\n      swap1\n      pop\n        /* \"#utility.yul\":2642:2986   */\n      jump(tag_166)\n    tag_168:\n        /* \"#utility.yul\":2646:2660   */\n      pop\n        /* \"#utility.yul\":3002:3005   */\n      dup6\n        /* \"#utility.yul\":2995:3005   */\n      swap4\n      pop\n        /* \"#utility.yul\":2283:3011   */\n      pop\n      pop\n      pop\n        /* \"#utility.yul\":2119:3011   */\n      swap3\n      swap2\n      pop\n      pop\n      jump\t// out\n        /* \"#utility.yul\":3017:3470   */\n    tag_19:\n        /* \"#utility.yul\":3200:3204   */\n      0x00\n        /* \"#utility.yul\":3238:3240   */\n      0x20\n        /* \"#utility.yul\":3227:3236   */\n      dup3\n        /* \"#utility.yul\":3223:3241   */\n      add\n        /* \"#utility.yul\":3215:3241   */\n      swap1\n      pop\n        /* \"#utility.yul\":3287:3296   */\n      dup2\n        /* \"#utility.yul\":3281:3285   */\n      dup2\n        /* \"#utility.yul\":3277:3297   */\n      sub\n        /* \"#utility.yul\":3273:3274   */\n      0x00\n        /* \"#utility.yul\":3262:3271   */\n      dup4\n        /* \"#utility.yul\":3258:3275   */\n      add\n        /* \"#utility.yul\":3251:3298   */\n      mstore\n        /* \"#utility.yul\":3315:3463   */\n      tag_172\n        /* \"#utility.yul\":3458:3462   */\n      dup2\n        /* \"#utility.yul\":3449:3455   */\n      dup5\n        /* \"#utility.yul\":3315:3463   */\n      tag_119\n      jump\t// in\n    tag_172:\n        /* \"#utility.yul\":3307:3463   */\n      swap1\n      pop\n        /* \"#utility.yul\":3017:3470   */\n      swap3\n      swap2\n      pop\n      pop\n      jump\t// out\n        /* \"#utility.yul\":3476:3594   */\n    tag_120:\n        /* \"#utility.yul\":3563:3587   */\n      tag_174\n        /* \"#utility.yul\":3581:3586   */\n      dup2\n        /* \"#utility.yul\":3563:3587   */\n      tag_114\n      jump\t// in\n    tag_174:\n        /* \"#utility.yul\":3558:3561   */\n      dup3\n        /* \"#utility.yul\":3551:3588   */\n      mstore\n        /* \"#utility.yul\":3476:3594   */\n      pop\n      pop\n      jump\t// out\n        /* \"#utility.yul\":3600:3822   */\n    tag_23:\n        /* \"#utility.yul\":3693:3697   */\n      0x00\n        /* \"#utility.yul\":3731:3733   */\n      0x20\n        /* \"#utility.yul\":3720:3729   */\n      dup3\n        /* \"#utility.yul\":3716:3734   */\n      add\n        /* \"#utility.yul\":3708:3734   */\n      swap1\n      pop\n        /* \"#utility.yul\":3744:3815   */\n      tag_176\n        /* \"#utility.yul\":3812:3813   */\n      0x00\n        /* \"#utility.yul\":3801:3810   */\n      dup4\n        /* \"#utility.yul\":3797:3814   */\n      add\n        /* \"#utility.yul\":3788:3794   */\n      dup5\n        /* \"#utility.yul\":3744:3815   */\n      tag_120\n      jump\t// in\n    tag_176:\n        /* \"#utility.yul\":3600:3822   */\n      swap3\n      swap2\n      pop\n      pop\n      jump\t// out\n        /* \"#utility.yul\":3828:3905   */\n    tag_121:\n        /* \"#utility.yul\":3865:3872   */\n      0x00\n        /* \"#utility.yul\":3894:3899   */\n      dup2\n        /* \"#utility.yul\":3883:3899   */\n      swap1\n      pop\n        /* \"#utility.yul\":3828:3905   */\n      swap2\n      swap1\n      pop\n      jump\t// out\n        /* \"#utility.yul\":3911:4029   */\n    tag_122:\n        /* \"#utility.yul\":3998:4022   */\n      tag_179\n        /* \"#utility.yul\":4016:4021   */\n      dup2\n        /* \"#utility.yul\":3998:4022   */\n      tag_121\n      jump\t// in\n    tag_179:\n        /* \"#utility.yul\":3993:3996   */\n      dup3\n        /* \"#utility.yul\":3986:4023   */\n      mstore\n        /* \"#utility.yul\":3911:4029   */\n      pop\n      pop\n      jump\t// out\n        /* \"#utility.yul\":4035:4257   */\n    tag_27:\n        /* \"#utility.yul\":4128:4132   */\n      0x00\n        /* \"#utility.yul\":4166:4168   */\n      0x20\n        /* \"#utility.yul\":4155:4164   */\n      dup3\n        /* \"#utility.yul\":4151:4169   */\n      add\n        /* \"#utility.yul\":4143:4169   */\n      swap1\n      pop\n        /* \"#utility.yul\":4179:4250   */\n      tag_181\n        /* \"#utility.yul\":4247:4248   */\n      0x00\n        /* \"#utility.yul\":4236:4245   */\n      dup4\n        /* \"#utility.yul\":4232:4249   */\n      add\n        /* \"#utility.yul\":4223:4229   */\n      dup5\n        /* \"#utility.yul\":4179:4250   */\n      tag_122\n      jump\t// in\n    tag_181:\n        /* \"#utility.yul\":4035:4257   */\n      swap3\n      swap2\n      pop\n      pop\n      jump\t// out\n        /* \"#utility.yul\":4344:4461   */\n    tag_124:\n        /* \"#utility.yul\":4453:4454   */\n      0x00\n        /* \"#utility.yul\":4450:4451   */\n      dup1\n        /* \"#utility.yul\":4443:4455   */\n      revert\n        /* \"#utility.yul\":4590:4712   */\n    tag_126:\n        /* \"#utility.yul\":4663:4687   */\n      tag_186\n        /* \"#utility.yul\":4681:4686   */\n      dup2\n        /* \"#utility.yul\":4663:4687   */\n      tag_112\n      jump\t// in\n    tag_186:\n        /* \"#utility.yul\":4656:4661   */\n      dup2\n        /* \"#utility.yul\":4653:4688   */\n      eq\n        /* \"#utility.yul\":4643:4706   */\n      tag_187\n      jumpi\n        /* \"#utility.yul\":4702:4703   */\n      0x00\n        /* \"#utility.yul\":4699:4700   */\n      dup1\n        /* \"#utility.yul\":4692:4704   */\n      revert\n        /* \"#utility.yul\":4643:4706   */\n    tag_187:\n        /* \"#utility.yul\":4590:4712   */\n      pop\n      jump\t// out\n        /* \"#utility.yul\":4718:4857   */\n    tag_127:\n        /* \"#utility.yul\":4764:4769   */\n      0x00\n        /* \"#utility.yul\":4802:4808   */\n      dup2\n        /* \"#utility.yul\":4789:4809   */\n      calldataload\n        /* \"#utility.yul\":4780:4809   */\n      swap1\n      pop\n        /* \"#utility.yul\":4818:4851   */\n      tag_189\n        /* \"#utility.yul\":4845:4850   */\n      dup2\n        /* \"#utility.yul\":4818:4851   */\n      tag_126\n      jump\t// in\n    tag_189:\n        /* \"#utility.yul\":4718:4857   */\n      swap3\n      swap2\n      pop\n      pop\n      jump\t// out\n        /* \"#utility.yul\":4863:5192   */\n    tag_30:\n        /* \"#utility.yul\":4922:4928   */\n      0x00\n        /* \"#utility.yul\":4971:4973   */\n      0x20\n        /* \"#utility.yul\":4959:4968   */\n      dup3\n        /* \"#utility.yul\":4950:4957   */\n      dup5\n        /* \"#utility.yul\":4946:4969   */\n      sub\n        /* \"#utility.yul\":4942:4974   */\n      slt\n        /* \"#utility.yul\":4939:5058   */\n      iszero\n      tag_191\n      jumpi\n        /* \"#utility.yul\":4977:5056   */\n      tag_192\n      tag_124\n      jump\t// in\n    tag_192:\n        /* \"#utility.yul\":4939:5058   */\n    tag_191:\n        /* \"#utility.yul\":5097:5098   */\n      0x00\n        /* \"#utility.yul\":5122:5175   */\n      tag_193\n        /* \"#utility.yul\":5167:5174   */\n      dup5\n        /* \"#utility.yul\":5158:5164   */\n      dup3\n        /* \"#utility.yul\":5147:5156   */\n      dup6\n        /* \"#utility.yul\":5143:5165   */\n      add\n        /* \"#utility.yul\":5122:5175   */\n      tag_127\n      jump\t// in\n    tag_193:\n        /* \"#utility.yul\":5112:5175   */\n      swap2\n      pop\n        /* \"#utility.yul\":5068:5185   */\n      pop\n        /* \"#utility.yul\":4863:5192   */\n      swap3\n      swap2\n      pop\n      pop\n      jump\t// out\n        /* \"#utility.yul\":5198:5288   */\n    tag_128:\n        /* \"#utility.yul\":5232:5239   */\n      0x00\n        /* \"#utility.yul\":5275:5280   */\n      dup2\n        /* \"#utility.yul\":5268:5281   */\n      iszero\n        /* \"#utility.yul\":5261:5282   */\n      iszero\n        /* \"#utility.yul\":5250:5282   */\n      swap1\n      pop\n        /* \"#utility.yul\":5198:5288   */\n      swap2\n      swap1\n      pop\n      jump\t// out\n        /* \"#utility.yul\":5294:5403   */\n    tag_129:\n        /* \"#utility.yul\":5375:5396   */\n      tag_196\n        /* \"#utility.yul\":5390:5395   */\n      dup2\n        /* \"#utility.yul\":5375:5396   */\n      tag_128\n      jump\t// in\n    tag_196:\n        /* \"#utility.yul\":5370:5373   */\n      dup3\n        /* \"#utility.yul\":5363:5397   */\n      mstore\n        /* \"#utility.yul\":5294:5403   */\n      pop\n      pop\n      jump\t// out\n        /* \"#utility.yul\":5409:5619   */\n    tag_33:\n        /* \"#utility.yul\":5496:5500   */\n      0x00\n        /* \"#utility.yul\":5534:5536   */\n      0x20\n        /* \"#utility.yul\":5523:5532   */\n      dup3\n        /* \"#utility.yul\":5519:5537   */\n      add\n        /* \"#utility.yul\":5511:5537   */\n      swap1\n      pop\n        /* \"#utility.yul\":5547:5612   */\n      tag_198\n        /* \"#utility.yul\":5609:5610   */\n      0x00\n        /* \"#utility.yul\":5598:5607   */\n      dup4\n        /* \"#utility.yul\":5594:5611   */\n      add\n        /* \"#utility.yul\":5585:5591   */\n      dup5\n        /* \"#utility.yul\":5547:5612   */\n      tag_129\n      jump\t// in\n    tag_198:\n        /* \"#utility.yul\":5409:5619   */\n      swap3\n      swap2\n      pop\n      pop\n      jump\t// out\n        /* \"#utility.yul\":5625:6067   */\n    tag_43:\n        /* \"#utility.yul\":5774:5778   */\n      0x00\n        /* \"#utility.yul\":5812:5814   */\n      0x60\n        /* \"#utility.yul\":5801:5810   */\n      dup3\n        /* \"#utility.yul\":5797:5815   */\n      add\n        /* \"#utility.yul\":5789:5815   */\n      swap1\n      pop\n        /* \"#utility.yul\":5825:5896   */\n      tag_200\n        /* \"#utility.yul\":5893:5894   */\n      0x00\n        /* \"#utility.yul\":5882:5891   */\n      dup4\n        /* \"#utility.yul\":5878:5895   */\n      add\n        /* \"#utility.yul\":5869:5875   */\n      dup7\n        /* \"#utility.yul\":5825:5896   */\n      tag_120\n      jump\t// in\n    tag_200:\n        /* \"#utility.yul\":5906:5978   */\n      tag_201\n        /* \"#utility.yul\":5974:5976   */\n      0x20\n        /* \"#utility.yul\":5963:5972   */\n      dup4\n        /* \"#utility.yul\":5959:5977   */\n      add\n        /* \"#utility.yul\":5950:5956   */\n      dup6\n        /* \"#utility.yul\":5906:5978   */\n      tag_120\n      jump\t// in\n    tag_201:\n        /* \"#utility.yul\":5988:6060   */\n      tag_202\n        /* \"#utility.yul\":6056:6058   */\n      0x40\n        /* \"#utility.yul\":6045:6054   */\n      dup4\n        /* \"#utility.yul\":6041:6059   */\n      add\n        /* \"#utility.yul\":6032:6038   */\n      dup5\n        /* \"#utility.yul\":5988:6060   */\n      tag_120\n      jump\t// in\n    tag_202:\n        /* \"#utility.yul\":5625:6067   */\n      swap5\n      swap4\n      pop\n      pop\n      pop\n      pop\n      jump\t// out\n        /* \"#utility.yul\":6073:6195   */\n    tag_130:\n        /* \"#utility.yul\":6146:6170   */\n      tag_204\n        /* \"#utility.yul\":6164:6169   */\n      dup2\n        /* \"#utility.yul\":6146:6170   */\n      tag_121\n      jump\t// in\n    tag_204:\n        /* \"#utility.yul\":6139:6144   */\n      dup2\n        /* \"#utility.yul\":6136:6171   */\n      eq\n        /* \"#utility.yul\":6126:6189   */\n      tag_205\n      jumpi\n        /* \"#utility.yul\":6185:6186   */\n      0x00\n        /* \"#utility.yul\":6182:6183   */\n      dup1\n        /* \"#utility.yul\":6175:6187   */\n      revert\n        /* \"#utility.yul\":6126:6189   */\n    tag_205:\n        /* \"#utility.yul\":6073:6195   */\n      pop\n      jump\t// out\n        /* \"#utility.yul\":6201:6340   */\n    tag_131:\n        /* \"#utility.yul\":6247:6252   */\n      0x00\n        /* \"#utility.yul\":6285:6291   */\n      dup2\n        /* \"#utility.yul\":6272:6292   */\n      calldataload\n        /* \"#utility.yul\":6263:6292   */\n      swap1\n      pop\n        /* \"#utility.yul\":6301:6334   */\n      tag_207\n        /* \"#utility.yul\":6328:6333   */\n      dup2\n        /* \"#utility.yul\":6301:6334   */\n      tag_130\n      jump\t// in\n    tag_207:\n        /* \"#utility.yul\":6201:6340   */\n      swap3\n      swap2\n      pop\n      pop\n      jump\t// out\n        /* \"#utility.yul\":6346:6675   */\n    tag_52:\n        /* \"#utility.yul\":6405:6411   */\n      0x00\n        /* \"#utility.yul\":6454:6456   */\n      0x20\n        /* \"#utility.yul\":6442:6451   */\n      dup3\n        /* \"#utility.yul\":6433:6440   */\n      dup5\n        /* \"#utility.yul\":6429:6452   */\n      sub\n        /* \"#utility.yul\":6425:6457   */\n      slt\n        /* \"#utility.yul\":6422:6541   */\n      iszero\n      tag_209\n      jumpi\n        /* \"#utility.yul\":6460:6539   */\n      tag_210\n      tag_124\n      jump\t// in\n    tag_210:\n        /* \"#utility.yul\":6422:6541   */\n    tag_209:\n        /* \"#utility.yul\":6580:6581   */\n      0x00\n        /* \"#utility.yul\":6605:6658   */\n      tag_211\n        /* \"#utility.yul\":6650:6657   */\n      dup5\n        /* \"#utility.yul\":6641:6647   */\n      dup3\n        /* \"#utility.yul\":6630:6639   */\n      dup6\n        /* \"#utility.yul\":6626:6648   */\n      add\n        /* \"#utility.yul\":6605:6658   */\n      tag_131\n      jump\t// in\n    tag_211:\n        /* \"#utility.yul\":6595:6658   */\n      swap2\n      pop\n        /* \"#utility.yul\":6551:6668   */\n      pop\n        /* \"#utility.yul\":6346:6675   */\n      swap3\n      swap2\n      pop\n      pop\n      jump\t// out\n        /* \"#utility.yul\":6681:6803   */\n    tag_132:\n        /* \"#utility.yul\":6754:6778   */\n      tag_213\n        /* \"#utility.yul\":6772:6777   */\n      dup2\n        /* \"#utility.yul\":6754:6778   */\n      tag_114\n      jump\t// in\n    tag_213:\n        /* \"#utility.yul\":6747:6752   */\n      dup2\n        /* \"#utility.yul\":6744:6779   */\n      eq\n        /* \"#utility.yul\":6734:6797   */\n      tag_214\n      jumpi\n        /* \"#utility.yul\":6793:6794   */\n      0x00\n        /* \"#utility.yul\":6790:6791   */\n      dup1\n        /* \"#utility.yul\":6783:6795   */\n      revert\n        /* \"#utility.yul\":6734:6797   */\n    tag_214:\n        /* \"#utility.yul\":6681:6803   */\n      pop\n      jump\t// out\n        /* \"#utility.yul\":6809:6948   */\n    tag_133:\n        /* \"#utility.yul\":6855:6860   */\n      0x00\n        /* \"#utility.yul\":6893:6899   */\n      dup2\n        /* \"#utility.yul\":6880:6900   */\n      calldataload\n        /* \"#utility.yul\":6871:6900   */\n      swap1\n      pop\n        /* \"#utility.yul\":6909:6942   */\n      tag_216\n        /* \"#utility.yul\":6936:6941   */\n      dup2\n        /* \"#utility.yul\":6909:6942   */\n      tag_132\n      jump\t// in\n    tag_216:\n        /* \"#utility.yul\":6809:6948   */\n      swap3\n      swap2\n      pop\n      pop\n      jump\t// out\n        /* \"#utility.yul\":6954:7283   */\n    tag_56:\n        /* \"#utility.yul\":7013:7019   */\n      0x00\n        /* \"#utility.yul\":7062:7064   */\n      0x20\n        /* \"#utility.yul\":7050:7059   */\n      dup3\n        /* \"#utility.yul\":7041:7048   */\n      dup5\n        /* \"#utility.yul\":7037:7060   */\n      sub\n        /* \"#utility.yul\":7033:7065   */\n      slt\n        /* \"#utility.yul\":7030:7149   */\n      iszero\n      tag_218\n      jumpi\n        /* \"#utility.yul\":7068:7147   */\n      tag_219\n      tag_124\n      jump\t// in\n    tag_219:\n        /* \"#utility.yul\":7030:7149   */\n    tag_218:\n        /* \"#utility.yul\":7188:7189   */\n      0x00\n        /* \"#utility.yul\":7213:7266   */\n      tag_220\n        /* \"#utility.yul\":7258:7265   */\n      dup5\n        /* \"#utility.yul\":7249:7255   */\n      dup3\n        /* \"#utility.yul\":7238:7247   */\n      dup6\n        /* \"#utility.yul\":7234:7256   */\n      add\n        /* \"#utility.yul\":7213:7266   */\n      tag_133\n      jump\t// in\n    tag_220:\n        /* \"#utility.yul\":7203:7266   */\n      swap2\n      pop\n        /* \"#utility.yul\":7159:7276   */\n      pop\n        /* \"#utility.yul\":6954:7283   */\n      swap3\n      swap2\n      pop\n      pop\n      jump\t// out\n        /* \"#utility.yul\":7289:7407   */\n    tag_134:\n        /* \"#utility.yul\":7376:7400   */\n      tag_222\n        /* \"#utility.yul\":7394:7399   */\n      dup2\n        /* \"#utility.yul\":7376:7400   */\n      tag_112\n      jump\t// in\n    tag_222:\n        /* \"#utility.yul\":7371:7374   */\n      dup3\n        /* \"#utility.yul\":7364:7401   */\n      mstore\n        /* \"#utility.yul\":7289:7407   */\n      pop\n      pop\n      jump\t// out\n        /* \"#utility.yul\":7413:7745   */\n    tag_59:\n        /* \"#utility.yul\":7534:7538   */\n      0x00\n        /* \"#utility.yul\":7572:7574   */\n      0x40\n        /* \"#utility.yul\":7561:7570   */\n      dup3\n        /* \"#utility.yul\":7557:7575   */\n      add\n        /* \"#utility.yul\":7549:7575   */\n      swap1\n      pop\n        /* \"#utility.yul\":7585:7656   */\n      tag_224\n        /* \"#utility.yul\":7653:7654   */\n      0x00\n        /* \"#utility.yul\":7642:7651   */\n      dup4\n        /* \"#utility.yul\":7638:7655   */\n      add\n        /* \"#utility.yul\":7629:7635   */\n      dup6\n        /* \"#utility.yul\":7585:7656   */\n      tag_134\n      jump\t// in\n    tag_224:\n        /* \"#utility.yul\":7666:7738   */\n      tag_225\n        /* \"#utility.yul\":7734:7736   */\n      0x20\n        /* \"#utility.yul\":7723:7732   */\n      dup4\n        /* \"#utility.yul\":7719:7737   */\n      add\n        /* \"#utility.yul\":7710:7716   */\n      dup5\n        /* \"#utility.yul\":7666:7738   */\n      tag_120\n      jump\t// in\n    tag_225:\n        /* \"#utility.yul\":7413:7745   */\n      swap4\n      swap3\n      pop\n      pop\n      pop\n      jump\t// out\n        /* \"#utility.yul\":7751:7920   */\n    tag_135:\n        /* \"#utility.yul\":7835:7846   */\n      0x00\n        /* \"#utility.yul\":7869:7875   */\n      dup3\n        /* \"#utility.yul\":7864:7867   */\n      dup3\n        /* \"#utility.yul\":7857:7876   */\n      mstore\n        /* \"#utility.yul\":7909:7913   */\n      0x20\n        /* \"#utility.yul\":7904:7907   */\n      dup3\n        /* \"#utility.yul\":7900:7914   */\n      add\n        /* \"#utility.yul\":7885:7914   */\n      swap1\n      pop\n        /* \"#utility.yul\":7751:7920   */\n      swap3\n      swap2\n      pop\n      pop\n      jump\t// out\n        /* \"#utility.yul\":7926:8091   */\n    tag_136:\n        /* \"#utility.yul\":8066:8083   */\n      0x4e6f2072657761726473206c6566740000000000000000000000000000000000\n        /* \"#utility.yul\":8062:8063   */\n      0x00\n        /* \"#utility.yul\":8054:8060   */\n      dup3\n        /* \"#utility.yul\":8050:8064   */\n      add\n        /* \"#utility.yul\":8043:8084   */\n      mstore\n        /* \"#utility.yul\":7926:8091   */\n      pop\n      jump\t// out\n        /* \"#utility.yul\":8097:8463   */\n    tag_137:\n        /* \"#utility.yul\":8239:8242   */\n      0x00\n        /* \"#utility.yul\":8260:8327   */\n      tag_229\n        /* \"#utility.yul\":8324:8326   */\n      0x0f\n        /* \"#utility.yul\":8319:8322   */\n      dup4\n        /* \"#utility.yul\":8260:8327   */\n      tag_135\n      jump\t// in\n    tag_229:\n        /* \"#utility.yul\":8253:8327   */\n      swap2\n      pop\n        /* \"#utility.yul\":8336:8429   */\n      tag_230\n        /* \"#utility.yul\":8425:8428   */\n      dup3\n        /* \"#utility.yul\":8336:8429   */\n      tag_136\n      jump\t// in\n    tag_230:\n        /* \"#utility.yul\":8454:8456   */\n      0x20\n        /* \"#utility.yul\":8449:8452   */\n      dup3\n        /* \"#utility.yul\":8445:8457   */\n      add\n        /* \"#utility.yul\":8438:8457   */\n      swap1\n      pop\n        /* \"#utility.yul\":8097:8463   */\n      swap2\n      swap1\n      pop\n      jump\t// out\n        /* \"#utility.yul\":8469:8888   */\n    tag_71:\n        /* \"#utility.yul\":8635:8639   */\n      0x00\n        /* \"#utility.yul\":8673:8675   */\n      0x20\n        /* \"#utility.yul\":8662:8671   */\n      dup3\n        /* \"#utility.yul\":8658:8676   */\n      add\n        /* \"#utility.yul\":8650:8676   */\n      swap1\n      pop\n        /* \"#utility.yul\":8722:8731   */\n      dup2\n        /* \"#utility.yul\":8716:8720   */\n      dup2\n        /* \"#utility.yul\":8712:8732   */\n      sub\n        /* \"#utility.yul\":8708:8709   */\n      0x00\n        /* \"#utility.yul\":8697:8706   */\n      dup4\n        /* \"#utility.yul\":8693:8710   */\n      add\n        /* \"#utility.yul\":8686:8733   */\n      mstore\n        /* \"#utility.yul\":8750:8881   */\n      tag_232\n        /* \"#utility.yul\":8876:8880   */\n      dup2\n        /* \"#utility.yul\":8750:8881   */\n      tag_137\n      jump\t// in\n    tag_232:\n        /* \"#utility.yul\":8742:8881   */\n      swap1\n      pop\n        /* \"#utility.yul\":8469:8888   */\n      swap2\n      swap1\n      pop\n      jump\t// out\n        /* \"#utility.yul\":8894:9074   */\n    tag_138:\n        /* \"#utility.yul\":8942:9019   */\n      0x4e487b7100000000000000000000000000000000000000000000000000000000\n        /* \"#utility.yul\":8939:8940   */\n      0x00\n        /* \"#utility.yul\":8932:9020   */\n      mstore\n        /* \"#utility.yul\":9039:9043   */\n      0x11\n        /* \"#utility.yul\":9036:9037   */\n      0x04\n        /* \"#utility.yul\":9029:9044   */\n      mstore\n        /* \"#utility.yul\":9063:9067   */\n      0x24\n        /* \"#utility.yul\":9060:9061   */\n      0x00\n        /* \"#utility.yul\":9053:9068   */\n      revert\n        /* \"#utility.yul\":9080:9313   */\n    tag_73:\n        /* \"#utility.yul\":9119:9122   */\n      0x00\n        /* \"#utility.yul\":9142:9166   */\n      tag_235\n        /* \"#utility.yul\":9160:9165   */\n      dup3\n        /* \"#utility.yul\":9142:9166   */\n      tag_114\n      jump\t// in\n    tag_235:\n        /* \"#utility.yul\":9133:9166   */\n      swap2\n      pop\n        /* \"#utility.yul\":9188:9254   */\n      0xffffffffffffffffffffffffffffffffffffffffffffffffffffffffffffffff\n        /* \"#utility.yul\":9181:9186   */\n      dup3\n        /* \"#utility.yul\":9178:9255   */\n      sub\n        /* \"#utility.yul\":9175:9278   */\n      tag_236\n      jumpi\n        /* \"#utility.yul\":9258:9276   */\n      tag_237\n      tag_138\n      jump\t// in\n    tag_237:\n        /* \"#utility.yul\":9175:9278   */\n    tag_236:\n        /* \"#utility.yul\":9305:9306   */\n      0x01\n        /* \"#utility.yul\":9298:9303   */\n      dup3\n        /* \"#utility.yul\":9294:9307   */\n      add\n        /* \"#utility.yul\":9287:9307   */\n      swap1\n      pop\n        /* \"#utility.yul\":9080:9313   */\n      swap2\n      swap1\n      pop\n      jump\t// out\n        /* \"#utility.yul\":9319:9513   */\n    tag_77:\n        /* \"#utility.yul\":9359:9363   */\n      0x00\n        /* \"#utility.yul\":9379:9399   */\n      tag_239\n        /* \"#utility.yul\":9397:9398   */\n      dup3\n        /* \"#utility.yul\":9379:9399   */\n      tag_114\n      jump\t// in\n    tag_239:\n        /* \"#utility.yul\":9374:9399   */\n      swap2\n      pop\n        /* \"#utility.yul\":9413:9433   */\n      tag_240\n        /* \"#utility.yul\":9431:9432   */\n      dup4\n        /* \"#utility.yul\":9413:9433   */\n      tag_114\n      jump\t// in\n    tag_240:\n        /* \"#utility.yul\":9408:9433   */\n      swap3\n      pop\n        /* \"#utility.yul\":9457:9458   */\n      dup3\n        /* \"#utility.yul\":9454:9455   */\n      dup3\n        /* \"#utility.yul\":9450:9459   */\n      sub\n        /* \"#utility.yul\":9442:9459   */\n      swap1\n      pop\n        /* \"#utility.yul\":9481:9482   */\n      dup2\n        /* \"#utility.yul\":9475:9479   */\n      dup2\n        /* \"#utility.yul\":9472:9483   */\n      gt\n        /* \"#utility.yul\":9469:9506   */\n      iszero\n      tag_241\n      jumpi\n        /* \"#utility.yul\":9486:9504   */\n      tag_242\n      tag_138\n      jump\t// in\n    tag_242:\n        /* \"#utility.yul\":9469:9506   */\n    tag_241:\n        /* \"#utility.yul\":9319:9513   */\n      swap3\n      swap2\n      pop\n      pop\n      jump\t// out\n        /* \"#utility.yul\":9519:9598   */\n    tag_139:\n        /* \"#utility.yul\":9558:9565   */\n      0x00\n        /* \"#utility.yul\":9587:9592   */\n      dup2\n        /* \"#utility.yul\":9576:9592   */\n      swap1\n      pop\n        /* \"#utility.yul\":9519:9598   */\n      swap2\n      swap1\n      pop\n      jump\t// out\n        /* \"#utility.yul\":9604:9761   */\n    tag_140:\n        /* \"#utility.yul\":9709:9754   */\n      tag_245\n        /* \"#utility.yul\":9729:9753   */\n      tag_246\n        /* \"#utility.yul\":9747:9752   */\n      dup3\n        /* \"#utility.yul\":9729:9753   */\n      tag_114\n      jump\t// in\n    tag_246:\n        /* \"#utility.yul\":9709:9754   */\n      tag_139\n      jump\t// in\n    tag_245:\n        /* \"#utility.yul\":9704:9707   */\n      dup3\n        /* \"#utility.yul\":9697:9755   */\n      mstore\n        /* \"#utility.yul\":9604:9761   */\n      pop\n      pop\n      jump\t// out\n        /* \"#utility.yul\":9767:10164   */\n    tag_81:\n        /* \"#utility.yul\":9907:9910   */\n      0x00\n        /* \"#utility.yul\":9922:9997   */\n      tag_248\n        /* \"#utility.yul\":9993:9996   */\n      dup3\n        /* \"#utility.yul\":9984:9990   */\n      dup6\n        /* \"#utility.yul\":9922:9997   */\n      tag_140\n      jump\t// in\n    tag_248:\n        /* \"#utility.yul\":10022:10024   */\n      0x20\n        /* \"#utility.yul\":10017:10020   */\n      dup3\n        /* \"#utility.yul\":10013:10025   */\n      add\n        /* \"#utility.yul\":10006:10025   */\n      swap2\n      pop\n        /* \"#utility.yul\":10035:10110   */\n      tag_249\n        /* \"#utility.yul\":10106:10109   */\n      dup3\n        /* \"#utility.yul\":10097:10103   */\n      dup5\n        /* \"#utility.yul\":10035:10110   */\n      tag_140\n      jump\t// in\n    tag_249:\n        /* \"#utility.yul\":10135:10137   */\n      0x20\n        /* \"#utility.yul\":10130:10133   */\n      dup3\n        /* \"#utility.yul\":10126:10138   */\n      add\n        /* \"#utility.yul\":10119:10138   */\n      swap2\n      pop\n        /* \"#utility.yul\":10155:10158   */\n      dup2\n        /* \"#utility.yul\":10148:10158   */\n      swap1\n      pop\n        /* \"#utility.yul\":9767:10164   */\n      swap4\n      swap3\n      pop\n      pop\n      pop\n      jump\t// out\n        /* \"#utility.yul\":10170:10502   */\n    tag_85:\n        /* \"#utility.yul\":10291:10295   */\n      0x00\n        /* \"#utility.yul\":10329:10331   */\n      0x40\n        /* \"#utility.yul\":10318:10327   */\n      dup3\n        /* \"#utility.yul\":10314:10332   */\n      add\n        /* \"#utility.yul\":10306:10332   */\n      swap1\n      pop\n        /* \"#utility.yul\":10342:10413   */\n      tag_251\n        /* \"#utility.yul\":10410:10411   */\n      0x00\n        /* \"#utility.yul\":10399:10408   */\n      dup4\n        /* \"#utility.yul\":10395:10412   */\n      add\n        /* \"#utility.yul\":10386:10392   */\n      dup6\n        /* \"#utility.yul\":10342:10413   */\n      tag_122\n      jump\t// in\n    tag_251:\n        /* \"#utility.yul\":10423:10495   */\n      tag_252\n        /* \"#utility.yul\":10491:10493   */\n      0x20\n        /* \"#utility.yul\":10480:10489   */\n      dup4\n        /* \"#utility.yul\":10476:10494   */\n      add\n        /* \"#utility.yul\":10467:10473   */\n      dup5\n        /* \"#utility.yul\":10423:10495   */\n      tag_120\n      jump\t// in\n    tag_252:\n        /* \"#utility.yul\":10170:10502   */\n      swap4\n      swap3\n      pop\n      pop\n      pop\n      jump\t// out\n        /* \"#utility.yul\":10508:10674   */\n    tag_141:\n        /* \"#utility.yul\":10648:10666   */\n      0x496e76616c696420736f6c7574696f6e00000000000000000000000000000000\n        /* \"#utility.yul\":10644:10645   */\n      0x00\n        /* \"#utility.yul\":10636:10642   */\n      dup3\n        /* \"#utility.yul\":10632:10646   */\n      add\n        /* \"#utility.yul\":10625:10667   */\n      mstore\n        /* \"#utility.yul\":10508:10674   */\n      pop\n      jump\t// out\n        /* \"#utility.yul\":10680:11046   */\n    tag_142:\n        /* \"#utility.yul\":10822:10825   */\n      0x00\n        /* \"#utility.yul\":10843:10910   */\n      tag_255\n        /* \"#utility.yul\":10907:10909   */\n      0x10\n        /* \"#utility.yul\":10902:10905   */\n      dup4\n        /* \"#utility.yul\":10843:10910   */\n      tag_135\n      jump\t// in\n    tag_255:\n        /* \"#utility.yul\":10836:10910   */\n      swap2\n      pop\n        /* \"#utility.yul\":10919:11012   */\n      tag_256\n        /* \"#utility.yul\":11008:11011   */\n      dup3\n        /* \"#utility.yul\":10919:11012   */\n      tag_141\n      jump\t// in\n    tag_256:\n        /* \"#utility.yul\":11037:11039   */\n      0x20\n        /* \"#utility.yul\":11032:11035   */\n      dup3\n        /* \"#utility.yul\":11028:11040   */\n      add\n        /* \"#utility.yul\":11021:11040   */\n      swap1\n      pop\n        /* \"#utility.yul\":10680:11046   */\n      swap2\n      swap1\n      pop\n      jump\t// out\n        /* \"#utility.yul\":11052:11471   */\n    tag_88:\n        /* \"#utility.yul\":11218:11222   */\n      0x00\n        /* \"#utility.yul\":11256:11258   */\n      0x20\n        /* \"#utility.yul\":11245:11254   */\n      dup3\n        /* \"#utility.yul\":11241:11259   */\n      add\n        /* \"#utility.yul\":11233:11259   */\n      swap1\n      pop\n        /* \"#utility.yul\":11305:11314   */\n      dup2\n        /* \"#utility.yul\":11299:11303   */\n      dup2\n        /* \"#utility.yul\":11295:11315   */\n      sub\n        /* \"#utility.yul\":11291:11292   */\n      0x00\n        /* \"#utility.yul\":11280:11289   */\n      dup4\n        /* \"#utility.yul\":11276:11293   */\n      add\n        /* \"#utility.yul\":11269:11316   */\n      mstore\n        /* \"#utility.yul\":11333:11464   */\n      tag_258\n        /* \"#utility.yul\":11459:11463   */\n      dup2\n        /* \"#utility.yul\":11333:11464   */\n      tag_142\n      jump\t// in\n    tag_258:\n        /* \"#utility.yul\":11325:11464   */\n      swap1\n      pop\n        /* \"#utility.yul\":11052:11471   */\n      swap2\n      swap1\n      pop\n      jump\t// out\n        /* \"#utility.yul\":11477:11668   */\n    tag_96:\n        /* \"#utility.yul\":11517:11520   */\n      0x00\n        /* \"#utility.yul\":11536:11556   */\n      tag_260\n        /* \"#utility.yul\":11554:11555   */\n      dup3\n        /* \"#utility.yul\":11536:11556   */\n      tag_114\n      jump\t// in\n    tag_260:\n        /* \"#utility.yul\":11531:11556   */\n      swap2\n      pop\n        /* \"#utility.yul\":11570:11590   */\n      tag_261\n        /* \"#utility.yul\":11588:11589   */\n      dup4\n        /* \"#utility.yul\":11570:11590   */\n      tag_114\n      jump\t// in\n    tag_261:\n        /* \"#utility.yul\":11565:11590   */\n      swap3\n      pop\n        /* \"#utility.yul\":11613:11614   */\n      dup3\n        /* \"#utility.yul\":11610:11611   */\n      dup3\n        /* \"#utility.yul\":11606:11615   */\n      add\n        /* \"#utility.yul\":11599:11615   */\n      swap1\n      pop\n        /* \"#utility.yul\":11634:11637   */\n      dup1\n        /* \"#utility.yul\":11631:11632   */\n      dup3\n        /* \"#utility.yul\":11628:11638   */\n      gt\n        /* \"#utility.yul\":11625:11661   */\n      iszero\n      tag_262\n      jumpi\n        /* \"#utility.yul\":11641:11659   */\n      tag_263\n      tag_138\n      jump\t// in\n    tag_263:\n        /* \"#utility.yul\":11625:11661   */\n    tag_262:\n        /* \"#utility.yul\":11477:11668   */\n      swap3\n      swap2\n      pop\n      pop\n      jump\t// out\n        /* \"#utility.yul\":11674:12084   */\n    tag_105:\n        /* \"#utility.yul\":11714:11721   */\n      0x00\n        /* \"#utility.yul\":11737:11757   */\n      tag_265\n        /* \"#utility.yul\":11755:11756   */\n      dup3\n        /* \"#utility.yul\":11737:11757   */\n      tag_114\n      jump\t// in\n    tag_265:\n        /* \"#utility.yul\":11732:11757   */\n      swap2\n      pop\n        /* \"#utility.yul\":11771:11791   */\n      tag_266\n        /* \"#utility.yul\":11789:11790   */\n      dup4\n        /* \"#utility.yul\":11771:11791   */\n      tag_114\n      jump\t// in\n    tag_266:\n        /* \"#utility.yul\":11766:11791   */\n      swap3\n      pop\n        /* \"#utility.yul\":11826:11827   */\n      dup3\n        /* \"#utility.yul\":11823:11824   */\n      dup3\n        /* \"#utility.yul\":11819:11828   */\n      mul\n        /* \"#utility.yul\":11848:11878   */\n      tag_267\n        /* \"#utility.yul\":11866:11877   */\n      dup2\n        /* \"#utility.yul\":11848:11878   */\n      tag_114\n      jump\t// in\n    tag_267:\n        /* \"#utility.yul\":11837:11878   */\n      swap2\n      pop\n        /* \"#utility.yul\":12027:12028   */\n      dup3\n        /* \"#utility.yul\":12018:12025   */\n      dup3\n        /* \"#utility.yul\":12014:12029   */\n      div\n        /* \"#utility.yul\":12011:12012   */\n      dup5\n        /* \"#utility.yul\":12008:12030   */\n      eq\n        /* \"#utility.yul\":11988:11989   */\n      dup4\n        /* \"#utility.yul\":11981:11990   */\n      iszero\n        /* \"#utility.yul\":11961:12044   */\n      or\n        /* \"#utility.yul\":11938:12077   */\n      tag_268\n      jumpi\n        /* \"#utility.yul\":12057:12075   */\n      tag_269\n      tag_138\n      jump\t// in\n    tag_269:\n        /* \"#utility.yul\":11938:12077   */\n    tag_268:\n        /* \"#utility.yul\":11722:12084   */\n      pop\n        /* \"#utility.yul\":11674:12084   */\n      swap3\n      swap2\n      pop\n      pop\n      jump\t// out\n        /* \"#utility.yul\":12090:12270   */\n    tag_143:\n        /* \"#utility.yul\":12138:12215   */\n      0x4e487b7100000000000000000000000000000000000000000000000000000000\n        /* \"#utility.yul\":12135:12136   */\n      0x00\n        /* \"#utility.yul\":12128:12216   */\n      mstore\n        /* \"#utility.yul\":12235:12239   */\n      0x12\n        /* \"#utility.yul\":12232:12233   */\n      0x04\n        /* \"#utility.yul\":12225:12240   */\n      mstore\n        /* \"#utility.yul\":12259:12263   */\n      0x24\n        /* \"#utility.yul\":12256:12257   */\n      0x00\n        /* \"#utility.yul\":12249:12264   */\n      revert\n        /* \"#utility.yul\":12276:12461   */\n    tag_107:\n        /* \"#utility.yul\":12316:12317   */\n      0x00\n        /* \"#utility.yul\":12333:12353   */\n      tag_272\n        /* \"#utility.yul\":12351:12352   */\n      dup3\n        /* \"#utility.yul\":12333:12353   */\n      tag_114\n      jump\t// in\n    tag_272:\n        /* \"#utility.yul\":12328:12353   */\n      swap2\n      pop\n        /* \"#utility.yul\":12367:12387   */\n      tag_273\n        /* \"#utility.yul\":12385:12386   */\n      dup4\n        /* \"#utility.yul\":12367:12387   */\n      tag_114\n      jump\t// in\n    tag_273:\n        /* \"#utility.yul\":12362:12387   */\n      swap3\n      pop\n        /* \"#utility.yul\":12406:12407   */\n      dup3\n        /* \"#utility.yul\":12396:12431   */\n      tag_274\n      jumpi\n        /* \"#utility.yul\":12411:12429   */\n      tag_275\n      tag_143\n      jump\t// in\n    tag_275:\n        /* \"#utility.yul\":12396:12431   */\n    tag_274:\n        /* \"#utility.yul\":12453:12454   */\n      dup3\n        /* \"#utility.yul\":12450:12451   */\n      dup3\n        /* \"#utility.yul\":12446:12455   */\n      div\n        /* \"#utility.yul\":12441:12455   */\n      swap1\n      pop\n        /* \"#utility.yul\":12276:12461   */\n      swap3\n      swap2\n      pop\n      pop\n      jump\t// out\n\n    auxdata: 0xa26469706673582212204f71489f646540a7cb75f13d82efd5b2d25201d87ce54dd70ef5fb64cb97587664736f6c634300081a0033\n}\n",
				"bytecode": {
					"linkReferences": {},
					"object": "6080604052348015600f57600080fd5b50604051602001601d9060b0565b60405160208183030381529060405280519060200120600181905550620f42406002819055506002600381905550426004819055504260068190555060c3565b600081905092915050565b7f696e697469616c5f746172676574000000000000000000000000000000000000600082015250565b6000609c600e83605d565b915060a5826068565b600e82019050919050565b600060b9826091565b9150819050919050565b610d43806100d26000396000f3fe608060405234801561001057600080fd5b50600436106100b45760003560e01c80637606f781116100715780637606f7811461017f5780638b6bdd2a1461019f578063bd306cb0146101bd578063dc1743fa146101db578063e0d152af146101f7578063fb840a2a14610228576100b4565b80631633da6e146100b957806319cae462146100d757806331d0f968146100f5578063388044b31461011357806366666aa9146101435780636b3e219b14610161575b600080fd5b6100c1610246565b6040516100ce91906107f8565b60405180910390f35b6100df610305565b6040516100ec9190610829565b60405180910390f35b6100fd61030b565b60405161010a919061085d565b60405180910390f35b61012d600480360381019061012891906108a9565b610311565b60405161013a91906108f1565b60405180910390f35b61014b610331565b6040516101589190610829565b60405180910390f35b610169610337565b6040516101769190610829565b60405180910390f35b61018761033d565b6040516101969392919061090c565b60405180910390f35b6101a7610356565b6040516101b49190610829565b60405180910390f35b6101c561035c565b6040516101d29190610829565b60405180910390f35b6101f560048036038101906101f0919061096f565b610362565b005b610211600480360381019061020c91906109c8565b6105b0565b60405161021f929190610a04565b60405180910390f35b610230610604565b60405161023d9190610829565b60405180910390f35b60606000805480602002602001604051908101604052809291908181526020016000905b828210156102fc57838290600052602060002090600202016040518060400160405290816000820160009054906101000a900473ffffffffffffffffffffffffffffffffffffffff1673ffffffffffffffffffffffffffffffffffffffff1673ffffffffffffffffffffffffffffffffffffffff1681526020016001820154815250508152602001906001019061026a565b50505050905090565b60035481565b60015481565b60086020528060005260406000206000915054906101000a900460ff1681565b60025481565b60055481565b6000806000600554600754600354925092509250909192565b60065481565b60045481565b6000600254116103a7576040517f08c379a000000000000000000000000000000000000000000000000000000000815260040161039e90610a8a565b60405180910390fd5b600560008154809291906103ba90610ad9565b9190505550600154810361052657600060405180604001604052803373ffffffffffffffffffffffffffffffffffffffff168152602001600a8152509050600081908060018154018082558091505060019003906000526020600020906002020160009091909190915060008201518160000160006101000a81548173ffffffffffffffffffffffffffffffffffffffff021916908373ffffffffffffffffffffffffffffffffffffffff160217905550602082015181600101555050600a6002600082825461048a9190610b21565b9250508190555061049961060a565b42446040516020016104ac929190610b76565b604051602081830303815290604052805190602001206001819055506104d0610681565b3373ffffffffffffffffffffffffffffffffffffffff167fab19a5163cf8d1ca4242232d8d6cff6df486ebc906f243610dfbfaad10e8c2378342604051610518929190610ba2565b60405180910390a2506105ad565b3373ffffffffffffffffffffffffffffffffffffffff167f37efc11f2004103258c573cff91fa41e73dcdb8b66c665636a0811544877e74260405161056a90610c17565b60405180910390a26040517f08c379a00000000000000000000000000000000000000000000000000000000081526004016105a490610c17565b60405180910390fd5b50565b600081815481106105c057600080fd5b90600052602060002090600202016000915090508060000160009054906101000a900473ffffffffffffffffffffffffffffffffffffffff16908060010154905082565b60075481565b60006004544261061a9190610b21565b9050600f811015610644576001600360008282546106389190610c37565b92505081905550610677565b601e8111801561065657506001600354115b156106765760016003600082825461066e9190610b21565b925050819055505b5b4260048190555050565b6000600654426106919190610b21565b905060008111156106bd5780603c6005546106ac9190610c6b565b6106b69190610cdc565b6007819055505b50565b600081519050919050565b600082825260208201905092915050565b6000819050602082019050919050565b600073ffffffffffffffffffffffffffffffffffffffff82169050919050565b6000610717826106ec565b9050919050565b6107278161070c565b82525050565b6000819050919050565b6107408161072d565b82525050565b60408201600082015161075c600085018261071e565b50602082015161076f6020850182610737565b50505050565b60006107818383610746565b60408301905092915050565b6000602082019050919050565b60006107a5826106c0565b6107af81856106cb565b93506107ba836106dc565b8060005b838110156107eb5781516107d28882610775565b97506107dd8361078d565b9250506001810190506107be565b5085935050505092915050565b60006020820190508181036000830152610812818461079a565b905092915050565b6108238161072d565b82525050565b600060208201905061083e600083018461081a565b92915050565b6000819050919050565b61085781610844565b82525050565b6000602082019050610872600083018461084e565b92915050565b600080fd5b6108868161070c565b811461089157600080fd5b50565b6000813590506108a38161087d565b92915050565b6000602082840312156108bf576108be610878565b5b60006108cd84828501610894565b91505092915050565b60008115159050919050565b6108eb816108d6565b82525050565b600060208201905061090660008301846108e2565b92915050565b6000606082019050610921600083018661081a565b61092e602083018561081a565b61093b604083018461081a565b949350505050565b61094c81610844565b811461095757600080fd5b50565b60008135905061096981610943565b92915050565b60006020828403121561098557610984610878565b5b60006109938482850161095a565b91505092915050565b6109a58161072d565b81146109b057600080fd5b50565b6000813590506109c28161099c565b92915050565b6000602082840312156109de576109dd610878565b5b60006109ec848285016109b3565b91505092915050565b6109fe8161070c565b82525050565b6000604082019050610a1960008301856109f5565b610a26602083018461081a565b9392505050565b600082825260208201905092915050565b7f4e6f2072657761726473206c6566740000000000000000000000000000000000600082015250565b6000610a74600f83610a2d565b9150610a7f82610a3e565b602082019050919050565b60006020820190508181036000830152610aa381610a67565b9050919050565b7f4e487b7100000000000000000000000000000000000000000000000000000000600052601160045260246000fd5b6000610ae48261072d565b91507fffffffffffffffffffffffffffffffffffffffffffffffffffffffffffffffff8203610b1657610b15610aaa565b5b600182019050919050565b6000610b2c8261072d565b9150610b378361072d565b9250828203905081811115610b4f57610b4e610aaa565b5b92915050565b6000819050919050565b610b70610b6b8261072d565b610b55565b82525050565b6000610b828285610b5f565b602082019150610b928284610b5f565b6020820191508190509392505050565b6000604082019050610bb7600083018561084e565b610bc4602083018461081a565b9392505050565b7f496e76616c696420736f6c7574696f6e00000000000000000000000000000000600082015250565b6000610c01601083610a2d565b9150610c0c82610bcb565b602082019050919050565b60006020820190508181036000830152610c3081610bf4565b9050919050565b6000610c428261072d565b9150610c4d8361072d565b9250828201905080821115610c6557610c64610aaa565b5b92915050565b6000610c768261072d565b9150610c818361072d565b9250828202610c8f8161072d565b91508282048414831517610ca657610ca5610aaa565b5b5092915050565b7f4e487b7100000000000000000000000000000000000000000000000000000000600052601260045260246000fd5b6000610ce78261072d565b9150610cf28361072d565b925082610d0257610d01610cad565b5b82820490509291505056fea26469706673582212204f71489f646540a7cb75f13d82efd5b2d25201d87ce54dd70ef5fb64cb97587664736f6c634300081a0033",
					"opcodes": "PUSH1 0x80 PUSH1 0x40 MSTORE CALLVALUE DUP1 ISZERO PUSH1 0xF JUMPI PUSH1 0x0 DUP1 REVERT JUMPDEST POP PUSH1 0x40 MLOAD PUSH1 0x20 ADD PUSH1 0x1D SWAP1 PUSH1 0xB0 JUMP JUMPDEST PUSH1 0x40 MLOAD PUSH1 0x20 DUP2 DUP4 SUB SUB DUP2 MSTORE SWAP1 PUSH1 0x40 MSTORE DUP1 MLOAD SWAP1 PUSH1 0x20 ADD KECCAK256 PUSH1 0x1 DUP2 SWAP1 SSTORE POP PUSH3 0xF4240 PUSH1 0x2 DUP2 SWAP1 SSTORE POP PUSH1 0x2 PUSH1 0x3 DUP2 SWAP1 SSTORE POP TIMESTAMP PUSH1 0x4 DUP2 SWAP1 SSTORE POP TIMESTAMP PUSH1 0x6 DUP2 SWAP1 SSTORE POP PUSH1 0xC3 JUMP JUMPDEST PUSH1 0x0 DUP2 SWAP1 POP SWAP3 SWAP2 POP POP JUMP JUMPDEST PUSH32 0x696E697469616C5F746172676574000000000000000000000000000000000000 PUSH1 0x0 DUP3 ADD MSTORE POP JUMP JUMPDEST PUSH1 0x0 PUSH1 0x9C PUSH1 0xE DUP4 PUSH1 0x5D JUMP JUMPDEST SWAP2 POP PUSH1 0xA5 DUP3 PUSH1 0x68 JUMP JUMPDEST PUSH1 0xE DUP3 ADD SWAP1 POP SWAP2 SWAP1 POP JUMP JUMPDEST PUSH1 0x0 PUSH1 0xB9 DUP3 PUSH1 0x91 JUMP JUMPDEST SWAP2 POP DUP2 SWAP1 POP SWAP2 SWAP1 POP JUMP JUMPDEST PUSH2 0xD43 DUP1 PUSH2 0xD2 PUSH1 0x0 CODECOPY PUSH1 0x0 RETURN INVALID PUSH1 0x80 PUSH1 0x40 MSTORE CALLVALUE DUP1 ISZERO PUSH2 0x10 JUMPI PUSH1 0x0 DUP1 REVERT JUMPDEST POP PUSH1 0x4 CALLDATASIZE LT PUSH2 0xB4 JUMPI PUSH1 0x0 CALLDATALOAD PUSH1 0xE0 SHR DUP1 PUSH4 0x7606F781 GT PUSH2 0x71 JUMPI DUP1 PUSH4 0x7606F781 EQ PUSH2 0x17F JUMPI DUP1 PUSH4 0x8B6BDD2A EQ PUSH2 0x19F JUMPI DUP1 PUSH4 0xBD306CB0 EQ PUSH2 0x1BD JUMPI DUP1 PUSH4 0xDC1743FA EQ PUSH2 0x1DB JUMPI DUP1 PUSH4 0xE0D152AF EQ PUSH2 0x1F7 JUMPI DUP1 PUSH4 0xFB840A2A EQ PUSH2 0x228 JUMPI PUSH2 0xB4 JUMP JUMPDEST DUP1 PUSH4 0x1633DA6E EQ PUSH2 0xB9 JUMPI DUP1 PUSH4 0x19CAE462 EQ PUSH2 0xD7 JUMPI DUP1 PUSH4 0x31D0F968 EQ PUSH2 0xF5 JUMPI DUP1 PUSH4 0x388044B3 EQ PUSH2 0x113 JUMPI DUP1 PUSH4 0x66666AA9 EQ PUSH2 0x143 JUMPI DUP1 PUSH4 0x6B3E219B EQ PUSH2 0x161 JUMPI JUMPDEST PUSH1 0x0 DUP1 REVERT JUMPDEST PUSH2 0xC1 PUSH2 0x246 JUMP JUMPDEST PUSH1 0x40 MLOAD PUSH2 0xCE SWAP2 SWAP1 PUSH2 0x7F8 JUMP JUMPDEST PUSH1 0x40 MLOAD DUP1 SWAP2 SUB SWAP1 RETURN JUMPDEST PUSH2 0xDF PUSH2 0x305 JUMP JUMPDEST PUSH1 0x40 MLOAD PUSH2 0xEC SWAP2 SWAP1 PUSH2 0x829 JUMP JUMPDEST PUSH1 0x40 MLOAD DUP1 SWAP2 SUB SWAP1 RETURN JUMPDEST PUSH2 0xFD PUSH2 0x30B JUMP JUMPDEST PUSH1 0x40 MLOAD PUSH2 0x10A SWAP2 SWAP1 PUSH2 0x85D JUMP JUMPDEST PUSH1 0x40 MLOAD DUP1 SWAP2 SUB SWAP1 RETURN JUMPDEST PUSH2 0x12D PUSH1 0x4 DUP1 CALLDATASIZE SUB DUP2 ADD SWAP1 PUSH2 0x128 SWAP2 SWAP1 PUSH2 0x8A9 JUMP JUMPDEST PUSH2 0x311 JUMP JUMPDEST PUSH1 0x40 MLOAD PUSH2 0x13A SWAP2 SWAP1 PUSH2 0x8F1 JUMP JUMPDEST PUSH1 0x40 MLOAD DUP1 SWAP2 SUB SWAP1 RETURN JUMPDEST PUSH2 0x14B PUSH2 0x331 JUMP JUMPDEST PUSH1 0x40 MLOAD PUSH2 0x158 SWAP2 SWAP1 PUSH2 0x829 JUMP JUMPDEST PUSH1 0x40 MLOAD DUP1 SWAP2 SUB SWAP1 RETURN JUMPDEST PUSH2 0x169 PUSH2 0x337 JUMP JUMPDEST PUSH1 0x40 MLOAD PUSH2 0x176 SWAP2 SWAP1 PUSH2 0x829 JUMP JUMPDEST PUSH1 0x40 MLOAD DUP1 SWAP2 SUB SWAP1 RETURN JUMPDEST PUSH2 0x187 PUSH2 0x33D JUMP JUMPDEST PUSH1 0x40 MLOAD PUSH2 0x196 SWAP4 SWAP3 SWAP2 SWAP1 PUSH2 0x90C JUMP JUMPDEST PUSH1 0x40 MLOAD DUP1 SWAP2 SUB SWAP1 RETURN JUMPDEST PUSH2 0x1A7 PUSH2 0x356 JUMP JUMPDEST PUSH1 0x40 MLOAD PUSH2 0x1B4 SWAP2 SWAP1 PUSH2 0x829 JUMP JUMPDEST PUSH1 0x40 MLOAD DUP1 SWAP2 SUB SWAP1 RETURN JUMPDEST PUSH2 0x1C5 PUSH2 0x35C JUMP JUMPDEST PUSH1 0x40 MLOAD PUSH2 0x1D2 SWAP2 SWAP1 PUSH2 0x829 JUMP JUMPDEST PUSH1 0x40 MLOAD DUP1 SWAP2 SUB SWAP1 RETURN JUMPDEST PUSH2 0x1F5 PUSH1 0x4 DUP1 CALLDATASIZE SUB DUP2 ADD SWAP1 PUSH2 0x1F0 SWAP2 SWAP1 PUSH2 0x96F JUMP JUMPDEST PUSH2 0x362 JUMP JUMPDEST STOP JUMPDEST PUSH2 0x211 PUSH1 0x4 DUP1 CALLDATASIZE SUB DUP2 ADD SWAP1 PUSH2 0x20C SWAP2 SWAP1 PUSH2 0x9C8 JUMP JUMPDEST PUSH2 0x5B0 JUMP JUMPDEST PUSH1 0x40 MLOAD PUSH2 0x21F SWAP3 SWAP2 SWAP1 PUSH2 0xA04 JUMP JUMPDEST PUSH1 0x40 MLOAD DUP1 SWAP2 SUB SWAP1 RETURN JUMPDEST PUSH2 0x230 PUSH2 0x604 JUMP JUMPDEST PUSH1 0x40 MLOAD PUSH2 0x23D SWAP2 SWAP1 PUSH2 0x829 JUMP JUMPDEST PUSH1 0x40 MLOAD DUP1 SWAP2 SUB SWAP1 RETURN JUMPDEST PUSH1 0x60 PUSH1 0x0 DUP1 SLOAD DUP1 PUSH1 0x20 MUL PUSH1 0x20 ADD PUSH1 0x40 MLOAD SWAP1 DUP2 ADD PUSH1 0x40 MSTORE DUP1 SWAP3 SWAP2 SWAP1 DUP2 DUP2 MSTORE PUSH1 0x20 ADD PUSH1 0x0 SWAP1 JUMPDEST DUP3 DUP3 LT ISZERO PUSH2 0x2FC JUMPI DUP4 DUP3 SWAP1 PUSH1 0x0 MSTORE PUSH1 0x20 PUSH1 0x0 KECCAK256 SWAP1 PUSH1 0x2 MUL ADD PUSH1 0x40 MLOAD DUP1 PUSH1 0x40 ADD PUSH1 0x40 MSTORE SWAP1 DUP2 PUSH1 0x0 DUP3 ADD PUSH1 0x0 SWAP1 SLOAD SWAP1 PUSH2 0x100 EXP SWAP1 DIV PUSH20 0xFFFFFFFFFFFFFFFFFFFFFFFFFFFFFFFFFFFFFFFF AND PUSH20 0xFFFFFFFFFFFFFFFFFFFFFFFFFFFFFFFFFFFFFFFF AND PUSH20 0xFFFFFFFFFFFFFFFFFFFFFFFFFFFFFFFFFFFFFFFF AND DUP2 MSTORE PUSH1 0x20 ADD PUSH1 0x1 DUP3 ADD SLOAD DUP2 MSTORE POP POP DUP2 MSTORE PUSH1 0x20 ADD SWAP1 PUSH1 0x1 ADD SWAP1 PUSH2 0x26A JUMP JUMPDEST POP POP POP POP SWAP1 POP SWAP1 JUMP JUMPDEST PUSH1 0x3 SLOAD DUP2 JUMP JUMPDEST PUSH1 0x1 SLOAD DUP2 JUMP JUMPDEST PUSH1 0x8 PUSH1 0x20 MSTORE DUP1 PUSH1 0x0 MSTORE PUSH1 0x40 PUSH1 0x0 KECCAK256 PUSH1 0x0 SWAP2 POP SLOAD SWAP1 PUSH2 0x100 EXP SWAP1 DIV PUSH1 0xFF AND DUP2 JUMP JUMPDEST PUSH1 0x2 SLOAD DUP2 JUMP JUMPDEST PUSH1 0x5 SLOAD DUP2 JUMP JUMPDEST PUSH1 0x0 DUP1 PUSH1 0x0 PUSH1 0x5 SLOAD PUSH1 0x7 SLOAD PUSH1 0x3 SLOAD SWAP3 POP SWAP3 POP SWAP3 POP SWAP1 SWAP2 SWAP3 JUMP JUMPDEST PUSH1 0x6 SLOAD DUP2 JUMP JUMPDEST PUSH1 0x4 SLOAD DUP2 JUMP JUMPDEST PUSH1 0x0 PUSH1 0x2 SLOAD GT PUSH2 0x3A7 JUMPI PUSH1 0x40 MLOAD PUSH32 0x8C379A000000000000000000000000000000000000000000000000000000000 DUP2 MSTORE PUSH1 0x4 ADD PUSH2 0x39E SWAP1 PUSH2 0xA8A JUMP JUMPDEST PUSH1 0x40 MLOAD DUP1 SWAP2 SUB SWAP1 REVERT JUMPDEST PUSH1 0x5 PUSH1 0x0 DUP2 SLOAD DUP1 SWAP3 SWAP2 SWAP1 PUSH2 0x3BA SWAP1 PUSH2 0xAD9 JUMP JUMPDEST SWAP2 SWAP1 POP SSTORE POP PUSH1 0x1 SLOAD DUP2 SUB PUSH2 0x526 JUMPI PUSH1 0x0 PUSH1 0x40 MLOAD DUP1 PUSH1 0x40 ADD PUSH1 0x40 MSTORE DUP1 CALLER PUSH20 0xFFFFFFFFFFFFFFFFFFFFFFFFFFFFFFFFFFFFFFFF AND DUP2 MSTORE PUSH1 0x20 ADD PUSH1 0xA DUP2 MSTORE POP SWAP1 POP PUSH1 0x0 DUP2 SWAP1 DUP1 PUSH1 0x1 DUP2 SLOAD ADD DUP1 DUP3 SSTORE DUP1 SWAP2 POP POP PUSH1 0x1 SWAP1 SUB SWAP1 PUSH1 0x0 MSTORE PUSH1 0x20 PUSH1 0x0 KECCAK256 SWAP1 PUSH1 0x2 MUL ADD PUSH1 0x0 SWAP1 SWAP2 SWAP1 SWAP2 SWAP1 SWAP2 POP PUSH1 0x0 DUP3 ADD MLOAD DUP2 PUSH1 0x0 ADD PUSH1 0x0 PUSH2 0x100 EXP DUP2 SLOAD DUP2 PUSH20 0xFFFFFFFFFFFFFFFFFFFFFFFFFFFFFFFFFFFFFFFF MUL NOT AND SWAP1 DUP4 PUSH20 0xFFFFFFFFFFFFFFFFFFFFFFFFFFFFFFFFFFFFFFFF AND MUL OR SWAP1 SSTORE POP PUSH1 0x20 DUP3 ADD MLOAD DUP2 PUSH1 0x1 ADD SSTORE POP POP PUSH1 0xA PUSH1 0x2 PUSH1 0x0 DUP3 DUP3 SLOAD PUSH2 0x48A SWAP2 SWAP1 PUSH2 0xB21 JUMP JUMPDEST SWAP3 POP POP DUP2 SWAP1 SSTORE POP PUSH2 0x499 PUSH2 0x60A JUMP JUMPDEST TIMESTAMP DIFFICULTY PUSH1 0x40 MLOAD PUSH1 0x20 ADD PUSH2 0x4AC SWAP3 SWAP2 SWAP1 PUSH2 0xB76 JUMP JUMPDEST PUSH1 0x40 MLOAD PUSH1 0x20 DUP2 DUP4 SUB SUB DUP2 MSTORE SWAP1 PUSH1 0x40 MSTORE DUP1 MLOAD SWAP1 PUSH1 0x20 ADD KECCAK256 PUSH1 0x1 DUP2 SWAP1 SSTORE POP PUSH2 0x4D0 PUSH2 0x681 JUMP JUMPDEST CALLER PUSH20 0xFFFFFFFFFFFFFFFFFFFFFFFFFFFFFFFFFFFFFFFF AND PUSH32 0xAB19A5163CF8D1CA4242232D8D6CFF6DF486EBC906F243610DFBFAAD10E8C237 DUP4 TIMESTAMP PUSH1 0x40 MLOAD PUSH2 0x518 SWAP3 SWAP2 SWAP1 PUSH2 0xBA2 JUMP JUMPDEST PUSH1 0x40 MLOAD DUP1 SWAP2 SUB SWAP1 LOG2 POP PUSH2 0x5AD JUMP JUMPDEST CALLER PUSH20 0xFFFFFFFFFFFFFFFFFFFFFFFFFFFFFFFFFFFFFFFF AND PUSH32 0x37EFC11F2004103258C573CFF91FA41E73DCDB8B66C665636A0811544877E742 PUSH1 0x40 MLOAD PUSH2 0x56A SWAP1 PUSH2 0xC17 JUMP JUMPDEST PUSH1 0x40 MLOAD DUP1 SWAP2 SUB SWAP1 LOG2 PUSH1 0x40 MLOAD PUSH32 0x8C379A000000000000000000000000000000000000000000000000000000000 DUP2 MSTORE PUSH1 0x4 ADD PUSH2 0x5A4 SWAP1 PUSH2 0xC17 JUMP JUMPDEST PUSH1 0x40 MLOAD DUP1 SWAP2 SUB SWAP1 REVERT JUMPDEST POP JUMP JUMPDEST PUSH1 0x0 DUP2 DUP2 SLOAD DUP2 LT PUSH2 0x5C0 JUMPI PUSH1 0x0 DUP1 REVERT JUMPDEST SWAP1 PUSH1 0x0 MSTORE PUSH1 0x20 PUSH1 0x0 KECCAK256 SWAP1 PUSH1 0x2 MUL ADD PUSH1 0x0 SWAP2 POP SWAP1 POP DUP1 PUSH1 0x0 ADD PUSH1 0x0 SWAP1 SLOAD SWAP1 PUSH2 0x100 EXP SWAP1 DIV PUSH20 0xFFFFFFFFFFFFFFFFFFFFFFFFFFFFFFFFFFFFFFFF AND SWAP1 DUP1 PUSH1 0x1 ADD SLOAD SWAP1 POP DUP3 JUMP JUMPDEST PUSH1 0x7 SLOAD DUP2 JUMP JUMPDEST PUSH1 0x0 PUSH1 0x4 SLOAD TIMESTAMP PUSH2 0x61A SWAP2 SWAP1 PUSH2 0xB21 JUMP JUMPDEST SWAP1 POP PUSH1 0xF DUP2 LT ISZERO PUSH2 0x644 JUMPI PUSH1 0x1 PUSH1 0x3 PUSH1 0x0 DUP3 DUP3 SLOAD PUSH2 0x638 SWAP2 SWAP1 PUSH2 0xC37 JUMP JUMPDEST SWAP3 POP POP DUP2 SWAP1 SSTORE POP PUSH2 0x677 JUMP JUMPDEST PUSH1 0x1E DUP2 GT DUP1 ISZERO PUSH2 0x656 JUMPI POP PUSH1 0x1 PUSH1 0x3 SLOAD GT JUMPDEST ISZERO PUSH2 0x676 JUMPI PUSH1 0x1 PUSH1 0x3 PUSH1 0x0 DUP3 DUP3 SLOAD PUSH2 0x66E SWAP2 SWAP1 PUSH2 0xB21 JUMP JUMPDEST SWAP3 POP POP DUP2 SWAP1 SSTORE POP JUMPDEST JUMPDEST TIMESTAMP PUSH1 0x4 DUP2 SWAP1 SSTORE POP POP JUMP JUMPDEST PUSH1 0x0 PUSH1 0x6 SLOAD TIMESTAMP PUSH2 0x691 SWAP2 SWAP1 PUSH2 0xB21 JUMP JUMPDEST SWAP1 POP PUSH1 0x0 DUP2 GT ISZERO PUSH2 0x6BD JUMPI DUP1 PUSH1 0x3C PUSH1 0x5 SLOAD PUSH2 0x6AC SWAP2 SWAP1 PUSH2 0xC6B JUMP JUMPDEST PUSH2 0x6B6 SWAP2 SWAP1 PUSH2 0xCDC JUMP JUMPDEST PUSH1 0x7 DUP2 SWAP1 SSTORE POP JUMPDEST POP JUMP JUMPDEST PUSH1 0x0 DUP2 MLOAD SWAP1 POP SWAP2 SWAP1 POP JUMP JUMPDEST PUSH1 0x0 DUP3 DUP3 MSTORE PUSH1 0x20 DUP3 ADD SWAP1 POP SWAP3 SWAP2 POP POP JUMP JUMPDEST PUSH1 0x0 DUP2 SWAP1 POP PUSH1 0x20 DUP3 ADD SWAP1 POP SWAP2 SWAP1 POP JUMP JUMPDEST PUSH1 0x0 PUSH20 0xFFFFFFFFFFFFFFFFFFFFFFFFFFFFFFFFFFFFFFFF DUP3 AND SWAP1 POP SWAP2 SWAP1 POP JUMP JUMPDEST PUSH1 0x0 PUSH2 0x717 DUP3 PUSH2 0x6EC JUMP JUMPDEST SWAP1 POP SWAP2 SWAP1 POP JUMP JUMPDEST PUSH2 0x727 DUP2 PUSH2 0x70C JUMP JUMPDEST DUP3 MSTORE POP POP JUMP JUMPDEST PUSH1 0x0 DUP2 SWAP1 POP SWAP2 SWAP1 POP JUMP JUMPDEST PUSH2 0x740 DUP2 PUSH2 0x72D JUMP JUMPDEST DUP3 MSTORE POP POP JUMP JUMPDEST PUSH1 0x40 DUP3 ADD PUSH1 0x0 DUP3 ADD MLOAD PUSH2 0x75C PUSH1 0x0 DUP6 ADD DUP3 PUSH2 0x71E JUMP JUMPDEST POP PUSH1 0x20 DUP3 ADD MLOAD PUSH2 0x76F PUSH1 0x20 DUP6 ADD DUP3 PUSH2 0x737 JUMP JUMPDEST POP POP POP POP JUMP JUMPDEST PUSH1 0x0 PUSH2 0x781 DUP4 DUP4 PUSH2 0x746 JUMP JUMPDEST PUSH1 0x40 DUP4 ADD SWAP1 POP SWAP3 SWAP2 POP POP JUMP JUMPDEST PUSH1 0x0 PUSH1 0x20 DUP3 ADD SWAP1 POP SWAP2 SWAP1 POP JUMP JUMPDEST PUSH1 0x0 PUSH2 0x7A5 DUP3 PUSH2 0x6C0 JUMP JUMPDEST PUSH2 0x7AF DUP2 DUP6 PUSH2 0x6CB JUMP JUMPDEST SWAP4 POP PUSH2 0x7BA DUP4 PUSH2 0x6DC JUMP JUMPDEST DUP1 PUSH1 0x0 JUMPDEST DUP4 DUP2 LT ISZERO PUSH2 0x7EB JUMPI DUP2 MLOAD PUSH2 0x7D2 DUP9 DUP3 PUSH2 0x775 JUMP JUMPDEST SWAP8 POP PUSH2 0x7DD DUP4 PUSH2 0x78D JUMP JUMPDEST SWAP3 POP POP PUSH1 0x1 DUP2 ADD SWAP1 POP PUSH2 0x7BE JUMP JUMPDEST POP DUP6 SWAP4 POP POP POP POP SWAP3 SWAP2 POP POP JUMP JUMPDEST PUSH1 0x0 PUSH1 0x20 DUP3 ADD SWAP1 POP DUP2 DUP2 SUB PUSH1 0x0 DUP4 ADD MSTORE PUSH2 0x812 DUP2 DUP5 PUSH2 0x79A JUMP JUMPDEST SWAP1 POP SWAP3 SWAP2 POP POP JUMP JUMPDEST PUSH2 0x823 DUP2 PUSH2 0x72D JUMP JUMPDEST DUP3 MSTORE POP POP JUMP JUMPDEST PUSH1 0x0 PUSH1 0x20 DUP3 ADD SWAP1 POP PUSH2 0x83E PUSH1 0x0 DUP4 ADD DUP5 PUSH2 0x81A JUMP JUMPDEST SWAP3 SWAP2 POP POP JUMP JUMPDEST PUSH1 0x0 DUP2 SWAP1 POP SWAP2 SWAP1 POP JUMP JUMPDEST PUSH2 0x857 DUP2 PUSH2 0x844 JUMP JUMPDEST DUP3 MSTORE POP POP JUMP JUMPDEST PUSH1 0x0 PUSH1 0x20 DUP3 ADD SWAP1 POP PUSH2 0x872 PUSH1 0x0 DUP4 ADD DUP5 PUSH2 0x84E JUMP JUMPDEST SWAP3 SWAP2 POP POP JUMP JUMPDEST PUSH1 0x0 DUP1 REVERT JUMPDEST PUSH2 0x886 DUP2 PUSH2 0x70C JUMP JUMPDEST DUP2 EQ PUSH2 0x891 JUMPI PUSH1 0x0 DUP1 REVERT JUMPDEST POP JUMP JUMPDEST PUSH1 0x0 DUP2 CALLDATALOAD SWAP1 POP PUSH2 0x8A3 DUP2 PUSH2 0x87D JUMP JUMPDEST SWAP3 SWAP2 POP POP JUMP JUMPDEST PUSH1 0x0 PUSH1 0x20 DUP3 DUP5 SUB SLT ISZERO PUSH2 0x8BF JUMPI PUSH2 0x8BE PUSH2 0x878 JUMP JUMPDEST JUMPDEST PUSH1 0x0 PUSH2 0x8CD DUP5 DUP3 DUP6 ADD PUSH2 0x894 JUMP JUMPDEST SWAP2 POP POP SWAP3 SWAP2 POP POP JUMP JUMPDEST PUSH1 0x0 DUP2 ISZERO ISZERO SWAP1 POP SWAP2 SWAP1 POP JUMP JUMPDEST PUSH2 0x8EB DUP2 PUSH2 0x8D6 JUMP JUMPDEST DUP3 MSTORE POP POP JUMP JUMPDEST PUSH1 0x0 PUSH1 0x20 DUP3 ADD SWAP1 POP PUSH2 0x906 PUSH1 0x0 DUP4 ADD DUP5 PUSH2 0x8E2 JUMP JUMPDEST SWAP3 SWAP2 POP POP JUMP JUMPDEST PUSH1 0x0 PUSH1 0x60 DUP3 ADD SWAP1 POP PUSH2 0x921 PUSH1 0x0 DUP4 ADD DUP7 PUSH2 0x81A JUMP JUMPDEST PUSH2 0x92E PUSH1 0x20 DUP4 ADD DUP6 PUSH2 0x81A JUMP JUMPDEST PUSH2 0x93B PUSH1 0x40 DUP4 ADD DUP5 PUSH2 0x81A JUMP JUMPDEST SWAP5 SWAP4 POP POP POP POP JUMP JUMPDEST PUSH2 0x94C DUP2 PUSH2 0x844 JUMP JUMPDEST DUP2 EQ PUSH2 0x957 JUMPI PUSH1 0x0 DUP1 REVERT JUMPDEST POP JUMP JUMPDEST PUSH1 0x0 DUP2 CALLDATALOAD SWAP1 POP PUSH2 0x969 DUP2 PUSH2 0x943 JUMP JUMPDEST SWAP3 SWAP2 POP POP JUMP JUMPDEST PUSH1 0x0 PUSH1 0x20 DUP3 DUP5 SUB SLT ISZERO PUSH2 0x985 JUMPI PUSH2 0x984 PUSH2 0x878 JUMP JUMPDEST JUMPDEST PUSH1 0x0 PUSH2 0x993 DUP5 DUP3 DUP6 ADD PUSH2 0x95A JUMP JUMPDEST SWAP2 POP POP SWAP3 SWAP2 POP POP JUMP JUMPDEST PUSH2 0x9A5 DUP2 PUSH2 0x72D JUMP JUMPDEST DUP2 EQ PUSH2 0x9B0 JUMPI PUSH1 0x0 DUP1 REVERT JUMPDEST POP JUMP JUMPDEST PUSH1 0x0 DUP2 CALLDATALOAD SWAP1 POP PUSH2 0x9C2 DUP2 PUSH2 0x99C JUMP JUMPDEST SWAP3 SWAP2 POP POP JUMP JUMPDEST PUSH1 0x0 PUSH1 0x20 DUP3 DUP5 SUB SLT ISZERO PUSH2 0x9DE JUMPI PUSH2 0x9DD PUSH2 0x878 JUMP JUMPDEST JUMPDEST PUSH1 0x0 PUSH2 0x9EC DUP5 DUP3 DUP6 ADD PUSH2 0x9B3 JUMP JUMPDEST SWAP2 POP POP SWAP3 SWAP2 POP POP JUMP JUMPDEST PUSH2 0x9FE DUP2 PUSH2 0x70C JUMP JUMPDEST DUP3 MSTORE POP POP JUMP JUMPDEST PUSH1 0x0 PUSH1 0x40 DUP3 ADD SWAP1 POP PUSH2 0xA19 PUSH1 0x0 DUP4 ADD DUP6 PUSH2 0x9F5 JUMP JUMPDEST PUSH2 0xA26 PUSH1 0x20 DUP4 ADD DUP5 PUSH2 0x81A JUMP JUMPDEST SWAP4 SWAP3 POP POP POP JUMP JUMPDEST PUSH1 0x0 DUP3 DUP3 MSTORE PUSH1 0x20 DUP3 ADD SWAP1 POP SWAP3 SWAP2 POP POP JUMP JUMPDEST PUSH32 0x4E6F2072657761726473206C6566740000000000000000000000000000000000 PUSH1 0x0 DUP3 ADD MSTORE POP JUMP JUMPDEST PUSH1 0x0 PUSH2 0xA74 PUSH1 0xF DUP4 PUSH2 0xA2D JUMP JUMPDEST SWAP2 POP PUSH2 0xA7F DUP3 PUSH2 0xA3E JUMP JUMPDEST PUSH1 0x20 DUP3 ADD SWAP1 POP SWAP2 SWAP1 POP JUMP JUMPDEST PUSH1 0x0 PUSH1 0x20 DUP3 ADD SWAP1 POP DUP2 DUP2 SUB PUSH1 0x0 DUP4 ADD MSTORE PUSH2 0xAA3 DUP2 PUSH2 0xA67 JUMP JUMPDEST SWAP1 POP SWAP2 SWAP1 POP JUMP JUMPDEST PUSH32 0x4E487B7100000000000000000000000000000000000000000000000000000000 PUSH1 0x0 MSTORE PUSH1 0x11 PUSH1 0x4 MSTORE PUSH1 0x24 PUSH1 0x0 REVERT JUMPDEST PUSH1 0x0 PUSH2 0xAE4 DUP3 PUSH2 0x72D JUMP JUMPDEST SWAP2 POP PUSH32 0xFFFFFFFFFFFFFFFFFFFFFFFFFFFFFFFFFFFFFFFFFFFFFFFFFFFFFFFFFFFFFFFF DUP3 SUB PUSH2 0xB16 JUMPI PUSH2 0xB15 PUSH2 0xAAA JUMP JUMPDEST JUMPDEST PUSH1 0x1 DUP3 ADD SWAP1 POP SWAP2 SWAP1 POP JUMP JUMPDEST PUSH1 0x0 PUSH2 0xB2C DUP3 PUSH2 0x72D JUMP JUMPDEST SWAP2 POP PUSH2 0xB37 DUP4 PUSH2 0x72D JUMP JUMPDEST SWAP3 POP DUP3 DUP3 SUB SWAP1 POP DUP2 DUP2 GT ISZERO PUSH2 0xB4F JUMPI PUSH2 0xB4E PUSH2 0xAAA JUMP JUMPDEST JUMPDEST SWAP3 SWAP2 POP POP JUMP JUMPDEST PUSH1 0x0 DUP2 SWAP1 POP SWAP2 SWAP1 POP JUMP JUMPDEST PUSH2 0xB70 PUSH2 0xB6B DUP3 PUSH2 0x72D JUMP JUMPDEST PUSH2 0xB55 JUMP JUMPDEST DUP3 MSTORE POP POP JUMP JUMPDEST PUSH1 0x0 PUSH2 0xB82 DUP3 DUP6 PUSH2 0xB5F JUMP JUMPDEST PUSH1 0x20 DUP3 ADD SWAP2 POP PUSH2 0xB92 DUP3 DUP5 PUSH2 0xB5F JUMP JUMPDEST PUSH1 0x20 DUP3 ADD SWAP2 POP DUP2 SWAP1 POP SWAP4 SWAP3 POP POP POP JUMP JUMPDEST PUSH1 0x0 PUSH1 0x40 DUP3 ADD SWAP1 POP PUSH2 0xBB7 PUSH1 0x0 DUP4 ADD DUP6 PUSH2 0x84E JUMP JUMPDEST PUSH2 0xBC4 PUSH1 0x20 DUP4 ADD DUP5 PUSH2 0x81A JUMP JUMPDEST SWAP4 SWAP3 POP POP POP JUMP JUMPDEST PUSH32 0x496E76616C696420736F6C7574696F6E00000000000000000000000000000000 PUSH1 0x0 DUP3 ADD MSTORE POP JUMP JUMPDEST PUSH1 0x0 PUSH2 0xC01 PUSH1 0x10 DUP4 PUSH2 0xA2D JUMP JUMPDEST SWAP2 POP PUSH2 0xC0C DUP3 PUSH2 0xBCB JUMP JUMPDEST PUSH1 0x20 DUP3 ADD SWAP1 POP SWAP2 SWAP1 POP JUMP JUMPDEST PUSH1 0x0 PUSH1 0x20 DUP3 ADD SWAP1 POP DUP2 DUP2 SUB PUSH1 0x0 DUP4 ADD MSTORE PUSH2 0xC30 DUP2 PUSH2 0xBF4 JUMP JUMPDEST SWAP1 POP SWAP2 SWAP1 POP JUMP JUMPDEST PUSH1 0x0 PUSH2 0xC42 DUP3 PUSH2 0x72D JUMP JUMPDEST SWAP2 POP PUSH2 0xC4D DUP4 PUSH2 0x72D JUMP JUMPDEST SWAP3 POP DUP3 DUP3 ADD SWAP1 POP DUP1 DUP3 GT ISZERO PUSH2 0xC65 JUMPI PUSH2 0xC64 PUSH2 0xAAA JUMP JUMPDEST JUMPDEST SWAP3 SWAP2 POP POP JUMP JUMPDEST PUSH1 0x0 PUSH2 0xC76 DUP3 PUSH2 0x72D JUMP JUMPDEST SWAP2 POP PUSH2 0xC81 DUP4 PUSH2 0x72D JUMP JUMPDEST SWAP3 POP DUP3 DUP3 MUL PUSH2 0xC8F DUP2 PUSH2 0x72D JUMP JUMPDEST SWAP2 POP DUP3 DUP3 DIV DUP5 EQ DUP4 ISZERO OR PUSH2 0xCA6 JUMPI PUSH2 0xCA5 PUSH2 0xAAA JUMP JUMPDEST JUMPDEST POP SWAP3 SWAP2 POP POP JUMP JUMPDEST PUSH32 0x4E487B7100000000000000000000000000000000000000000000000000000000 PUSH1 0x0 MSTORE PUSH1 0x12 PUSH1 0x4 MSTORE PUSH1 0x24 PUSH1 0x0 REVERT JUMPDEST PUSH1 0x0 PUSH2 0xCE7 DUP3 PUSH2 0x72D JUMP JUMPDEST SWAP2 POP PUSH2 0xCF2 DUP4 PUSH2 0x72D JUMP JUMPDEST SWAP3 POP DUP3 PUSH2 0xD02 JUMPI PUSH2 0xD01 PUSH2 0xCAD JUMP JUMPDEST JUMPDEST DUP3 DUP3 DIV SWAP1 POP SWAP3 SWAP2 POP POP JUMP INVALID LOG2 PUSH5 0x6970667358 0x22 SLT KECCAK256 0x4F PUSH18 0x489F646540A7CB75F13D82EFD5B2D25201D8 PUSH29 0xE54DD70EF5FB64CB97587664736F6C634300081A003300000000000000 "
				},
				"gasEstimates": {
					"creation": {
						"codeDepositCost": "679000",
						"executionCost": "111594",
						"totalCost": "790594"
					},
					"external": {
						"difficulty()": "2452",
						"getMetrics()": "infinite",
						"getMiners()": "infinite",
						"hasSubmitted(address)": "2912",
						"lastSolutionTime()": "2473",
						"miners(uint256)": "infinite",
						"rewardPool()": "2518",
						"solutionCount()": "2540",
						"solutionRate()": "2539",
						"submitSolution(bytes32)": "infinite",
						"targetHash()": "2474",
						"trackingStartTime()": "2451"
					},
					"internal": {
						"adjustDifficulty()": "infinite",
						"updateMetrics()": "infinite"
					}
				},
				"methodIdentifiers": {
					"difficulty()": "19cae462",
					"getMetrics()": "7606f781",
					"getMiners()": "1633da6e",
					"hasSubmitted(address)": "388044b3",
					"lastSolutionTime()": "bd306cb0",
					"miners(uint256)": "e0d152af",
					"rewardPool()": "66666aa9",
					"solutionCount()": "6b3e219b",
					"solutionRate()": "fb840a2a",
					"submitSolution(bytes32)": "dc1743fa",
					"targetHash()": "31d0f968",
					"trackingStartTime()": "8b6bdd2a"
				}
			},
			"storageLayout": {
				"storage": [
					{
						"astId": 10,
						"contract": "ProofOfWorkMetrics.sol:ProofOfWorkMetrics",
						"label": "miners",
						"offset": 0,
						"slot": "0",
						"type": "t_array(t_struct(Miner)6_storage)dyn_storage"
					},
					{
						"astId": 12,
						"contract": "ProofOfWorkMetrics.sol:ProofOfWorkMetrics",
						"label": "targetHash",
						"offset": 0,
						"slot": "1",
						"type": "t_bytes32"
					},
					{
						"astId": 14,
						"contract": "ProofOfWorkMetrics.sol:ProofOfWorkMetrics",
						"label": "rewardPool",
						"offset": 0,
						"slot": "2",
						"type": "t_uint256"
					},
					{
						"astId": 16,
						"contract": "ProofOfWorkMetrics.sol:ProofOfWorkMetrics",
						"label": "difficulty",
						"offset": 0,
						"slot": "3",
						"type": "t_uint256"
					},
					{
						"astId": 18,
						"contract": "ProofOfWorkMetrics.sol:ProofOfWorkMetrics",
						"label": "lastSolutionTime",
						"offset": 0,
						"slot": "4",
						"type": "t_uint256"
					},
					{
						"astId": 20,
						"contract": "ProofOfWorkMetrics.sol:ProofOfWorkMetrics",
						"label": "solutionCount",
						"offset": 0,
						"slot": "5",
						"type": "t_uint256"
					},
					{
						"astId": 22,
						"contract": "ProofOfWorkMetrics.sol:ProofOfWorkMetrics",
						"label": "trackingStartTime",
						"offset": 0,
						"slot": "6",
						"type": "t_uint256"
					},
					{
						"astId": 24,
						"contract": "ProofOfWorkMetrics.sol:ProofOfWorkMetrics",
						"label": "solutionRate",
						"offset": 0,
						"slot": "7",
						"type": "t_uint256"
					},
					{
						"astId": 73,
						"contract": "ProofOfWorkMetrics.sol:ProofOfWorkMetrics",
						"label": "hasSubmitted",
						"offset": 0,
						"slot": "8",
						"type": "t_mapping(t_address,t_bool)"
					}
				],
				"types": {
					"t_address": {
						"encoding": "inplace",
						"label": "address",
						"numberOfBytes": "20"
					},
					"t_array(t_struct(Miner)6_storage)dyn_storage": {
						"base": "t_struct(Miner)6_storage",
						"encoding": "dynamic_array",
						"label": "struct ProofOfWorkMetrics.Miner[]",
						"numberOfBytes": "32"
					},
					"t_bool": {
						"encoding": "inplace",
						"label": "bool",
						"numberOfBytes": "1"
					},
					"t_bytes32": {
						"encoding": "inplace",
						"label": "bytes32",
						"numberOfBytes": "32"
					},
					"t_mapping(t_address,t_bool)": {
						"encoding": "mapping",
						"key": "t_address",
						"label": "mapping(address => bool)",
						"numberOfBytes": "32",
						"value": "t_bool"
					},
					"t_struct(Miner)6_storage": {
						"encoding": "inplace",
						"label": "struct ProofOfWorkMetrics.Miner",
						"members": [
							{
								"astId": 3,
								"contract": "ProofOfWorkMetrics.sol:ProofOfWorkMetrics",
								"label": "minerAddress",
								"offset": 0,
								"slot": "0",
								"type": "t_address"
							},
							{
								"astId": 5,
								"contract": "ProofOfWorkMetrics.sol:ProofOfWorkMetrics",
								"label": "reward",
								"offset": 0,
								"slot": "1",
								"type": "t_uint256"
							}
						],
						"numberOfBytes": "64"
					},
					"t_uint256": {
						"encoding": "inplace",
						"label": "uint256",
						"numberOfBytes": "32"
					}
				}
			},
			"userdoc": {
				"kind": "user",
				"methods": {},
				"version": 1
			}
		}
	}
}