{
	"ProofOfWork.sol": {
		"ProofOfWork": {
			"abi": [
				{
					"inputs": [],
					"stateMutability": "nonpayable",
					"type": "constructor"
				},
				{
					"inputs": [],
					"name": "difficulty",
					"outputs": [
						{
							"internalType": "uint256",
							"name": "",
							"type": "uint256"
						}
					],
					"stateMutability": "view",
					"type": "function"
				},
				{
					"inputs": [],
					"name": "getDifficulty",
					"outputs": [
						{
							"internalType": "uint256",
							"name": "",
							"type": "uint256"
						}
					],
					"stateMutability": "view",
					"type": "function"
				},
				{
					"inputs": [],
					"name": "getMiners",
					"outputs": [
						{
							"components": [
								{
									"internalType": "address",
									"name": "minerAddress",
									"type": "address"
								},
								{
									"internalType": "uint256",
									"name": "reward",
									"type": "uint256"
								}
							],
							"internalType": "struct ProofOfWork.Miner[]",
							"name": "",
							"type": "tuple[]"
						}
					],
					"stateMutability": "view",
					"type": "function"
				},
				{
					"inputs": [],
					"name": "lastSolutionTime",
					"outputs": [
						{
							"internalType": "uint256",
							"name": "",
							"type": "uint256"
						}
					],
					"stateMutability": "view",
					"type": "function"
				},
				{
					"inputs": [
						{
							"internalType": "uint256",
							"name": "",
							"type": "uint256"
						}
					],
					"name": "miners",
					"outputs": [
						{
							"internalType": "address",
							"name": "minerAddress",
							"type": "address"
						},
						{
							"internalType": "uint256",
							"name": "reward",
							"type": "uint256"
						}
					],
					"stateMutability": "view",
					"type": "function"
				},
				{
					"inputs": [],
					"name": "rewardPool",
					"outputs": [
						{
							"internalType": "uint256",
							"name": "",
							"type": "uint256"
						}
					],
					"stateMutability": "view",
					"type": "function"
				},
				{
					"inputs": [
						{
							"internalType": "bytes32",
							"name": "solution",
							"type": "bytes32"
						}
					],
					"name": "submitSolution",
					"outputs": [],
					"stateMutability": "nonpayable",
					"type": "function"
				},
				{
					"inputs": [],
					"name": "targetHash",
					"outputs": [
						{
							"internalType": "bytes32",
							"name": "",
							"type": "bytes32"
						}
					],
					"stateMutability": "view",
					"type": "function"
				}
			],
			"devdoc": {
				"kind": "dev",
				"methods": {},
				"version": 1
			},
			"evm": {
				"assembly": "    /* \"ProofOfWork.sol\":60:2145  contract ProofOfWork {... */\n  mstore(0x40, 0x80)\n    /* \"ProofOfWork.sol\":387:712  constructor() {... */\n  callvalue\n  dup1\n  iszero\n  tag_1\n  jumpi\n  0x00\n  dup1\n  revert\ntag_1:\n  pop\n    /* \"ProofOfWork.sol\":486:520  abi.encodePacked(\"initial_target\") */\n  add(0x20, mload(0x40))\n  tag_4\n  swap1\n  tag_5\n  jump\t// in\ntag_4:\n  mload(0x40)\n  0x20\n  dup2\n  dup4\n  sub\n  sub\n  dup2\n  mstore\n  swap1\n  0x40\n  mstore\n    /* \"ProofOfWork.sol\":476:521  keccak256(abi.encodePacked(\"initial_target\")) */\n  dup1\n  mload\n  swap1\n  0x20\n  add\n  keccak256\n    /* \"ProofOfWork.sol\":463:473  targetHash */\n  0x01\n    /* \"ProofOfWork.sol\":463:521  targetHash = keccak256(abi.encodePacked(\"initial_target\")) */\n  dup2\n  swap1\n  sstore\n  pop\n    /* \"ProofOfWork.sol\":545:548  100 */\n  0x64\n    /* \"ProofOfWork.sol\":532:542  rewardPool */\n  0x02\n    /* \"ProofOfWork.sol\":532:548  rewardPool = 100 */\n  dup2\n  swap1\n  sstore\n  pop\n    /* \"ProofOfWork.sol\":593:594  2 */\n  0x02\n    /* \"ProofOfWork.sol\":580:590  difficulty */\n  0x03\n    /* \"ProofOfWork.sol\":580:594  difficulty = 2 */\n  dup2\n  swap1\n  sstore\n  pop\n    /* \"ProofOfWork.sol\":661:676  block.timestamp */\n  timestamp\n    /* \"ProofOfWork.sol\":642:658  lastSolutionTime */\n  0x04\n    /* \"ProofOfWork.sol\":642:676  lastSolutionTime = block.timestamp */\n  dup2\n  swap1\n  sstore\n  pop\n    /* \"ProofOfWork.sol\":60:2145  contract ProofOfWork {... */\n  jump(tag_6)\n    /* \"#utility.yul\":7:155   */\ntag_7:\n    /* \"#utility.yul\":109:120   */\n  0x00\n    /* \"#utility.yul\":146:149   */\n  dup2\n    /* \"#utility.yul\":131:149   */\n  swap1\n  pop\n    /* \"#utility.yul\":7:155   */\n  swap3\n  swap2\n  pop\n  pop\n  jump\t// out\n    /* \"#utility.yul\":161:325   */\ntag_8:\n    /* \"#utility.yul\":301:317   */\n  0x696e697469616c5f746172676574000000000000000000000000000000000000\n    /* \"#utility.yul\":297:298   */\n  0x00\n    /* \"#utility.yul\":289:295   */\n  dup3\n    /* \"#utility.yul\":285:299   */\n  add\n    /* \"#utility.yul\":278:318   */\n  mstore\n    /* \"#utility.yul\":161:325   */\n  pop\n  jump\t// out\n    /* \"#utility.yul\":331:733   */\ntag_9:\n    /* \"#utility.yul\":491:494   */\n  0x00\n    /* \"#utility.yul\":512:597   */\n  tag_14\n    /* \"#utility.yul\":594:596   */\n  0x0e\n    /* \"#utility.yul\":589:592   */\n  dup4\n    /* \"#utility.yul\":512:597   */\n  tag_7\n  jump\t// in\ntag_14:\n    /* \"#utility.yul\":505:597   */\n  swap2\n  pop\n    /* \"#utility.yul\":606:699   */\n  tag_15\n    /* \"#utility.yul\":695:698   */\n  dup3\n    /* \"#utility.yul\":606:699   */\n  tag_8\n  jump\t// in\ntag_15:\n    /* \"#utility.yul\":724:726   */\n  0x0e\n    /* \"#utility.yul\":719:722   */\n  dup3\n    /* \"#utility.yul\":715:727   */\n  add\n    /* \"#utility.yul\":708:727   */\n  swap1\n  pop\n    /* \"#utility.yul\":331:733   */\n  swap2\n  swap1\n  pop\n  jump\t// out\n    /* \"#utility.yul\":739:1120   */\ntag_5:\n    /* \"#utility.yul\":924:927   */\n  0x00\n    /* \"#utility.yul\":946:1094   */\n  tag_17\n    /* \"#utility.yul\":1090:1093   */\n  dup3\n    /* \"#utility.yul\":946:1094   */\n  tag_9\n  jump\t// in\ntag_17:\n    /* \"#utility.yul\":939:1094   */\n  swap2\n  pop\n    /* \"#utility.yul\":1111:1114   */\n  dup2\n    /* \"#utility.yul\":1104:1114   */\n  swap1\n  pop\n    /* \"#utility.yul\":739:1120   */\n  swap2\n  swap1\n  pop\n  jump\t// out\n    /* \"ProofOfWork.sol\":60:2145  contract ProofOfWork {... */\ntag_6:\n  dataSize(sub_0)\n  dup1\n  dataOffset(sub_0)\n  0x00\n  codecopy\n  0x00\n  return\nstop\n\nsub_0: assembly {\n        /* \"ProofOfWork.sol\":60:2145  contract ProofOfWork {... */\n      mstore(0x40, 0x80)\n      callvalue\n      dup1\n      iszero\n      tag_1\n      jumpi\n      0x00\n      dup1\n      revert\n    tag_1:\n      pop\n      jumpi(tag_2, lt(calldatasize, 0x04))\n      shr(0xe0, calldataload(0x00))\n      dup1\n      0xb6baffe3\n      gt\n      tag_11\n      jumpi\n      dup1\n      0xb6baffe3\n      eq\n      tag_7\n      jumpi\n      dup1\n      0xbd306cb0\n      eq\n      tag_8\n      jumpi\n      dup1\n      0xdc1743fa\n      eq\n      tag_9\n      jumpi\n      dup1\n      0xe0d152af\n      eq\n      tag_10\n      jumpi\n      jump(tag_2)\n    tag_11:\n      dup1\n      0x1633da6e\n      eq\n      tag_3\n      jumpi\n      dup1\n      0x19cae462\n      eq\n      tag_4\n      jumpi\n      dup1\n      0x31d0f968\n      eq\n      tag_5\n      jumpi\n      dup1\n      0x66666aa9\n      eq\n      tag_6\n      jumpi\n    tag_2:\n      0x00\n      dup1\n      revert\n        /* \"ProofOfWork.sol\":1909:1999  function getMiners() public view returns (Miner[] memory) {... */\n    tag_3:\n      tag_12\n      tag_13\n      jump\t// in\n    tag_12:\n      mload(0x40)\n      tag_14\n      swap2\n      swap1\n      tag_15\n      jump\t// in\n    tag_14:\n      mload(0x40)\n      dup1\n      swap2\n      sub\n      swap1\n      return\n        /* \"ProofOfWork.sol\":259:281  uint public difficulty */\n    tag_4:\n      tag_16\n      tag_17\n      jump\t// in\n    tag_16:\n      mload(0x40)\n      tag_18\n      swap2\n      swap1\n      tag_19\n      jump\t// in\n    tag_18:\n      mload(0x40)\n      dup1\n      swap2\n      sub\n      swap1\n      return\n        /* \"ProofOfWork.sol\":198:223  bytes32 public targetHash */\n    tag_5:\n      tag_20\n      tag_21\n      jump\t// in\n    tag_20:\n      mload(0x40)\n      tag_22\n      swap2\n      swap1\n      tag_23\n      jump\t// in\n    tag_22:\n      mload(0x40)\n      dup1\n      swap2\n      sub\n      swap1\n      return\n        /* \"ProofOfWork.sol\":230:252  uint public rewardPool */\n    tag_6:\n      tag_24\n      tag_25\n      jump\t// in\n    tag_24:\n      mload(0x40)\n      tag_26\n      swap2\n      swap1\n      tag_19\n      jump\t// in\n    tag_26:\n      mload(0x40)\n      dup1\n      swap2\n      sub\n      swap1\n      return\n        /* \"ProofOfWork.sol\":2054:2142  function getDifficulty() public view returns (uint) {... */\n    tag_7:\n      tag_27\n      tag_28\n      jump\t// in\n    tag_27:\n      mload(0x40)\n      tag_29\n      swap2\n      swap1\n      tag_19\n      jump\t// in\n    tag_29:\n      mload(0x40)\n      dup1\n      swap2\n      sub\n      swap1\n      return\n        /* \"ProofOfWork.sol\":316:344  uint public lastSolutionTime */\n    tag_8:\n      tag_30\n      tag_31\n      jump\t// in\n    tag_30:\n      mload(0x40)\n      tag_32\n      swap2\n      swap1\n      tag_19\n      jump\t// in\n    tag_32:\n      mload(0x40)\n      dup1\n      swap2\n      sub\n      swap1\n      return\n        /* \"ProofOfWork.sol\":758:1305  function submitSolution(bytes32 solution) public {... */\n    tag_9:\n      tag_33\n      0x04\n      dup1\n      calldatasize\n      sub\n      dup2\n      add\n      swap1\n      tag_34\n      swap2\n      swap1\n      tag_35\n      jump\t// in\n    tag_34:\n      tag_36\n      jump\t// in\n    tag_33:\n      stop\n        /* \"ProofOfWork.sol\":170:191  Miner[] public miners */\n    tag_10:\n      tag_37\n      0x04\n      dup1\n      calldatasize\n      sub\n      dup2\n      add\n      swap1\n      tag_38\n      swap2\n      swap1\n      tag_39\n      jump\t// in\n    tag_38:\n      tag_40\n      jump\t// in\n    tag_37:\n      mload(0x40)\n      tag_41\n      swap3\n      swap2\n      swap1\n      tag_42\n      jump\t// in\n    tag_41:\n      mload(0x40)\n      dup1\n      swap2\n      sub\n      swap1\n      return\n        /* \"ProofOfWork.sol\":1909:1999  function getMiners() public view returns (Miner[] memory) {... */\n    tag_13:\n        /* \"ProofOfWork.sol\":1951:1965  Miner[] memory */\n      0x60\n        /* \"ProofOfWork.sol\":1985:1991  miners */\n      0x00\n        /* \"ProofOfWork.sol\":1978:1991  return miners */\n      dup1\n      sload\n      dup1\n      0x20\n      mul\n      0x20\n      add\n      mload(0x40)\n      swap1\n      dup2\n      add\n      0x40\n      mstore\n      dup1\n      swap3\n      swap2\n      swap1\n      dup2\n      dup2\n      mstore\n      0x20\n      add\n      0x00\n      swap1\n    tag_44:\n      dup3\n      dup3\n      lt\n      iszero\n      tag_45\n      jumpi\n      dup4\n      dup3\n      swap1\n      0x00\n      mstore\n      keccak256(0x00, 0x20)\n      swap1\n      0x02\n      mul\n      add\n      mload(0x40)\n      dup1\n      0x40\n      add\n      0x40\n      mstore\n      swap1\n      dup2\n      0x00\n      dup3\n      add\n      0x00\n      swap1\n      sload\n      swap1\n      0x0100\n      exp\n      swap1\n      div\n      0xffffffffffffffffffffffffffffffffffffffff\n      and\n      0xffffffffffffffffffffffffffffffffffffffff\n      and\n      0xffffffffffffffffffffffffffffffffffffffff\n      and\n      dup2\n      mstore\n      0x20\n      add\n      0x01\n      dup3\n      add\n      sload\n      dup2\n      mstore\n      pop\n      pop\n      dup2\n      mstore\n      0x20\n      add\n      swap1\n      0x01\n      add\n      swap1\n      jump(tag_44)\n    tag_45:\n      pop\n      pop\n      pop\n      pop\n      swap1\n      pop\n        /* \"ProofOfWork.sol\":1909:1999  function getMiners() public view returns (Miner[] memory) {... */\n      swap1\n      jump\t// out\n        /* \"ProofOfWork.sol\":259:281  uint public difficulty */\n    tag_17:\n      sload(0x03)\n      dup2\n      jump\t// out\n        /* \"ProofOfWork.sol\":198:223  bytes32 public targetHash */\n    tag_21:\n      sload(0x01)\n      dup2\n      jump\t// out\n        /* \"ProofOfWork.sol\":230:252  uint public rewardPool */\n    tag_25:\n      sload(0x02)\n      dup2\n      jump\t// out\n        /* \"ProofOfWork.sol\":2054:2142  function getDifficulty() public view returns (uint) {... */\n    tag_28:\n        /* \"ProofOfWork.sol\":2100:2104  uint */\n      0x00\n        /* \"ProofOfWork.sol\":2124:2134  difficulty */\n      sload(0x03)\n        /* \"ProofOfWork.sol\":2117:2134  return difficulty */\n      swap1\n      pop\n        /* \"ProofOfWork.sol\":2054:2142  function getDifficulty() public view returns (uint) {... */\n      swap1\n      jump\t// out\n        /* \"ProofOfWork.sol\":316:344  uint public lastSolutionTime */\n    tag_31:\n      sload(0x04)\n      dup2\n      jump\t// out\n        /* \"ProofOfWork.sol\":758:1305  function submitSolution(bytes32 solution) public {... */\n    tag_36:\n        /* \"ProofOfWork.sol\":839:840  0 */\n      0x00\n        /* \"ProofOfWork.sol\":826:836  rewardPool */\n      sload(0x02)\n        /* \"ProofOfWork.sol\":826:840  rewardPool > 0 */\n      gt\n        /* \"ProofOfWork.sol\":818:860  require(rewardPool > 0, \"No rewards left\") */\n      tag_49\n      jumpi\n      mload(0x40)\n      0x08c379a000000000000000000000000000000000000000000000000000000000\n      dup2\n      mstore\n      0x04\n      add\n      tag_50\n      swap1\n      tag_51\n      jump\t// in\n    tag_50:\n      mload(0x40)\n      dup1\n      swap2\n      sub\n      swap1\n      revert\n    tag_49:\n        /* \"ProofOfWork.sol\":958:968  targetHash */\n      sload(0x01)\n        /* \"ProofOfWork.sol\":946:954  solution */\n      dup2\n        /* \"ProofOfWork.sol\":946:968  solution == targetHash */\n      sub\n        /* \"ProofOfWork.sol\":942:1298  if (solution == targetHash) {... */\n      tag_52\n      jumpi\n        /* \"ProofOfWork.sol\":985:991  miners */\n      0x00\n        /* \"ProofOfWork.sol\":997:1018  Miner(msg.sender, 10) */\n      mload(0x40)\n      dup1\n      0x40\n      add\n      0x40\n      mstore\n      dup1\n        /* \"ProofOfWork.sol\":1003:1013  msg.sender */\n      caller\n        /* \"ProofOfWork.sol\":997:1018  Miner(msg.sender, 10) */\n      0xffffffffffffffffffffffffffffffffffffffff\n      and\n      dup2\n      mstore\n      0x20\n      add\n        /* \"ProofOfWork.sol\":1015:1017  10 */\n      0x0a\n        /* \"ProofOfWork.sol\":997:1018  Miner(msg.sender, 10) */\n      dup2\n      mstore\n      pop\n        /* \"ProofOfWork.sol\":985:1019  miners.push(Miner(msg.sender, 10)) */\n      swap1\n      dup1\n      0x01\n      dup2\n      sload\n      add\n      dup1\n      dup3\n      sstore\n      dup1\n      swap2\n      pop\n      pop\n      0x01\n      swap1\n      sub\n      swap1\n      0x00\n      mstore\n      keccak256(0x00, 0x20)\n      swap1\n      0x02\n      mul\n      add\n      0x00\n      swap1\n      swap2\n      swap1\n      swap2\n      swap1\n      swap2\n      pop\n      0x00\n      dup3\n      add\n      mload\n      dup2\n      0x00\n      add\n      exp(0x0100, 0x00)\n      dup2\n      sload\n      dup2\n      0xffffffffffffffffffffffffffffffffffffffff\n      mul\n      not\n      and\n      swap1\n      dup4\n      0xffffffffffffffffffffffffffffffffffffffff\n      and\n      mul\n      or\n      swap1\n      sstore\n      pop\n      0x20\n      dup3\n      add\n      mload\n      dup2\n      0x01\n      add\n      sstore\n      pop\n      pop\n        /* \"ProofOfWork.sol\":1068:1070  10 */\n      0x0a\n        /* \"ProofOfWork.sol\":1054:1064  rewardPool */\n      0x02\n      0x00\n        /* \"ProofOfWork.sol\":1054:1070  rewardPool -= 10 */\n      dup3\n      dup3\n      sload\n      tag_54\n      swap2\n      swap1\n      tag_55\n      jump\t// in\n    tag_54:\n      swap3\n      pop\n      pop\n      dup2\n      swap1\n      sstore\n      pop\n        /* \"ProofOfWork.sol\":1133:1151  adjustDifficulty() */\n      tag_56\n        /* \"ProofOfWork.sol\":1133:1149  adjustDifficulty */\n      tag_57\n        /* \"ProofOfWork.sol\":1133:1151  adjustDifficulty() */\n      jump\t// in\n    tag_56:\n        /* \"ProofOfWork.sol\":1251:1266  block.timestamp */\n      timestamp\n        /* \"ProofOfWork.sol\":1268:1284  block.difficulty */\n      difficulty\n        /* \"ProofOfWork.sol\":1234:1285  abi.encodePacked(block.timestamp, block.difficulty) */\n      add(0x20, mload(0x40))\n      tag_58\n      swap3\n      swap2\n      swap1\n      tag_59\n      jump\t// in\n    tag_58:\n      mload(0x40)\n      0x20\n      dup2\n      dup4\n      sub\n      sub\n      dup2\n      mstore\n      swap1\n      0x40\n      mstore\n        /* \"ProofOfWork.sol\":1224:1286  keccak256(abi.encodePacked(block.timestamp, block.difficulty)) */\n      dup1\n      mload\n      swap1\n      0x20\n      add\n      keccak256\n        /* \"ProofOfWork.sol\":1211:1221  targetHash */\n      0x01\n        /* \"ProofOfWork.sol\":1211:1286  targetHash = keccak256(abi.encodePacked(block.timestamp, block.difficulty)) */\n      dup2\n      swap1\n      sstore\n      pop\n        /* \"ProofOfWork.sol\":942:1298  if (solution == targetHash) {... */\n    tag_52:\n        /* \"ProofOfWork.sol\":758:1305  function submitSolution(bytes32 solution) public {... */\n      pop\n      jump\t// out\n        /* \"ProofOfWork.sol\":170:191  Miner[] public miners */\n    tag_40:\n      0x00\n      dup2\n      dup2\n      sload\n      dup2\n      lt\n      tag_60\n      jumpi\n      0x00\n      dup1\n      revert\n    tag_60:\n      swap1\n      0x00\n      mstore\n      keccak256(0x00, 0x20)\n      swap1\n      0x02\n      mul\n      add\n      0x00\n      swap2\n      pop\n      swap1\n      pop\n      dup1\n      0x00\n      add\n      0x00\n      swap1\n      sload\n      swap1\n      0x0100\n      exp\n      swap1\n      div\n      0xffffffffffffffffffffffffffffffffffffffff\n      and\n      swap1\n      dup1\n      0x01\n      add\n      sload\n      swap1\n      pop\n      dup3\n      jump\t// out\n        /* \"ProofOfWork.sol\":1363:1853  function adjustDifficulty() internal {... */\n    tag_57:\n        /* \"ProofOfWork.sol\":1411:1425  uint timeTaken */\n      0x00\n        /* \"ProofOfWork.sol\":1446:1462  lastSolutionTime */\n      sload(0x04)\n        /* \"ProofOfWork.sol\":1428:1443  block.timestamp */\n      timestamp\n        /* \"ProofOfWork.sol\":1428:1462  block.timestamp - lastSolutionTime */\n      tag_63\n      swap2\n      swap1\n      tag_55\n      jump\t// in\n    tag_63:\n        /* \"ProofOfWork.sol\":1411:1462  uint timeTaken = block.timestamp - lastSolutionTime */\n      swap1\n      pop\n        /* \"ProofOfWork.sol\":1491:1502  100 seconds */\n      0x64\n        /* \"ProofOfWork.sol\":1479:1488  timeTaken */\n      dup2\n        /* \"ProofOfWork.sol\":1479:1502  timeTaken < 100 seconds */\n      lt\n        /* \"ProofOfWork.sol\":1475:1766  if (timeTaken < 100 seconds) {... */\n      iszero\n      tag_64\n      jumpi\n        /* \"ProofOfWork.sol\":1596:1597  1 */\n      0x01\n        /* \"ProofOfWork.sol\":1582:1592  difficulty */\n      0x03\n      0x00\n        /* \"ProofOfWork.sol\":1582:1597  difficulty += 1 */\n      dup3\n      dup3\n      sload\n      tag_65\n      swap2\n      swap1\n      tag_66\n      jump\t// in\n    tag_65:\n      swap3\n      pop\n      pop\n      dup2\n      swap1\n      sstore\n      pop\n        /* \"ProofOfWork.sol\":1475:1766  if (timeTaken < 100 seconds) {... */\n      jump(tag_67)\n    tag_64:\n        /* \"ProofOfWork.sol\":1631:1641  30 seconds */\n      0x1e\n        /* \"ProofOfWork.sol\":1619:1628  timeTaken */\n      dup2\n        /* \"ProofOfWork.sol\":1619:1641  timeTaken > 30 seconds */\n      gt\n        /* \"ProofOfWork.sol\":1619:1659  timeTaken > 30 seconds && difficulty > 1 */\n      dup1\n      iszero\n      tag_68\n      jumpi\n      pop\n        /* \"ProofOfWork.sol\":1658:1659  1 */\n      0x01\n        /* \"ProofOfWork.sol\":1645:1655  difficulty */\n      sload(0x03)\n        /* \"ProofOfWork.sol\":1645:1659  difficulty > 1 */\n      gt\n        /* \"ProofOfWork.sol\":1619:1659  timeTaken > 30 seconds && difficulty > 1 */\n    tag_68:\n        /* \"ProofOfWork.sol\":1615:1766  if (timeTaken > 30 seconds && difficulty > 1) {... */\n      iszero\n      tag_69\n      jumpi\n        /* \"ProofOfWork.sol\":1753:1754  1 */\n      0x01\n        /* \"ProofOfWork.sol\":1739:1749  difficulty */\n      0x03\n      0x00\n        /* \"ProofOfWork.sol\":1739:1754  difficulty -= 1 */\n      dup3\n      dup3\n      sload\n      tag_70\n      swap2\n      swap1\n      tag_55\n      jump\t// in\n    tag_70:\n      swap3\n      pop\n      pop\n      dup2\n      swap1\n      sstore\n      pop\n        /* \"ProofOfWork.sol\":1615:1766  if (timeTaken > 30 seconds && difficulty > 1) {... */\n    tag_69:\n        /* \"ProofOfWork.sol\":1475:1766  if (timeTaken < 100 seconds) {... */\n    tag_67:\n        /* \"ProofOfWork.sol\":1797:1812  block.timestamp */\n      timestamp\n        /* \"ProofOfWork.sol\":1778:1794  lastSolutionTime */\n      0x04\n        /* \"ProofOfWork.sol\":1778:1812  lastSolutionTime = block.timestamp */\n      dup2\n      swap1\n      sstore\n      pop\n        /* \"ProofOfWork.sol\":1400:1853  {... */\n      pop\n        /* \"ProofOfWork.sol\":1363:1853  function adjustDifficulty() internal {... */\n      jump\t// out\n        /* \"#utility.yul\":7:141   */\n    tag_71:\n        /* \"#utility.yul\":94:100   */\n      0x00\n        /* \"#utility.yul\":128:133   */\n      dup2\n        /* \"#utility.yul\":122:134   */\n      mload\n        /* \"#utility.yul\":112:134   */\n      swap1\n      pop\n        /* \"#utility.yul\":7:141   */\n      swap2\n      swap1\n      pop\n      jump\t// out\n        /* \"#utility.yul\":147:351   */\n    tag_72:\n        /* \"#utility.yul\":266:277   */\n      0x00\n        /* \"#utility.yul\":300:306   */\n      dup3\n        /* \"#utility.yul\":295:298   */\n      dup3\n        /* \"#utility.yul\":288:307   */\n      mstore\n        /* \"#utility.yul\":340:344   */\n      0x20\n        /* \"#utility.yul\":335:338   */\n      dup3\n        /* \"#utility.yul\":331:345   */\n      add\n        /* \"#utility.yul\":316:345   */\n      swap1\n      pop\n        /* \"#utility.yul\":147:351   */\n      swap3\n      swap2\n      pop\n      pop\n      jump\t// out\n        /* \"#utility.yul\":357:509   */\n    tag_73:\n        /* \"#utility.yul\":444:448   */\n      0x00\n        /* \"#utility.yul\":467:470   */\n      dup2\n        /* \"#utility.yul\":459:470   */\n      swap1\n      pop\n        /* \"#utility.yul\":497:501   */\n      0x20\n        /* \"#utility.yul\":492:495   */\n      dup3\n        /* \"#utility.yul\":488:502   */\n      add\n        /* \"#utility.yul\":480:502   */\n      swap1\n      pop\n        /* \"#utility.yul\":357:509   */\n      swap2\n      swap1\n      pop\n      jump\t// out\n        /* \"#utility.yul\":515:641   */\n    tag_74:\n        /* \"#utility.yul\":552:559   */\n      0x00\n        /* \"#utility.yul\":592:634   */\n      0xffffffffffffffffffffffffffffffffffffffff\n        /* \"#utility.yul\":585:590   */\n      dup3\n        /* \"#utility.yul\":581:635   */\n      and\n        /* \"#utility.yul\":570:635   */\n      swap1\n      pop\n        /* \"#utility.yul\":515:641   */\n      swap2\n      swap1\n      pop\n      jump\t// out\n        /* \"#utility.yul\":647:743   */\n    tag_75:\n        /* \"#utility.yul\":684:691   */\n      0x00\n        /* \"#utility.yul\":713:737   */\n      tag_106\n        /* \"#utility.yul\":731:736   */\n      dup3\n        /* \"#utility.yul\":713:737   */\n      tag_74\n      jump\t// in\n    tag_106:\n        /* \"#utility.yul\":702:737   */\n      swap1\n      pop\n        /* \"#utility.yul\":647:743   */\n      swap2\n      swap1\n      pop\n      jump\t// out\n        /* \"#utility.yul\":749:857   */\n    tag_76:\n        /* \"#utility.yul\":826:850   */\n      tag_108\n        /* \"#utility.yul\":844:849   */\n      dup2\n        /* \"#utility.yul\":826:850   */\n      tag_75\n      jump\t// in\n    tag_108:\n        /* \"#utility.yul\":821:824   */\n      dup3\n        /* \"#utility.yul\":814:851   */\n      mstore\n        /* \"#utility.yul\":749:857   */\n      pop\n      pop\n      jump\t// out\n        /* \"#utility.yul\":863:940   */\n    tag_77:\n        /* \"#utility.yul\":900:907   */\n      0x00\n        /* \"#utility.yul\":929:934   */\n      dup2\n        /* \"#utility.yul\":918:934   */\n      swap1\n      pop\n        /* \"#utility.yul\":863:940   */\n      swap2\n      swap1\n      pop\n      jump\t// out\n        /* \"#utility.yul\":946:1054   */\n    tag_78:\n        /* \"#utility.yul\":1023:1047   */\n      tag_111\n        /* \"#utility.yul\":1041:1046   */\n      dup2\n        /* \"#utility.yul\":1023:1047   */\n      tag_77\n      jump\t// in\n    tag_111:\n        /* \"#utility.yul\":1018:1021   */\n      dup3\n        /* \"#utility.yul\":1011:1048   */\n      mstore\n        /* \"#utility.yul\":946:1054   */\n      pop\n      pop\n      jump\t// out\n        /* \"#utility.yul\":1120:1617   */\n    tag_79:\n        /* \"#utility.yul\":1247:1251   */\n      0x40\n        /* \"#utility.yul\":1242:1245   */\n      dup3\n        /* \"#utility.yul\":1238:1252   */\n      add\n        /* \"#utility.yul\":1342:1346   */\n      0x00\n        /* \"#utility.yul\":1335:1340   */\n      dup3\n        /* \"#utility.yul\":1331:1347   */\n      add\n        /* \"#utility.yul\":1325:1348   */\n      mload\n        /* \"#utility.yul\":1361:1424   */\n      tag_113\n        /* \"#utility.yul\":1418:1422   */\n      0x00\n        /* \"#utility.yul\":1413:1416   */\n      dup6\n        /* \"#utility.yul\":1409:1423   */\n      add\n        /* \"#utility.yul\":1395:1407   */\n      dup3\n        /* \"#utility.yul\":1361:1424   */\n      tag_76\n      jump\t// in\n    tag_113:\n        /* \"#utility.yul\":1262:1434   */\n      pop\n        /* \"#utility.yul\":1518:1522   */\n      0x20\n        /* \"#utility.yul\":1511:1516   */\n      dup3\n        /* \"#utility.yul\":1507:1523   */\n      add\n        /* \"#utility.yul\":1501:1524   */\n      mload\n        /* \"#utility.yul\":1537:1600   */\n      tag_114\n        /* \"#utility.yul\":1594:1598   */\n      0x20\n        /* \"#utility.yul\":1589:1592   */\n      dup6\n        /* \"#utility.yul\":1585:1599   */\n      add\n        /* \"#utility.yul\":1571:1583   */\n      dup3\n        /* \"#utility.yul\":1537:1600   */\n      tag_78\n      jump\t// in\n    tag_114:\n        /* \"#utility.yul\":1444:1610   */\n      pop\n        /* \"#utility.yul\":1216:1617   */\n      pop\n        /* \"#utility.yul\":1120:1617   */\n      pop\n      pop\n      jump\t// out\n        /* \"#utility.yul\":1623:1882   */\n    tag_80:\n        /* \"#utility.yul\":1732:1742   */\n      0x00\n        /* \"#utility.yul\":1753:1839   */\n      tag_116\n        /* \"#utility.yul\":1835:1838   */\n      dup4\n        /* \"#utility.yul\":1827:1833   */\n      dup4\n        /* \"#utility.yul\":1753:1839   */\n      tag_79\n      jump\t// in\n    tag_116:\n        /* \"#utility.yul\":1871:1875   */\n      0x40\n        /* \"#utility.yul\":1866:1869   */\n      dup4\n        /* \"#utility.yul\":1862:1876   */\n      add\n        /* \"#utility.yul\":1848:1876   */\n      swap1\n      pop\n        /* \"#utility.yul\":1623:1882   */\n      swap3\n      swap2\n      pop\n      pop\n      jump\t// out\n        /* \"#utility.yul\":1888:2021   */\n    tag_81:\n        /* \"#utility.yul\":1978:1982   */\n      0x00\n        /* \"#utility.yul\":2010:2014   */\n      0x20\n        /* \"#utility.yul\":2005:2008   */\n      dup3\n        /* \"#utility.yul\":2001:2015   */\n      add\n        /* \"#utility.yul\":1993:2015   */\n      swap1\n      pop\n        /* \"#utility.yul\":1888:2021   */\n      swap2\n      swap1\n      pop\n      jump\t// out\n        /* \"#utility.yul\":2091:2983   */\n    tag_82:\n        /* \"#utility.yul\":2250:2253   */\n      0x00\n        /* \"#utility.yul\":2279:2353   */\n      tag_119\n        /* \"#utility.yul\":2347:2352   */\n      dup3\n        /* \"#utility.yul\":2279:2353   */\n      tag_71\n      jump\t// in\n    tag_119:\n        /* \"#utility.yul\":2369:2475   */\n      tag_120\n        /* \"#utility.yul\":2468:2474   */\n      dup2\n        /* \"#utility.yul\":2463:2466   */\n      dup6\n        /* \"#utility.yul\":2369:2475   */\n      tag_72\n      jump\t// in\n    tag_120:\n        /* \"#utility.yul\":2362:2475   */\n      swap4\n      pop\n        /* \"#utility.yul\":2499:2575   */\n      tag_121\n        /* \"#utility.yul\":2569:2574   */\n      dup4\n        /* \"#utility.yul\":2499:2575   */\n      tag_73\n      jump\t// in\n    tag_121:\n        /* \"#utility.yul\":2598:2605   */\n      dup1\n        /* \"#utility.yul\":2629:2630   */\n      0x00\n        /* \"#utility.yul\":2614:2958   */\n    tag_122:\n        /* \"#utility.yul\":2639:2645   */\n      dup4\n        /* \"#utility.yul\":2636:2637   */\n      dup2\n        /* \"#utility.yul\":2633:2646   */\n      lt\n        /* \"#utility.yul\":2614:2958   */\n      iszero\n      tag_124\n      jumpi\n        /* \"#utility.yul\":2715:2721   */\n      dup2\n        /* \"#utility.yul\":2709:2722   */\n      mload\n        /* \"#utility.yul\":2742:2845   */\n      tag_125\n        /* \"#utility.yul\":2841:2844   */\n      dup9\n        /* \"#utility.yul\":2826:2839   */\n      dup3\n        /* \"#utility.yul\":2742:2845   */\n      tag_80\n      jump\t// in\n    tag_125:\n        /* \"#utility.yul\":2735:2845   */\n      swap8\n      pop\n        /* \"#utility.yul\":2868:2948   */\n      tag_126\n        /* \"#utility.yul\":2941:2947   */\n      dup4\n        /* \"#utility.yul\":2868:2948   */\n      tag_81\n      jump\t// in\n    tag_126:\n        /* \"#utility.yul\":2858:2948   */\n      swap3\n      pop\n        /* \"#utility.yul\":2674:2958   */\n      pop\n        /* \"#utility.yul\":2661:2662   */\n      0x01\n        /* \"#utility.yul\":2658:2659   */\n      dup2\n        /* \"#utility.yul\":2654:2663   */\n      add\n        /* \"#utility.yul\":2649:2663   */\n      swap1\n      pop\n        /* \"#utility.yul\":2614:2958   */\n      jump(tag_122)\n    tag_124:\n        /* \"#utility.yul\":2618:2632   */\n      pop\n        /* \"#utility.yul\":2974:2977   */\n      dup6\n        /* \"#utility.yul\":2967:2977   */\n      swap4\n      pop\n        /* \"#utility.yul\":2255:2983   */\n      pop\n      pop\n      pop\n        /* \"#utility.yul\":2091:2983   */\n      swap3\n      swap2\n      pop\n      pop\n      jump\t// out\n        /* \"#utility.yul\":2989:3442   */\n    tag_15:\n        /* \"#utility.yul\":3172:3176   */\n      0x00\n        /* \"#utility.yul\":3210:3212   */\n      0x20\n        /* \"#utility.yul\":3199:3208   */\n      dup3\n        /* \"#utility.yul\":3195:3213   */\n      add\n        /* \"#utility.yul\":3187:3213   */\n      swap1\n      pop\n        /* \"#utility.yul\":3259:3268   */\n      dup2\n        /* \"#utility.yul\":3253:3257   */\n      dup2\n        /* \"#utility.yul\":3249:3269   */\n      sub\n        /* \"#utility.yul\":3245:3246   */\n      0x00\n        /* \"#utility.yul\":3234:3243   */\n      dup4\n        /* \"#utility.yul\":3230:3247   */\n      add\n        /* \"#utility.yul\":3223:3270   */\n      mstore\n        /* \"#utility.yul\":3287:3435   */\n      tag_128\n        /* \"#utility.yul\":3430:3434   */\n      dup2\n        /* \"#utility.yul\":3421:3427   */\n      dup5\n        /* \"#utility.yul\":3287:3435   */\n      tag_82\n      jump\t// in\n    tag_128:\n        /* \"#utility.yul\":3279:3435   */\n      swap1\n      pop\n        /* \"#utility.yul\":2989:3442   */\n      swap3\n      swap2\n      pop\n      pop\n      jump\t// out\n        /* \"#utility.yul\":3448:3566   */\n    tag_83:\n        /* \"#utility.yul\":3535:3559   */\n      tag_130\n        /* \"#utility.yul\":3553:3558   */\n      dup2\n        /* \"#utility.yul\":3535:3559   */\n      tag_77\n      jump\t// in\n    tag_130:\n        /* \"#utility.yul\":3530:3533   */\n      dup3\n        /* \"#utility.yul\":3523:3560   */\n      mstore\n        /* \"#utility.yul\":3448:3566   */\n      pop\n      pop\n      jump\t// out\n        /* \"#utility.yul\":3572:3794   */\n    tag_19:\n        /* \"#utility.yul\":3665:3669   */\n      0x00\n        /* \"#utility.yul\":3703:3705   */\n      0x20\n        /* \"#utility.yul\":3692:3701   */\n      dup3\n        /* \"#utility.yul\":3688:3706   */\n      add\n        /* \"#utility.yul\":3680:3706   */\n      swap1\n      pop\n        /* \"#utility.yul\":3716:3787   */\n      tag_132\n        /* \"#utility.yul\":3784:3785   */\n      0x00\n        /* \"#utility.yul\":3773:3782   */\n      dup4\n        /* \"#utility.yul\":3769:3786   */\n      add\n        /* \"#utility.yul\":3760:3766   */\n      dup5\n        /* \"#utility.yul\":3716:3787   */\n      tag_83\n      jump\t// in\n    tag_132:\n        /* \"#utility.yul\":3572:3794   */\n      swap3\n      swap2\n      pop\n      pop\n      jump\t// out\n        /* \"#utility.yul\":3800:3877   */\n    tag_84:\n        /* \"#utility.yul\":3837:3844   */\n      0x00\n        /* \"#utility.yul\":3866:3871   */\n      dup2\n        /* \"#utility.yul\":3855:3871   */\n      swap1\n      pop\n        /* \"#utility.yul\":3800:3877   */\n      swap2\n      swap1\n      pop\n      jump\t// out\n        /* \"#utility.yul\":3883:4001   */\n    tag_85:\n        /* \"#utility.yul\":3970:3994   */\n      tag_135\n        /* \"#utility.yul\":3988:3993   */\n      dup2\n        /* \"#utility.yul\":3970:3994   */\n      tag_84\n      jump\t// in\n    tag_135:\n        /* \"#utility.yul\":3965:3968   */\n      dup3\n        /* \"#utility.yul\":3958:3995   */\n      mstore\n        /* \"#utility.yul\":3883:4001   */\n      pop\n      pop\n      jump\t// out\n        /* \"#utility.yul\":4007:4229   */\n    tag_23:\n        /* \"#utility.yul\":4100:4104   */\n      0x00\n        /* \"#utility.yul\":4138:4140   */\n      0x20\n        /* \"#utility.yul\":4127:4136   */\n      dup3\n        /* \"#utility.yul\":4123:4141   */\n      add\n        /* \"#utility.yul\":4115:4141   */\n      swap1\n      pop\n        /* \"#utility.yul\":4151:4222   */\n      tag_137\n        /* \"#utility.yul\":4219:4220   */\n      0x00\n        /* \"#utility.yul\":4208:4217   */\n      dup4\n        /* \"#utility.yul\":4204:4221   */\n      add\n        /* \"#utility.yul\":4195:4201   */\n      dup5\n        /* \"#utility.yul\":4151:4222   */\n      tag_85\n      jump\t// in\n    tag_137:\n        /* \"#utility.yul\":4007:4229   */\n      swap3\n      swap2\n      pop\n      pop\n      jump\t// out\n        /* \"#utility.yul\":4316:4433   */\n    tag_87:\n        /* \"#utility.yul\":4425:4426   */\n      0x00\n        /* \"#utility.yul\":4422:4423   */\n      dup1\n        /* \"#utility.yul\":4415:4427   */\n      revert\n        /* \"#utility.yul\":4562:4684   */\n    tag_89:\n        /* \"#utility.yul\":4635:4659   */\n      tag_142\n        /* \"#utility.yul\":4653:4658   */\n      dup2\n        /* \"#utility.yul\":4635:4659   */\n      tag_84\n      jump\t// in\n    tag_142:\n        /* \"#utility.yul\":4628:4633   */\n      dup2\n        /* \"#utility.yul\":4625:4660   */\n      eq\n        /* \"#utility.yul\":4615:4678   */\n      tag_143\n      jumpi\n        /* \"#utility.yul\":4674:4675   */\n      0x00\n        /* \"#utility.yul\":4671:4672   */\n      dup1\n        /* \"#utility.yul\":4664:4676   */\n      revert\n        /* \"#utility.yul\":4615:4678   */\n    tag_143:\n        /* \"#utility.yul\":4562:4684   */\n      pop\n      jump\t// out\n        /* \"#utility.yul\":4690:4829   */\n    tag_90:\n        /* \"#utility.yul\":4736:4741   */\n      0x00\n        /* \"#utility.yul\":4774:4780   */\n      dup2\n        /* \"#utility.yul\":4761:4781   */\n      calldataload\n        /* \"#utility.yul\":4752:4781   */\n      swap1\n      pop\n        /* \"#utility.yul\":4790:4823   */\n      tag_145\n        /* \"#utility.yul\":4817:4822   */\n      dup2\n        /* \"#utility.yul\":4790:4823   */\n      tag_89\n      jump\t// in\n    tag_145:\n        /* \"#utility.yul\":4690:4829   */\n      swap3\n      swap2\n      pop\n      pop\n      jump\t// out\n        /* \"#utility.yul\":4835:5164   */\n    tag_35:\n        /* \"#utility.yul\":4894:4900   */\n      0x00\n        /* \"#utility.yul\":4943:4945   */\n      0x20\n        /* \"#utility.yul\":4931:4940   */\n      dup3\n        /* \"#utility.yul\":4922:4929   */\n      dup5\n        /* \"#utility.yul\":4918:4941   */\n      sub\n        /* \"#utility.yul\":4914:4946   */\n      slt\n        /* \"#utility.yul\":4911:5030   */\n      iszero\n      tag_147\n      jumpi\n        /* \"#utility.yul\":4949:5028   */\n      tag_148\n      tag_87\n      jump\t// in\n    tag_148:\n        /* \"#utility.yul\":4911:5030   */\n    tag_147:\n        /* \"#utility.yul\":5069:5070   */\n      0x00\n        /* \"#utility.yul\":5094:5147   */\n      tag_149\n        /* \"#utility.yul\":5139:5146   */\n      dup5\n        /* \"#utility.yul\":5130:5136   */\n      dup3\n        /* \"#utility.yul\":5119:5128   */\n      dup6\n        /* \"#utility.yul\":5115:5137   */\n      add\n        /* \"#utility.yul\":5094:5147   */\n      tag_90\n      jump\t// in\n    tag_149:\n        /* \"#utility.yul\":5084:5147   */\n      swap2\n      pop\n        /* \"#utility.yul\":5040:5157   */\n      pop\n        /* \"#utility.yul\":4835:5164   */\n      swap3\n      swap2\n      pop\n      pop\n      jump\t// out\n        /* \"#utility.yul\":5170:5292   */\n    tag_91:\n        /* \"#utility.yul\":5243:5267   */\n      tag_151\n        /* \"#utility.yul\":5261:5266   */\n      dup2\n        /* \"#utility.yul\":5243:5267   */\n      tag_77\n      jump\t// in\n    tag_151:\n        /* \"#utility.yul\":5236:5241   */\n      dup2\n        /* \"#utility.yul\":5233:5268   */\n      eq\n        /* \"#utility.yul\":5223:5286   */\n      tag_152\n      jumpi\n        /* \"#utility.yul\":5282:5283   */\n      0x00\n        /* \"#utility.yul\":5279:5280   */\n      dup1\n        /* \"#utility.yul\":5272:5284   */\n      revert\n        /* \"#utility.yul\":5223:5286   */\n    tag_152:\n        /* \"#utility.yul\":5170:5292   */\n      pop\n      jump\t// out\n        /* \"#utility.yul\":5298:5437   */\n    tag_92:\n        /* \"#utility.yul\":5344:5349   */\n      0x00\n        /* \"#utility.yul\":5382:5388   */\n      dup2\n        /* \"#utility.yul\":5369:5389   */\n      calldataload\n        /* \"#utility.yul\":5360:5389   */\n      swap1\n      pop\n        /* \"#utility.yul\":5398:5431   */\n      tag_154\n        /* \"#utility.yul\":5425:5430   */\n      dup2\n        /* \"#utility.yul\":5398:5431   */\n      tag_91\n      jump\t// in\n    tag_154:\n        /* \"#utility.yul\":5298:5437   */\n      swap3\n      swap2\n      pop\n      pop\n      jump\t// out\n        /* \"#utility.yul\":5443:5772   */\n    tag_39:\n        /* \"#utility.yul\":5502:5508   */\n      0x00\n        /* \"#utility.yul\":5551:5553   */\n      0x20\n        /* \"#utility.yul\":5539:5548   */\n      dup3\n        /* \"#utility.yul\":5530:5537   */\n      dup5\n        /* \"#utility.yul\":5526:5549   */\n      sub\n        /* \"#utility.yul\":5522:5554   */\n      slt\n        /* \"#utility.yul\":5519:5638   */\n      iszero\n      tag_156\n      jumpi\n        /* \"#utility.yul\":5557:5636   */\n      tag_157\n      tag_87\n      jump\t// in\n    tag_157:\n        /* \"#utility.yul\":5519:5638   */\n    tag_156:\n        /* \"#utility.yul\":5677:5678   */\n      0x00\n        /* \"#utility.yul\":5702:5755   */\n      tag_158\n        /* \"#utility.yul\":5747:5754   */\n      dup5\n        /* \"#utility.yul\":5738:5744   */\n      dup3\n        /* \"#utility.yul\":5727:5736   */\n      dup6\n        /* \"#utility.yul\":5723:5745   */\n      add\n        /* \"#utility.yul\":5702:5755   */\n      tag_92\n      jump\t// in\n    tag_158:\n        /* \"#utility.yul\":5692:5755   */\n      swap2\n      pop\n        /* \"#utility.yul\":5648:5765   */\n      pop\n        /* \"#utility.yul\":5443:5772   */\n      swap3\n      swap2\n      pop\n      pop\n      jump\t// out\n        /* \"#utility.yul\":5778:5896   */\n    tag_93:\n        /* \"#utility.yul\":5865:5889   */\n      tag_160\n        /* \"#utility.yul\":5883:5888   */\n      dup2\n        /* \"#utility.yul\":5865:5889   */\n      tag_75\n      jump\t// in\n    tag_160:\n        /* \"#utility.yul\":5860:5863   */\n      dup3\n        /* \"#utility.yul\":5853:5890   */\n      mstore\n        /* \"#utility.yul\":5778:5896   */\n      pop\n      pop\n      jump\t// out\n        /* \"#utility.yul\":5902:6234   */\n    tag_42:\n        /* \"#utility.yul\":6023:6027   */\n      0x00\n        /* \"#utility.yul\":6061:6063   */\n      0x40\n        /* \"#utility.yul\":6050:6059   */\n      dup3\n        /* \"#utility.yul\":6046:6064   */\n      add\n        /* \"#utility.yul\":6038:6064   */\n      swap1\n      pop\n        /* \"#utility.yul\":6074:6145   */\n      tag_162\n        /* \"#utility.yul\":6142:6143   */\n      0x00\n        /* \"#utility.yul\":6131:6140   */\n      dup4\n        /* \"#utility.yul\":6127:6144   */\n      add\n        /* \"#utility.yul\":6118:6124   */\n      dup6\n        /* \"#utility.yul\":6074:6145   */\n      tag_93\n      jump\t// in\n    tag_162:\n        /* \"#utility.yul\":6155:6227   */\n      tag_163\n        /* \"#utility.yul\":6223:6225   */\n      0x20\n        /* \"#utility.yul\":6212:6221   */\n      dup4\n        /* \"#utility.yul\":6208:6226   */\n      add\n        /* \"#utility.yul\":6199:6205   */\n      dup5\n        /* \"#utility.yul\":6155:6227   */\n      tag_83\n      jump\t// in\n    tag_163:\n        /* \"#utility.yul\":5902:6234   */\n      swap4\n      swap3\n      pop\n      pop\n      pop\n      jump\t// out\n        /* \"#utility.yul\":6240:6409   */\n    tag_94:\n        /* \"#utility.yul\":6324:6335   */\n      0x00\n        /* \"#utility.yul\":6358:6364   */\n      dup3\n        /* \"#utility.yul\":6353:6356   */\n      dup3\n        /* \"#utility.yul\":6346:6365   */\n      mstore\n        /* \"#utility.yul\":6398:6402   */\n      0x20\n        /* \"#utility.yul\":6393:6396   */\n      dup3\n        /* \"#utility.yul\":6389:6403   */\n      add\n        /* \"#utility.yul\":6374:6403   */\n      swap1\n      pop\n        /* \"#utility.yul\":6240:6409   */\n      swap3\n      swap2\n      pop\n      pop\n      jump\t// out\n        /* \"#utility.yul\":6415:6580   */\n    tag_95:\n        /* \"#utility.yul\":6555:6572   */\n      0x4e6f2072657761726473206c6566740000000000000000000000000000000000\n        /* \"#utility.yul\":6551:6552   */\n      0x00\n        /* \"#utility.yul\":6543:6549   */\n      dup3\n        /* \"#utility.yul\":6539:6553   */\n      add\n        /* \"#utility.yul\":6532:6573   */\n      mstore\n        /* \"#utility.yul\":6415:6580   */\n      pop\n      jump\t// out\n        /* \"#utility.yul\":6586:6952   */\n    tag_96:\n        /* \"#utility.yul\":6728:6731   */\n      0x00\n        /* \"#utility.yul\":6749:6816   */\n      tag_167\n        /* \"#utility.yul\":6813:6815   */\n      0x0f\n        /* \"#utility.yul\":6808:6811   */\n      dup4\n        /* \"#utility.yul\":6749:6816   */\n      tag_94\n      jump\t// in\n    tag_167:\n        /* \"#utility.yul\":6742:6816   */\n      swap2\n      pop\n        /* \"#utility.yul\":6825:6918   */\n      tag_168\n        /* \"#utility.yul\":6914:6917   */\n      dup3\n        /* \"#utility.yul\":6825:6918   */\n      tag_95\n      jump\t// in\n    tag_168:\n        /* \"#utility.yul\":6943:6945   */\n      0x20\n        /* \"#utility.yul\":6938:6941   */\n      dup3\n        /* \"#utility.yul\":6934:6946   */\n      add\n        /* \"#utility.yul\":6927:6946   */\n      swap1\n      pop\n        /* \"#utility.yul\":6586:6952   */\n      swap2\n      swap1\n      pop\n      jump\t// out\n        /* \"#utility.yul\":6958:7377   */\n    tag_51:\n        /* \"#utility.yul\":7124:7128   */\n      0x00\n        /* \"#utility.yul\":7162:7164   */\n      0x20\n        /* \"#utility.yul\":7151:7160   */\n      dup3\n        /* \"#utility.yul\":7147:7165   */\n      add\n        /* \"#utility.yul\":7139:7165   */\n      swap1\n      pop\n        /* \"#utility.yul\":7211:7220   */\n      dup2\n        /* \"#utility.yul\":7205:7209   */\n      dup2\n        /* \"#utility.yul\":7201:7221   */\n      sub\n        /* \"#utility.yul\":7197:7198   */\n      0x00\n        /* \"#utility.yul\":7186:7195   */\n      dup4\n        /* \"#utility.yul\":7182:7199   */\n      add\n        /* \"#utility.yul\":7175:7222   */\n      mstore\n        /* \"#utility.yul\":7239:7370   */\n      tag_170\n        /* \"#utility.yul\":7365:7369   */\n      dup2\n        /* \"#utility.yul\":7239:7370   */\n      tag_96\n      jump\t// in\n    tag_170:\n        /* \"#utility.yul\":7231:7370   */\n      swap1\n      pop\n        /* \"#utility.yul\":6958:7377   */\n      swap2\n      swap1\n      pop\n      jump\t// out\n        /* \"#utility.yul\":7383:7563   */\n    tag_97:\n        /* \"#utility.yul\":7431:7508   */\n      0x4e487b7100000000000000000000000000000000000000000000000000000000\n        /* \"#utility.yul\":7428:7429   */\n      0x00\n        /* \"#utility.yul\":7421:7509   */\n      mstore\n        /* \"#utility.yul\":7528:7532   */\n      0x11\n        /* \"#utility.yul\":7525:7526   */\n      0x04\n        /* \"#utility.yul\":7518:7533   */\n      mstore\n        /* \"#utility.yul\":7552:7556   */\n      0x24\n        /* \"#utility.yul\":7549:7550   */\n      0x00\n        /* \"#utility.yul\":7542:7557   */\n      revert\n        /* \"#utility.yul\":7569:7763   */\n    tag_55:\n        /* \"#utility.yul\":7609:7613   */\n      0x00\n        /* \"#utility.yul\":7629:7649   */\n      tag_173\n        /* \"#utility.yul\":7647:7648   */\n      dup3\n        /* \"#utility.yul\":7629:7649   */\n      tag_77\n      jump\t// in\n    tag_173:\n        /* \"#utility.yul\":7624:7649   */\n      swap2\n      pop\n        /* \"#utility.yul\":7663:7683   */\n      tag_174\n        /* \"#utility.yul\":7681:7682   */\n      dup4\n        /* \"#utility.yul\":7663:7683   */\n      tag_77\n      jump\t// in\n    tag_174:\n        /* \"#utility.yul\":7658:7683   */\n      swap3\n      pop\n        /* \"#utility.yul\":7707:7708   */\n      dup3\n        /* \"#utility.yul\":7704:7705   */\n      dup3\n        /* \"#utility.yul\":7700:7709   */\n      sub\n        /* \"#utility.yul\":7692:7709   */\n      swap1\n      pop\n        /* \"#utility.yul\":7731:7732   */\n      dup2\n        /* \"#utility.yul\":7725:7729   */\n      dup2\n        /* \"#utility.yul\":7722:7733   */\n      gt\n        /* \"#utility.yul\":7719:7756   */\n      iszero\n      tag_175\n      jumpi\n        /* \"#utility.yul\":7736:7754   */\n      tag_176\n      tag_97\n      jump\t// in\n    tag_176:\n        /* \"#utility.yul\":7719:7756   */\n    tag_175:\n        /* \"#utility.yul\":7569:7763   */\n      swap3\n      swap2\n      pop\n      pop\n      jump\t// out\n        /* \"#utility.yul\":7769:7848   */\n    tag_98:\n        /* \"#utility.yul\":7808:7815   */\n      0x00\n        /* \"#utility.yul\":7837:7842   */\n      dup2\n        /* \"#utility.yul\":7826:7842   */\n      swap1\n      pop\n        /* \"#utility.yul\":7769:7848   */\n      swap2\n      swap1\n      pop\n      jump\t// out\n        /* \"#utility.yul\":7854:8011   */\n    tag_99:\n        /* \"#utility.yul\":7959:8004   */\n      tag_179\n        /* \"#utility.yul\":7979:8003   */\n      tag_180\n        /* \"#utility.yul\":7997:8002   */\n      dup3\n        /* \"#utility.yul\":7979:8003   */\n      tag_77\n      jump\t// in\n    tag_180:\n        /* \"#utility.yul\":7959:8004   */\n      tag_98\n      jump\t// in\n    tag_179:\n        /* \"#utility.yul\":7954:7957   */\n      dup3\n        /* \"#utility.yul\":7947:8005   */\n      mstore\n        /* \"#utility.yul\":7854:8011   */\n      pop\n      pop\n      jump\t// out\n        /* \"#utility.yul\":8017:8414   */\n    tag_59:\n        /* \"#utility.yul\":8157:8160   */\n      0x00\n        /* \"#utility.yul\":8172:8247   */\n      tag_182\n        /* \"#utility.yul\":8243:8246   */\n      dup3\n        /* \"#utility.yul\":8234:8240   */\n      dup6\n        /* \"#utility.yul\":8172:8247   */\n      tag_99\n      jump\t// in\n    tag_182:\n        /* \"#utility.yul\":8272:8274   */\n      0x20\n        /* \"#utility.yul\":8267:8270   */\n      dup3\n        /* \"#utility.yul\":8263:8275   */\n      add\n        /* \"#utility.yul\":8256:8275   */\n      swap2\n      pop\n        /* \"#utility.yul\":8285:8360   */\n      tag_183\n        /* \"#utility.yul\":8356:8359   */\n      dup3\n        /* \"#utility.yul\":8347:8353   */\n      dup5\n        /* \"#utility.yul\":8285:8360   */\n      tag_99\n      jump\t// in\n    tag_183:\n        /* \"#utility.yul\":8385:8387   */\n      0x20\n        /* \"#utility.yul\":8380:8383   */\n      dup3\n        /* \"#utility.yul\":8376:8388   */\n      add\n        /* \"#utility.yul\":8369:8388   */\n      swap2\n      pop\n        /* \"#utility.yul\":8405:8408   */\n      dup2\n        /* \"#utility.yul\":8398:8408   */\n      swap1\n      pop\n        /* \"#utility.yul\":8017:8414   */\n      swap4\n      swap3\n      pop\n      pop\n      pop\n      jump\t// out\n        /* \"#utility.yul\":8420:8611   */\n    tag_66:\n        /* \"#utility.yul\":8460:8463   */\n      0x00\n        /* \"#utility.yul\":8479:8499   */\n      tag_185\n        /* \"#utility.yul\":8497:8498   */\n      dup3\n        /* \"#utility.yul\":8479:8499   */\n      tag_77\n      jump\t// in\n    tag_185:\n        /* \"#utility.yul\":8474:8499   */\n      swap2\n      pop\n        /* \"#utility.yul\":8513:8533   */\n      tag_186\n        /* \"#utility.yul\":8531:8532   */\n      dup4\n        /* \"#utility.yul\":8513:8533   */\n      tag_77\n      jump\t// in\n    tag_186:\n        /* \"#utility.yul\":8508:8533   */\n      swap3\n      pop\n        /* \"#utility.yul\":8556:8557   */\n      dup3\n        /* \"#utility.yul\":8553:8554   */\n      dup3\n        /* \"#utility.yul\":8549:8558   */\n      add\n        /* \"#utility.yul\":8542:8558   */\n      swap1\n      pop\n        /* \"#utility.yul\":8577:8580   */\n      dup1\n        /* \"#utility.yul\":8574:8575   */\n      dup3\n        /* \"#utility.yul\":8571:8581   */\n      gt\n        /* \"#utility.yul\":8568:8604   */\n      iszero\n      tag_187\n      jumpi\n        /* \"#utility.yul\":8584:8602   */\n      tag_188\n      tag_97\n      jump\t// in\n    tag_188:\n        /* \"#utility.yul\":8568:8604   */\n    tag_187:\n        /* \"#utility.yul\":8420:8611   */\n      swap3\n      swap2\n      pop\n      pop\n      jump\t// out\n\n    auxdata: 0xa264697066735822122028a4b427ec612582ecf46288b78bc026c4517c36ae0f888b50ebe36875bcb50364736f6c634300081a0033\n}\n",
				"bytecode": {
					"linkReferences": {},
					"object": "6080604052348015600f57600080fd5b50604051602001601d9060a7565b60405160208183030381529060405280519060200120600181905550606460028190555060026003819055504260048190555060ba565b600081905092915050565b7f696e697469616c5f746172676574000000000000000000000000000000000000600082015250565b60006093600e836054565b9150609c82605f565b600e82019050919050565b600060b0826088565b9150819050919050565b6108c5806100c96000396000f3fe608060405234801561001057600080fd5b50600436106100885760003560e01c8063b6baffe31161005b578063b6baffe314610105578063bd306cb014610123578063dc1743fa14610141578063e0d152af1461015d57610088565b80631633da6e1461008d57806319cae462146100ab57806331d0f968146100c957806366666aa9146100e7575b600080fd5b61009561018e565b6040516100a291906105bf565b60405180910390f35b6100b361024d565b6040516100c091906105f0565b60405180910390f35b6100d1610253565b6040516100de9190610624565b60405180910390f35b6100ef610259565b6040516100fc91906105f0565b60405180910390f35b61010d61025f565b60405161011a91906105f0565b60405180910390f35b61012b610269565b60405161013891906105f0565b60405180910390f35b61015b60048036038101906101569190610670565b61026f565b005b610177600480360381019061017291906106c9565b6103bc565b604051610185929190610705565b60405180910390f35b60606000805480602002602001604051908101604052809291908181526020016000905b8282101561024457838290600052602060002090600202016040518060400160405290816000820160009054906101000a900473ffffffffffffffffffffffffffffffffffffffff1673ffffffffffffffffffffffffffffffffffffffff1673ffffffffffffffffffffffffffffffffffffffff168152602001600182015481525050815260200190600101906101b2565b50505050905090565b60035481565b60015481565b60025481565b6000600354905090565b60045481565b6000600254116102b4576040517f08c379a00000000000000000000000000000000000000000000000000000000081526004016102ab9061078b565b60405180910390fd5b60015481036103b957600060405180604001604052803373ffffffffffffffffffffffffffffffffffffffff168152602001600a815250908060018154018082558091505060019003906000526020600020906002020160009091909190915060008201518160000160006101000a81548173ffffffffffffffffffffffffffffffffffffffff021916908373ffffffffffffffffffffffffffffffffffffffff160217905550602082015181600101555050600a6002600082825461037a91906107da565b92505081905550610389610410565b424460405160200161039c92919061082f565b604051602081830303815290604052805190602001206001819055505b50565b600081815481106103cc57600080fd5b90600052602060002090600202016000915090508060000160009054906101000a900473ffffffffffffffffffffffffffffffffffffffff16908060010154905082565b60006004544261042091906107da565b9050606481101561044a5760016003600082825461043e919061085b565b9250508190555061047d565b601e8111801561045c57506001600354115b1561047c5760016003600082825461047491906107da565b925050819055505b5b4260048190555050565b600081519050919050565b600082825260208201905092915050565b6000819050602082019050919050565b600073ffffffffffffffffffffffffffffffffffffffff82169050919050565b60006104de826104b3565b9050919050565b6104ee816104d3565b82525050565b6000819050919050565b610507816104f4565b82525050565b60408201600082015161052360008501826104e5565b50602082015161053660208501826104fe565b50505050565b6000610548838361050d565b60408301905092915050565b6000602082019050919050565b600061056c82610487565b6105768185610492565b9350610581836104a3565b8060005b838110156105b2578151610599888261053c565b97506105a483610554565b925050600181019050610585565b5085935050505092915050565b600060208201905081810360008301526105d98184610561565b905092915050565b6105ea816104f4565b82525050565b600060208201905061060560008301846105e1565b92915050565b6000819050919050565b61061e8161060b565b82525050565b60006020820190506106396000830184610615565b92915050565b600080fd5b61064d8161060b565b811461065857600080fd5b50565b60008135905061066a81610644565b92915050565b6000602082840312156106865761068561063f565b5b60006106948482850161065b565b91505092915050565b6106a6816104f4565b81146106b157600080fd5b50565b6000813590506106c38161069d565b92915050565b6000602082840312156106df576106de61063f565b5b60006106ed848285016106b4565b91505092915050565b6106ff816104d3565b82525050565b600060408201905061071a60008301856106f6565b61072760208301846105e1565b9392505050565b600082825260208201905092915050565b7f4e6f2072657761726473206c6566740000000000000000000000000000000000600082015250565b6000610775600f8361072e565b91506107808261073f565b602082019050919050565b600060208201905081810360008301526107a481610768565b9050919050565b7f4e487b7100000000000000000000000000000000000000000000000000000000600052601160045260246000fd5b60006107e5826104f4565b91506107f0836104f4565b9250828203905081811115610808576108076107ab565b5b92915050565b6000819050919050565b610829610824826104f4565b61080e565b82525050565b600061083b8285610818565b60208201915061084b8284610818565b6020820191508190509392505050565b6000610866826104f4565b9150610871836104f4565b9250828201905080821115610889576108886107ab565b5b9291505056fea264697066735822122028a4b427ec612582ecf46288b78bc026c4517c36ae0f888b50ebe36875bcb50364736f6c634300081a0033",
					"opcodes": "PUSH1 0x80 PUSH1 0x40 MSTORE CALLVALUE DUP1 ISZERO PUSH1 0xF JUMPI PUSH1 0x0 DUP1 REVERT JUMPDEST POP PUSH1 0x40 MLOAD PUSH1 0x20 ADD PUSH1 0x1D SWAP1 PUSH1 0xA7 JUMP JUMPDEST PUSH1 0x40 MLOAD PUSH1 0x20 DUP2 DUP4 SUB SUB DUP2 MSTORE SWAP1 PUSH1 0x40 MSTORE DUP1 MLOAD SWAP1 PUSH1 0x20 ADD KECCAK256 PUSH1 0x1 DUP2 SWAP1 SSTORE POP PUSH1 0x64 PUSH1 0x2 DUP2 SWAP1 SSTORE POP PUSH1 0x2 PUSH1 0x3 DUP2 SWAP1 SSTORE POP TIMESTAMP PUSH1 0x4 DUP2 SWAP1 SSTORE POP PUSH1 0xBA JUMP JUMPDEST PUSH1 0x0 DUP2 SWAP1 POP SWAP3 SWAP2 POP POP JUMP JUMPDEST PUSH32 0x696E697469616C5F746172676574000000000000000000000000000000000000 PUSH1 0x0 DUP3 ADD MSTORE POP JUMP JUMPDEST PUSH1 0x0 PUSH1 0x93 PUSH1 0xE DUP4 PUSH1 0x54 JUMP JUMPDEST SWAP2 POP PUSH1 0x9C DUP3 PUSH1 0x5F JUMP JUMPDEST PUSH1 0xE DUP3 ADD SWAP1 POP SWAP2 SWAP1 POP JUMP JUMPDEST PUSH1 0x0 PUSH1 0xB0 DUP3 PUSH1 0x88 JUMP JUMPDEST SWAP2 POP DUP2 SWAP1 POP SWAP2 SWAP1 POP JUMP JUMPDEST PUSH2 0x8C5 DUP1 PUSH2 0xC9 PUSH1 0x0 CODECOPY PUSH1 0x0 RETURN INVALID PUSH1 0x80 PUSH1 0x40 MSTORE CALLVALUE DUP1 ISZERO PUSH2 0x10 JUMPI PUSH1 0x0 DUP1 REVERT JUMPDEST POP PUSH1 0x4 CALLDATASIZE LT PUSH2 0x88 JUMPI PUSH1 0x0 CALLDATALOAD PUSH1 0xE0 SHR DUP1 PUSH4 0xB6BAFFE3 GT PUSH2 0x5B JUMPI DUP1 PUSH4 0xB6BAFFE3 EQ PUSH2 0x105 JUMPI DUP1 PUSH4 0xBD306CB0 EQ PUSH2 0x123 JUMPI DUP1 PUSH4 0xDC1743FA EQ PUSH2 0x141 JUMPI DUP1 PUSH4 0xE0D152AF EQ PUSH2 0x15D JUMPI PUSH2 0x88 JUMP JUMPDEST DUP1 PUSH4 0x1633DA6E EQ PUSH2 0x8D JUMPI DUP1 PUSH4 0x19CAE462 EQ PUSH2 0xAB JUMPI DUP1 PUSH4 0x31D0F968 EQ PUSH2 0xC9 JUMPI DUP1 PUSH4 0x66666AA9 EQ PUSH2 0xE7 JUMPI JUMPDEST PUSH1 0x0 DUP1 REVERT JUMPDEST PUSH2 0x95 PUSH2 0x18E JUMP JUMPDEST PUSH1 0x40 MLOAD PUSH2 0xA2 SWAP2 SWAP1 PUSH2 0x5BF JUMP JUMPDEST PUSH1 0x40 MLOAD DUP1 SWAP2 SUB SWAP1 RETURN JUMPDEST PUSH2 0xB3 PUSH2 0x24D JUMP JUMPDEST PUSH1 0x40 MLOAD PUSH2 0xC0 SWAP2 SWAP1 PUSH2 0x5F0 JUMP JUMPDEST PUSH1 0x40 MLOAD DUP1 SWAP2 SUB SWAP1 RETURN JUMPDEST PUSH2 0xD1 PUSH2 0x253 JUMP JUMPDEST PUSH1 0x40 MLOAD PUSH2 0xDE SWAP2 SWAP1 PUSH2 0x624 JUMP JUMPDEST PUSH1 0x40 MLOAD DUP1 SWAP2 SUB SWAP1 RETURN JUMPDEST PUSH2 0xEF PUSH2 0x259 JUMP JUMPDEST PUSH1 0x40 MLOAD PUSH2 0xFC SWAP2 SWAP1 PUSH2 0x5F0 JUMP JUMPDEST PUSH1 0x40 MLOAD DUP1 SWAP2 SUB SWAP1 RETURN JUMPDEST PUSH2 0x10D PUSH2 0x25F JUMP JUMPDEST PUSH1 0x40 MLOAD PUSH2 0x11A SWAP2 SWAP1 PUSH2 0x5F0 JUMP JUMPDEST PUSH1 0x40 MLOAD DUP1 SWAP2 SUB SWAP1 RETURN JUMPDEST PUSH2 0x12B PUSH2 0x269 JUMP JUMPDEST PUSH1 0x40 MLOAD PUSH2 0x138 SWAP2 SWAP1 PUSH2 0x5F0 JUMP JUMPDEST PUSH1 0x40 MLOAD DUP1 SWAP2 SUB SWAP1 RETURN JUMPDEST PUSH2 0x15B PUSH1 0x4 DUP1 CALLDATASIZE SUB DUP2 ADD SWAP1 PUSH2 0x156 SWAP2 SWAP1 PUSH2 0x670 JUMP JUMPDEST PUSH2 0x26F JUMP JUMPDEST STOP JUMPDEST PUSH2 0x177 PUSH1 0x4 DUP1 CALLDATASIZE SUB DUP2 ADD SWAP1 PUSH2 0x172 SWAP2 SWAP1 PUSH2 0x6C9 JUMP JUMPDEST PUSH2 0x3BC JUMP JUMPDEST PUSH1 0x40 MLOAD PUSH2 0x185 SWAP3 SWAP2 SWAP1 PUSH2 0x705 JUMP JUMPDEST PUSH1 0x40 MLOAD DUP1 SWAP2 SUB SWAP1 RETURN JUMPDEST PUSH1 0x60 PUSH1 0x0 DUP1 SLOAD DUP1 PUSH1 0x20 MUL PUSH1 0x20 ADD PUSH1 0x40 MLOAD SWAP1 DUP2 ADD PUSH1 0x40 MSTORE DUP1 SWAP3 SWAP2 SWAP1 DUP2 DUP2 MSTORE PUSH1 0x20 ADD PUSH1 0x0 SWAP1 JUMPDEST DUP3 DUP3 LT ISZERO PUSH2 0x244 JUMPI DUP4 DUP3 SWAP1 PUSH1 0x0 MSTORE PUSH1 0x20 PUSH1 0x0 KECCAK256 SWAP1 PUSH1 0x2 MUL ADD PUSH1 0x40 MLOAD DUP1 PUSH1 0x40 ADD PUSH1 0x40 MSTORE SWAP1 DUP2 PUSH1 0x0 DUP3 ADD PUSH1 0x0 SWAP1 SLOAD SWAP1 PUSH2 0x100 EXP SWAP1 DIV PUSH20 0xFFFFFFFFFFFFFFFFFFFFFFFFFFFFFFFFFFFFFFFF AND PUSH20 0xFFFFFFFFFFFFFFFFFFFFFFFFFFFFFFFFFFFFFFFF AND PUSH20 0xFFFFFFFFFFFFFFFFFFFFFFFFFFFFFFFFFFFFFFFF AND DUP2 MSTORE PUSH1 0x20 ADD PUSH1 0x1 DUP3 ADD SLOAD DUP2 MSTORE POP POP DUP2 MSTORE PUSH1 0x20 ADD SWAP1 PUSH1 0x1 ADD SWAP1 PUSH2 0x1B2 JUMP JUMPDEST POP POP POP POP SWAP1 POP SWAP1 JUMP JUMPDEST PUSH1 0x3 SLOAD DUP2 JUMP JUMPDEST PUSH1 0x1 SLOAD DUP2 JUMP JUMPDEST PUSH1 0x2 SLOAD DUP2 JUMP JUMPDEST PUSH1 0x0 PUSH1 0x3 SLOAD SWAP1 POP SWAP1 JUMP JUMPDEST PUSH1 0x4 SLOAD DUP2 JUMP JUMPDEST PUSH1 0x0 PUSH1 0x2 SLOAD GT PUSH2 0x2B4 JUMPI PUSH1 0x40 MLOAD PUSH32 0x8C379A000000000000000000000000000000000000000000000000000000000 DUP2 MSTORE PUSH1 0x4 ADD PUSH2 0x2AB SWAP1 PUSH2 0x78B JUMP JUMPDEST PUSH1 0x40 MLOAD DUP1 SWAP2 SUB SWAP1 REVERT JUMPDEST PUSH1 0x1 SLOAD DUP2 SUB PUSH2 0x3B9 JUMPI PUSH1 0x0 PUSH1 0x40 MLOAD DUP1 PUSH1 0x40 ADD PUSH1 0x40 MSTORE DUP1 CALLER PUSH20 0xFFFFFFFFFFFFFFFFFFFFFFFFFFFFFFFFFFFFFFFF AND DUP2 MSTORE PUSH1 0x20 ADD PUSH1 0xA DUP2 MSTORE POP SWAP1 DUP1 PUSH1 0x1 DUP2 SLOAD ADD DUP1 DUP3 SSTORE DUP1 SWAP2 POP POP PUSH1 0x1 SWAP1 SUB SWAP1 PUSH1 0x0 MSTORE PUSH1 0x20 PUSH1 0x0 KECCAK256 SWAP1 PUSH1 0x2 MUL ADD PUSH1 0x0 SWAP1 SWAP2 SWAP1 SWAP2 SWAP1 SWAP2 POP PUSH1 0x0 DUP3 ADD MLOAD DUP2 PUSH1 0x0 ADD PUSH1 0x0 PUSH2 0x100 EXP DUP2 SLOAD DUP2 PUSH20 0xFFFFFFFFFFFFFFFFFFFFFFFFFFFFFFFFFFFFFFFF MUL NOT AND SWAP1 DUP4 PUSH20 0xFFFFFFFFFFFFFFFFFFFFFFFFFFFFFFFFFFFFFFFF AND MUL OR SWAP1 SSTORE POP PUSH1 0x20 DUP3 ADD MLOAD DUP2 PUSH1 0x1 ADD SSTORE POP POP PUSH1 0xA PUSH1 0x2 PUSH1 0x0 DUP3 DUP3 SLOAD PUSH2 0x37A SWAP2 SWAP1 PUSH2 0x7DA JUMP JUMPDEST SWAP3 POP POP DUP2 SWAP1 SSTORE POP PUSH2 0x389 PUSH2 0x410 JUMP JUMPDEST TIMESTAMP DIFFICULTY PUSH1 0x40 MLOAD PUSH1 0x20 ADD PUSH2 0x39C SWAP3 SWAP2 SWAP1 PUSH2 0x82F JUMP JUMPDEST PUSH1 0x40 MLOAD PUSH1 0x20 DUP2 DUP4 SUB SUB DUP2 MSTORE SWAP1 PUSH1 0x40 MSTORE DUP1 MLOAD SWAP1 PUSH1 0x20 ADD KECCAK256 PUSH1 0x1 DUP2 SWAP1 SSTORE POP JUMPDEST POP JUMP JUMPDEST PUSH1 0x0 DUP2 DUP2 SLOAD DUP2 LT PUSH2 0x3CC JUMPI PUSH1 0x0 DUP1 REVERT JUMPDEST SWAP1 PUSH1 0x0 MSTORE PUSH1 0x20 PUSH1 0x0 KECCAK256 SWAP1 PUSH1 0x2 MUL ADD PUSH1 0x0 SWAP2 POP SWAP1 POP DUP1 PUSH1 0x0 ADD PUSH1 0x0 SWAP1 SLOAD SWAP1 PUSH2 0x100 EXP SWAP1 DIV PUSH20 0xFFFFFFFFFFFFFFFFFFFFFFFFFFFFFFFFFFFFFFFF AND SWAP1 DUP1 PUSH1 0x1 ADD SLOAD SWAP1 POP DUP3 JUMP JUMPDEST PUSH1 0x0 PUSH1 0x4 SLOAD TIMESTAMP PUSH2 0x420 SWAP2 SWAP1 PUSH2 0x7DA JUMP JUMPDEST SWAP1 POP PUSH1 0x64 DUP2 LT ISZERO PUSH2 0x44A JUMPI PUSH1 0x1 PUSH1 0x3 PUSH1 0x0 DUP3 DUP3 SLOAD PUSH2 0x43E SWAP2 SWAP1 PUSH2 0x85B JUMP JUMPDEST SWAP3 POP POP DUP2 SWAP1 SSTORE POP PUSH2 0x47D JUMP JUMPDEST PUSH1 0x1E DUP2 GT DUP1 ISZERO PUSH2 0x45C JUMPI POP PUSH1 0x1 PUSH1 0x3 SLOAD GT JUMPDEST ISZERO PUSH2 0x47C JUMPI PUSH1 0x1 PUSH1 0x3 PUSH1 0x0 DUP3 DUP3 SLOAD PUSH2 0x474 SWAP2 SWAP1 PUSH2 0x7DA JUMP JUMPDEST SWAP3 POP POP DUP2 SWAP1 SSTORE POP JUMPDEST JUMPDEST TIMESTAMP PUSH1 0x4 DUP2 SWAP1 SSTORE POP POP JUMP JUMPDEST PUSH1 0x0 DUP2 MLOAD SWAP1 POP SWAP2 SWAP1 POP JUMP JUMPDEST PUSH1 0x0 DUP3 DUP3 MSTORE PUSH1 0x20 DUP3 ADD SWAP1 POP SWAP3 SWAP2 POP POP JUMP JUMPDEST PUSH1 0x0 DUP2 SWAP1 POP PUSH1 0x20 DUP3 ADD SWAP1 POP SWAP2 SWAP1 POP JUMP JUMPDEST PUSH1 0x0 PUSH20 0xFFFFFFFFFFFFFFFFFFFFFFFFFFFFFFFFFFFFFFFF DUP3 AND SWAP1 POP SWAP2 SWAP1 POP JUMP JUMPDEST PUSH1 0x0 PUSH2 0x4DE DUP3 PUSH2 0x4B3 JUMP JUMPDEST SWAP1 POP SWAP2 SWAP1 POP JUMP JUMPDEST PUSH2 0x4EE DUP2 PUSH2 0x4D3 JUMP JUMPDEST DUP3 MSTORE POP POP JUMP JUMPDEST PUSH1 0x0 DUP2 SWAP1 POP SWAP2 SWAP1 POP JUMP JUMPDEST PUSH2 0x507 DUP2 PUSH2 0x4F4 JUMP JUMPDEST DUP3 MSTORE POP POP JUMP JUMPDEST PUSH1 0x40 DUP3 ADD PUSH1 0x0 DUP3 ADD MLOAD PUSH2 0x523 PUSH1 0x0 DUP6 ADD DUP3 PUSH2 0x4E5 JUMP JUMPDEST POP PUSH1 0x20 DUP3 ADD MLOAD PUSH2 0x536 PUSH1 0x20 DUP6 ADD DUP3 PUSH2 0x4FE JUMP JUMPDEST POP POP POP POP JUMP JUMPDEST PUSH1 0x0 PUSH2 0x548 DUP4 DUP4 PUSH2 0x50D JUMP JUMPDEST PUSH1 0x40 DUP4 ADD SWAP1 POP SWAP3 SWAP2 POP POP JUMP JUMPDEST PUSH1 0x0 PUSH1 0x20 DUP3 ADD SWAP1 POP SWAP2 SWAP1 POP JUMP JUMPDEST PUSH1 0x0 PUSH2 0x56C DUP3 PUSH2 0x487 JUMP JUMPDEST PUSH2 0x576 DUP2 DUP6 PUSH2 0x492 JUMP JUMPDEST SWAP4 POP PUSH2 0x581 DUP4 PUSH2 0x4A3 JUMP JUMPDEST DUP1 PUSH1 0x0 JUMPDEST DUP4 DUP2 LT ISZERO PUSH2 0x5B2 JUMPI DUP2 MLOAD PUSH2 0x599 DUP9 DUP3 PUSH2 0x53C JUMP JUMPDEST SWAP8 POP PUSH2 0x5A4 DUP4 PUSH2 0x554 JUMP JUMPDEST SWAP3 POP POP PUSH1 0x1 DUP2 ADD SWAP1 POP PUSH2 0x585 JUMP JUMPDEST POP DUP6 SWAP4 POP POP POP POP SWAP3 SWAP2 POP POP JUMP JUMPDEST PUSH1 0x0 PUSH1 0x20 DUP3 ADD SWAP1 POP DUP2 DUP2 SUB PUSH1 0x0 DUP4 ADD MSTORE PUSH2 0x5D9 DUP2 DUP5 PUSH2 0x561 JUMP JUMPDEST SWAP1 POP SWAP3 SWAP2 POP POP JUMP JUMPDEST PUSH2 0x5EA DUP2 PUSH2 0x4F4 JUMP JUMPDEST DUP3 MSTORE POP POP JUMP JUMPDEST PUSH1 0x0 PUSH1 0x20 DUP3 ADD SWAP1 POP PUSH2 0x605 PUSH1 0x0 DUP4 ADD DUP5 PUSH2 0x5E1 JUMP JUMPDEST SWAP3 SWAP2 POP POP JUMP JUMPDEST PUSH1 0x0 DUP2 SWAP1 POP SWAP2 SWAP1 POP JUMP JUMPDEST PUSH2 0x61E DUP2 PUSH2 0x60B JUMP JUMPDEST DUP3 MSTORE POP POP JUMP JUMPDEST PUSH1 0x0 PUSH1 0x20 DUP3 ADD SWAP1 POP PUSH2 0x639 PUSH1 0x0 DUP4 ADD DUP5 PUSH2 0x615 JUMP JUMPDEST SWAP3 SWAP2 POP POP JUMP JUMPDEST PUSH1 0x0 DUP1 REVERT JUMPDEST PUSH2 0x64D DUP2 PUSH2 0x60B JUMP JUMPDEST DUP2 EQ PUSH2 0x658 JUMPI PUSH1 0x0 DUP1 REVERT JUMPDEST POP JUMP JUMPDEST PUSH1 0x0 DUP2 CALLDATALOAD SWAP1 POP PUSH2 0x66A DUP2 PUSH2 0x644 JUMP JUMPDEST SWAP3 SWAP2 POP POP JUMP JUMPDEST PUSH1 0x0 PUSH1 0x20 DUP3 DUP5 SUB SLT ISZERO PUSH2 0x686 JUMPI PUSH2 0x685 PUSH2 0x63F JUMP JUMPDEST JUMPDEST PUSH1 0x0 PUSH2 0x694 DUP5 DUP3 DUP6 ADD PUSH2 0x65B JUMP JUMPDEST SWAP2 POP POP SWAP3 SWAP2 POP POP JUMP JUMPDEST PUSH2 0x6A6 DUP2 PUSH2 0x4F4 JUMP JUMPDEST DUP2 EQ PUSH2 0x6B1 JUMPI PUSH1 0x0 DUP1 REVERT JUMPDEST POP JUMP JUMPDEST PUSH1 0x0 DUP2 CALLDATALOAD SWAP1 POP PUSH2 0x6C3 DUP2 PUSH2 0x69D JUMP JUMPDEST SWAP3 SWAP2 POP POP JUMP JUMPDEST PUSH1 0x0 PUSH1 0x20 DUP3 DUP5 SUB SLT ISZERO PUSH2 0x6DF JUMPI PUSH2 0x6DE PUSH2 0x63F JUMP JUMPDEST JUMPDEST PUSH1 0x0 PUSH2 0x6ED DUP5 DUP3 DUP6 ADD PUSH2 0x6B4 JUMP JUMPDEST SWAP2 POP POP SWAP3 SWAP2 POP POP JUMP JUMPDEST PUSH2 0x6FF DUP2 PUSH2 0x4D3 JUMP JUMPDEST DUP3 MSTORE POP POP JUMP JUMPDEST PUSH1 0x0 PUSH1 0x40 DUP3 ADD SWAP1 POP PUSH2 0x71A PUSH1 0x0 DUP4 ADD DUP6 PUSH2 0x6F6 JUMP JUMPDEST PUSH2 0x727 PUSH1 0x20 DUP4 ADD DUP5 PUSH2 0x5E1 JUMP JUMPDEST SWAP4 SWAP3 POP POP POP JUMP JUMPDEST PUSH1 0x0 DUP3 DUP3 MSTORE PUSH1 0x20 DUP3 ADD SWAP1 POP SWAP3 SWAP2 POP POP JUMP JUMPDEST PUSH32 0x4E6F2072657761726473206C6566740000000000000000000000000000000000 PUSH1 0x0 DUP3 ADD MSTORE POP JUMP JUMPDEST PUSH1 0x0 PUSH2 0x775 PUSH1 0xF DUP4 PUSH2 0x72E JUMP JUMPDEST SWAP2 POP PUSH2 0x780 DUP3 PUSH2 0x73F JUMP JUMPDEST PUSH1 0x20 DUP3 ADD SWAP1 POP SWAP2 SWAP1 POP JUMP JUMPDEST PUSH1 0x0 PUSH1 0x20 DUP3 ADD SWAP1 POP DUP2 DUP2 SUB PUSH1 0x0 DUP4 ADD MSTORE PUSH2 0x7A4 DUP2 PUSH2 0x768 JUMP JUMPDEST SWAP1 POP SWAP2 SWAP1 POP JUMP JUMPDEST PUSH32 0x4E487B7100000000000000000000000000000000000000000000000000000000 PUSH1 0x0 MSTORE PUSH1 0x11 PUSH1 0x4 MSTORE PUSH1 0x24 PUSH1 0x0 REVERT JUMPDEST PUSH1 0x0 PUSH2 0x7E5 DUP3 PUSH2 0x4F4 JUMP JUMPDEST SWAP2 POP PUSH2 0x7F0 DUP4 PUSH2 0x4F4 JUMP JUMPDEST SWAP3 POP DUP3 DUP3 SUB SWAP1 POP DUP2 DUP2 GT ISZERO PUSH2 0x808 JUMPI PUSH2 0x807 PUSH2 0x7AB JUMP JUMPDEST JUMPDEST SWAP3 SWAP2 POP POP JUMP JUMPDEST PUSH1 0x0 DUP2 SWAP1 POP SWAP2 SWAP1 POP JUMP JUMPDEST PUSH2 0x829 PUSH2 0x824 DUP3 PUSH2 0x4F4 JUMP JUMPDEST PUSH2 0x80E JUMP JUMPDEST DUP3 MSTORE POP POP JUMP JUMPDEST PUSH1 0x0 PUSH2 0x83B DUP3 DUP6 PUSH2 0x818 JUMP JUMPDEST PUSH1 0x20 DUP3 ADD SWAP2 POP PUSH2 0x84B DUP3 DUP5 PUSH2 0x818 JUMP JUMPDEST PUSH1 0x20 DUP3 ADD SWAP2 POP DUP2 SWAP1 POP SWAP4 SWAP3 POP POP POP JUMP JUMPDEST PUSH1 0x0 PUSH2 0x866 DUP3 PUSH2 0x4F4 JUMP JUMPDEST SWAP2 POP PUSH2 0x871 DUP4 PUSH2 0x4F4 JUMP JUMPDEST SWAP3 POP DUP3 DUP3 ADD SWAP1 POP DUP1 DUP3 GT ISZERO PUSH2 0x889 JUMPI PUSH2 0x888 PUSH2 0x7AB JUMP JUMPDEST JUMPDEST SWAP3 SWAP2 POP POP JUMP INVALID LOG2 PUSH5 0x6970667358 0x22 SLT KECCAK256 0x28 LOG4 0xB4 0x27 0xEC PUSH2 0x2582 0xEC DELEGATECALL PUSH3 0x88B78B 0xC0 0x26 0xC4 MLOAD PUSH29 0x36AE0F888B50EBE36875BCB50364736F6C634300081A00330000000000 "
				},
				"gasEstimates": {
					"creation": {
						"codeDepositCost": "449000",
						"executionCost": "89252",
						"totalCost": "538252"
					},
					"external": {
						"difficulty()": "2452",
						"getDifficulty()": "2437",
						"getMiners()": "infinite",
						"lastSolutionTime()": "2451",
						"miners(uint256)": "infinite",
						"rewardPool()": "2496",
						"submitSolution(bytes32)": "infinite",
						"targetHash()": "2474"
					},
					"internal": {
						"adjustDifficulty()": "infinite"
					}
				},
				"methodIdentifiers": {
					"difficulty()": "19cae462",
					"getDifficulty()": "b6baffe3",
					"getMiners()": "1633da6e",
					"lastSolutionTime()": "bd306cb0",
					"miners(uint256)": "e0d152af",
					"rewardPool()": "66666aa9",
					"submitSolution(bytes32)": "dc1743fa",
					"targetHash()": "31d0f968"
				}
			},
			"storageLayout": {
				"storage": [
					{
						"astId": 10,
						"contract": "ProofOfWork.sol:ProofOfWork",
						"label": "miners",
						"offset": 0,
						"slot": "0",
						"type": "t_array(t_struct(Miner)6_storage)dyn_storage"
					},
					{
						"astId": 12,
						"contract": "ProofOfWork.sol:ProofOfWork",
						"label": "targetHash",
						"offset": 0,
						"slot": "1",
						"type": "t_bytes32"
					},
					{
						"astId": 14,
						"contract": "ProofOfWork.sol:ProofOfWork",
						"label": "rewardPool",
						"offset": 0,
						"slot": "2",
						"type": "t_uint256"
					},
					{
						"astId": 16,
						"contract": "ProofOfWork.sol:ProofOfWork",
						"label": "difficulty",
						"offset": 0,
						"slot": "3",
						"type": "t_uint256"
					},
					{
						"astId": 18,
						"contract": "ProofOfWork.sol:ProofOfWork",
						"label": "lastSolutionTime",
						"offset": 0,
						"slot": "4",
						"type": "t_uint256"
					}
				],
				"types": {
					"t_address": {
						"encoding": "inplace",
						"label": "address",
						"numberOfBytes": "20"
					},
					"t_array(t_struct(Miner)6_storage)dyn_storage": {
						"base": "t_struct(Miner)6_storage",
						"encoding": "dynamic_array",
						"label": "struct ProofOfWork.Miner[]",
						"numberOfBytes": "32"
					},
					"t_bytes32": {
						"encoding": "inplace",
						"label": "bytes32",
						"numberOfBytes": "32"
					},
					"t_struct(Miner)6_storage": {
						"encoding": "inplace",
						"label": "struct ProofOfWork.Miner",
						"members": [
							{
								"astId": 3,
								"contract": "ProofOfWork.sol:ProofOfWork",
								"label": "minerAddress",
								"offset": 0,
								"slot": "0",
								"type": "t_address"
							},
							{
								"astId": 5,
								"contract": "ProofOfWork.sol:ProofOfWork",
								"label": "reward",
								"offset": 0,
								"slot": "1",
								"type": "t_uint256"
							}
						],
						"numberOfBytes": "64"
					},
					"t_uint256": {
						"encoding": "inplace",
						"label": "uint256",
						"numberOfBytes": "32"
					}
				}
			},
			"userdoc": {
				"kind": "user",
				"methods": {},
				"version": 1
			}
		}
	}
}